:020000040000FA
:10000000C01700204D2F0000552F0000572F000073
:1000100000000000000000000000000000000000E0
:10002000000000000000000000000000592F000048
:1000300000000000000000005B2F00005D2F0000AA
:100040005F2F0000CD170000ED1700000D18000015
:10005000232800005F2F00005F2F0000CB2100004D
:10006000CF210000D3210000D72100005F2F000026
:10007000350100005F2F00005F2F00005F2F0000A0
:100080005F1200005F2F0000FF1B00005F2F0000C9
:10009000572700005B270000D90B00005F2F0000EE
:1000A0005F2F00005F2F000000F002F800F030F832
:1000B0000CA030C8083824182D18A246671EAB467D
:1000C00054465D46AC4201D100F022F87E460F3E18
:1000D0000FCCB6460126334200D0FB1AA246AB46EF
:1000E000334318474C5D00006C5D00000023002482
:1000F00000250026103A01D378C1FBD8520700D35F
:1001000030C100D50B6070471FB51FBD10B510BDC5
:1001100005F0EBFC1146FFF7F7FF02F0F9FE05F0E2
:1001200003FD03B4FFF7F2FF03BC05F009FD000077
:1001300080687047704701208007C26A81128A4335
:10014000C262426B8A434263C26A0A43C262426B22
:100150000A434263884887490160002141600122C7
:1001600052028260C160854A02614261844A8261B2
:10017000844AC26101220262834A426281627047FC
:10018000012803D0022806D0002070477A48006B6F
:100190000004000D70477D4800680004000D7047A2
:1001A0007A48C0680004000D704710B50120800730
:1001B000826A0F2109020A438262026B0A430263C8
:1001C000734A15201063512010630121212040063D
:1001D000416070490160704981607049C160714837
:1001E0006F490160704981607049C1607149704B0D
:1001F0004B60714B0B60714B8B60714BCB6011236B
:1002000070499B020B6070238B603023CB60002110
:10021000116301230322062101F066F801206A49D7
:100220000003086010BD01208007C26A81118A4363
:10023000C262426B8A434263C26A0A43C262426B31
:100240000A43426361490120086070477047614971
:100250005F4848628007826A40218A438262026B5B
:100260008A430263826A0A438262026B0A43026320
:100270005948012101600021416081600321090288
:10028000C1607047544900208860704752488068B8
:100290007047704770474F490869504A1040504AAC
:1002A0001043086150484F49016351494F4A8A60E1
:1002B0000022D2430A600021016370474A4849493D
:1002C00001634B498A6810231A438A600021016345
:1002D0007047454947480863704710B401229207A8
:1002E000D36A5B085B00D362536B5B085B005363AC
:1002F000D46A01231C43D462546B1C435463002210
:1003000002610A7C3C4BD207920ED2180B7BDB07B2
:10031000DB0E1A430B79DB071B0F1A430B7ADB0743
:100320005B0F1A430B789B079B0F1A4342600A69C5
:10033000012A05D00221C1603049416110BC7047DB
:10034000898A89B2F7E7012900D00021016170474D
:1003500010B44468A40606D51B04120213430B43D1
:10036000436110BC70472549416110BC7047016072
:1003700070477047E10400000020004202020202C0
:100380001211000006000002FFFF0F004020004293
:10039000C00F004200077777F0FF0F006B55050094
:1003A0000000103000010042FF070000FFF70000CE
:1003B00003117700000200421100003000C001303C
:1003C000000001300003004200E100E000B3004003
:1003D000010400008000004000060040FFFF00F81C
:1003E000000001045AA50000C0020040488000003F
:1003F000000200405A5500000002180001010100EF
:10040000F8B502F08CFE414D2888002804D06878A9
:10041000400701D4012700E0002704F05FFB3C4CBB
:100420000126207800280ED0012823D0022809D1E7
:1004300038490020088002F05CFE04F029FA288880
:10044000002815D0F8BD7520400204F004FC3249A4
:1004500080B208600F20000304F0FDFBA06003F0F1
:100460009BFC7D202D49C00002F0BFFD0028E9D093
:100470002670F8BD02F0F5FD04F0EBF8002FF8D07F
:1004800002202070F8BD244F204D214C02F047FE81
:100490002888002804D06878400701D4012600E0AD
:1004A000002604F01BFB2078002810D0012824D05F
:1004B0000228EBD117490020088002F01AFE04F050
:1004C000E7F928880028E1D101202070DEE77520B7
:1004D000400204F0C0FB80B238600F20000304F03B
:1004E000BAFBA06003F058FC7D200C49C00002F06C
:1004F0007CFD0028CAD0012006E002F0B2FD04F025
:10050000A8F8002EC2D002202070BFE726010020EC
:10051000000000201A0100204401002004000020F7
:1005200072B61B481B4908631B49002088601B48A2
:100530005721016375210163194815210163512178
:100540000163194917480860C0104860174A88605D
:100550005068174B984308615060412000060168BD
:100560009215914301600168120211430160016814
:1005700009090901891C016062B67047002805D08D
:100580000949C968414300BF491EFCD170470000BA
:100590005AA50000C002004000020040C000004018
:1005A000C00F00420048E8010C000020400000405D
:1005B0000000070FFF4B10B40002C3181F24C8002F
:1005C000042906D219698440A14382400A431A6172
:1005D00006E0596920388440A14382400A435A61A9
:1005E00010BC00207047F0B50C460646F2494001A9
:1005F000451801216B6089072A60CA6A33461433A3
:10060000012098408243CA624A6B82434A63CA6AA5
:100610000243CA624A6B02434A63E6493002471802
:1006200020782872207B6876287AE449002845D013
:10063000012843D0012149040228207B48D0401ED4
:100640004007400D4518207CC007400E0543A02000
:1006500005433D602089002182B23046FFF7AAFFA2
:100660002089012182B23046FFF7A4FF20890221B0
:1006700082B23046FFF79EFF2089032182B23046C6
:10068000FFF798FF2089042182B23046FFF792FFDE
:100690002089052182B23046FFF78CFF2089062190
:1006A00082B23046FFF786FF2089072182B23046AA
:1006B000FFF780FF207D002814D017E0207B401E2C
:1006C0004007400D4518207CC007400E0543C0E799
:1006D000401E4007400D4518207CC007400E0543D2
:1006E0009020B5E7207E4006400C0543BD60002009
:1006F000786080203862163671B2C806C00E0123B9
:100700008340AF4803608807C00EFF22247F8240E9
:1007100000290EDA0907090F08398D08A949AD002B
:100720006918CD699543A207120E82401543CD6129
:100730000AE08D08A449AD0069180D689543A20729
:10074000120E824015430D60A04803600020F0BDEA
:1007500030B401229207D46A0546012114350B46B4
:10076000AB409C43D462546B9C4354631630C00628
:10077000C00E81409648016030BC00207047704731
:1007800008028C498860002070478A4A000280185D
:10079000016000207047874A00028018C06A000488
:1007A000000D088000207047824B0002C018082905
:1007B0002FD20B007B441B79DB189F4403080D12DA
:1007C000171C2126006B0003000C108021E0406BF9
:1007D0000003000C10801CE0806B0003000C1080F4
:1007E00017E0C06B0003000C108012E0006C0003E7
:1007F000000C10800DE0406C0003000C108008E03D
:10080000806C0003000C108003E0C06C0003000C3F
:1008100010800020704738B50C46674B4101C9185D
:100820000A77CC76002A0CD06A49C01D096800916D
:100830006946087002F0E4FA6946204602F018FBA7
:1008400002E0204602F032FB002038BD70B50C46B5
:10085000594B4101CB18197E01291AD05549012560
:10086000000241181D76002A16D0DC60187F00288F
:1008700022D008686A0410430860886A1022104376
:1008800088620D62D87EDA6801232C3102F013FBF6
:1008900016E00220C04370BD0D62012000034A6AC9
:1008A000401ED50701D04A6201E00028F7D1C86A8E
:1008B00020600020187603E0886A284388620D6271
:1008C000002070BD70B53C4C43011D192B7E012BDF
:1008D0001DD0384B01260002C4182E76002A19D0EC
:1008E000E960287F002837D0206871040843206021
:1008F000A06A10210843A06221466B7EE87E2C315D
:10090000EA6802F0D8FAA87E00282CD02CE0022059
:10091000C04370BDA87E0023002803D007202B769B
:10092000C04370BD266201200003626A401E560764
:1009300001D5626201E00028F7D16A7E0020002A1A
:1009400008D982001619366B8E50401C6A7EC0B2E0
:100950008242F6D82B7607E0A06A05210843A06200
:10096000A87E002800D12662002070BD70B5124C10
:1009700043011D192B7E012B30D00E4B01260002A6
:10098000C4182E76002A2CD0E960287F00284AD08F
:100990002068710408432060A06A10210843A06207
:1009A00021466B7EE87E2C31EA6802F084FAA87E4C
:1009B000002811E0002000424C01002080000200CD
:1009C00080E200E000ED00E000E400E000E100E093
:1009D00080E100E0E45D00002CD02CE00220C04368
:1009E00070BDA87E0023002803D007202B76C043CB
:1009F00070BD266201200003626A401E560701D5C1
:100A0000626201E00028F7D16A7E0020002A08D93E
:100A100082001619366B8E50401C6A7EC0B282422C
:100A2000F6D82B7607E0A06A05210843A062A87ECD
:100A3000002800D12662002070BD70B4B64C43017E
:100A40001B191C7E012C0FD0B44D0124000240194B
:100A50001C76002A0CD0D960816A0522114381627C
:100A6000997E002927D027E070BC0220C043704740
:100A70009A7E0025002A04D01D7670BC0720C04352
:100A80007047046201221203446A521E660701D5B0
:100A9000446201E0002AF7D15C7E0022002C08D9D4
:100AA00094002618366B0E51521C5C7ED2B29442D2
:100AB000F6D81D7600E0046270BC002070479749AC
:100AC0000002401880210162002070470420C043CA
:100AD0007047924B10B40002C3181F24C8000429A9
:100AE00006D299698440A14382400A439A6106E094
:100AF000D96920388440A14382400A43DA6110BC9E
:100B000000207047854A00028018816100207047EC
:100B1000824A00028018C1610020704730B47E4CC8
:100B200043011C197D4B0002C018C36889000F25C2
:100B30008D40AB438A401A43C26001680122890894
:100B40008900114301600020A07630BC704730B4AA
:100B5000714C42011419714A00028018C268890060
:100B60000F258D40AA438B401343C36001680222C6
:100B70008908890011430160A27630BC00207047CB
:100B8000664A00028018406A086000207047634A85
:100B90000002801841620020704710B45F4C0002D0
:100BA00000230019002906D0012906D0022906D009
:100BB000032907D105E0012304E0042302E0082310
:100BC00000E01023816A002A01D0194300E0994314
:100BD000816210BC00207047F8B501464E4A4001C2
:100BE00084184E4A08028018227A00250826002A16
:100BF00029D04A4F0902C91902232C31022A3AD0BE
:100C0000012A5DD0416A032A41621BD10A0700D53F
:100C10000425C9070ED0627E0021002A09D98A0066
:100C20001618366BE768491CBE50627EC9B28A420C
:100C3000F5D81D43002D05D02268002A02D0284691
:100C400061689047F8BD416A4162CB070022002BE2
:100C500002D0237F002B07D0C8060AD5207F0028AA
:100C600007D008252276E5E7C06AE168012508601B
:100C7000F8E72276F8BD426A4262560702D5267F1F
:100C8000002E0ED0D006F5D5207F0028F2D0A07E11
:100C90000A250028D0D0637EE07EE26802F00BF9DE
:100CA000CAE7627E0021002AC3D98A001618366B73
:100CB000E768491CBE50627EC9B28A42F5D8B8E7DF
:100CC000426A4262170703D5876A3F0700D50425A9
:100CD000570702D5277F002F0ED0D006AAD5207F38
:100CE0000028A7D0A07E35430028A3D0637EE07EF5
:100CF000E26802F0E0F89DE7627E0021002A98D9C0
:100D00008A001618366BE768491CBE50627EC9B26D
:100D10008A42F5D88DE700004C01002000200042F7
:100D2000FC498868FC4A1043886000207047F0B492
:100D30000C246043F94C0619F64C00203060A004E6
:100D4000C76A8513AF43C762476BAF434763C76A40
:100D50002F43C762476B2F434763B3607260A06A3B
:100D600001221043A062A068EB4A1043A0600879FA
:100D700003220007000B920780180A789303184398
:100D80001123DB01C018012A02D049784900084329
:100D90002060F0BC0020704701208007C26A8113E8
:100DA0008A43C262426B8A434263C213DC480260D8
:100DB0000160490001600020704770B40A78D54C8A
:100DC0000020D30700D0802095074023002D01DAB2
:100DD000184300E098434B7820259E06002E01DB47
:100DE000D60601D5284300E0A843DE061025002ED4
:100DF00001DB160701D5284300E0A8431E0708259C
:100E0000002E01DB560706D528431E0701D45607DE
:100E100002D5284301E0A843A8439E070225002EDF
:100E200001DB560601D5284300E0A843DD07012376
:100E3000002D01D1920601D5184301E04008400081
:100E4000606301246404B74AB54B002801D01460E4
:100E500000E01C6048784406B34801D5106000E00B
:100E600018604878C109B14801D0106000E01860EE
:100E700070BC00207047137910785B07C0075B09CE
:100E80001843137AA3491B041843137BDB079B0DFC
:100E90001843137CDB07DB0D1843137D127EDB0741
:100EA0005B0FD2071843D20F10430864002070472D
:100EB0000420C043704710781379C007DB07800D0A
:100EC000DB0D1843137A127BDB075B0FD2079149C6
:100ED0001843D20F10438864002070470420C04399
:100EE000704710781179C007C9078009C9090843FC
:100EF000117A884BC907890A0843117BC907C90AB7
:100F00000843517C8907890B0843117D0A06120C9E
:100F100010430843D8630020704710B41079147A46
:100F2000C007A4079289000BA40B204392B2794B0F
:100F30001043062912D20A007A4412799218974473
:100F4000020406080A0C986508E0D86506E01866F1
:100F500004E0586602E0986600E0D86610BC002005
:100F600070476C4B986A0721090288435107490D65
:100F7000014399620020704730B4664C60680029D4
:100F800001D003290BD1002A04D00125ED04012B47
:100F90000AD003E001252D04012B05D0A843012927
:100FA00004D0032902D00DE02843F8E7002A04D03A
:100FB00001252D05012B0AD003E001256D04012B2D
:100FC00005D0A843022904D0032902D00DE028430C
:100FD000F8E7002A04D001214905012B09D003E0DC
:100FE00001218904012B04D08843606030BC0020BB
:100FF00070470843F9E730B4464C6068002901D0D7
:1010000003290BD1002A04D00125ED02012B0AD0BF
:1010100003E0FF250135012B05D0A843012904D0A9
:10102000032902D00DE02843F8E7002A04D0012567
:101030002D03012B0AD003E001256D02012B05D001
:10104000A843022904D0032902D00DE02843F8E781
:10105000002A04D001214903012B09D003E001211A
:101060008902012B04D08843606030BC00207047A7
:101070000843F9E730B4274C6068002901D0032900
:1010800005D1002A08D00825012B0DD0A84301293D
:101090000CD003290AD013E0012B02D040084000F5
:1010A000F5E701252843F2E72843F0E7002A03D0BB
:1010B0001025012B09D002E00225012B05D0A84301
:1010C000022904D0032902D00BE02843F8E7002AC4
:1010D00003D02021012B08D002E00421012B04D0F1
:1010E0008843606030BC002070470843F9E730B4A3
:1010F000084CA068002901D0032905D1002A17D087
:101100000825012B1CD0A84301291BD0032919D085
:1011100022E00000001000420004CA006C01002020
:1011200080E100E000E100E000800000000001003C
:10113000012B02D040084000E6E701252843E3E701
:101140002843E1E7002A03D01025012B09D002E053
:101150000225012B05D0A843022904D0032902D07F
:101160000BE02843F8E7002A03D02021012B08D008
:1011700002E00421012B04D08843A06030BC002091
:1011800070470843F9E73A48102A02D20520C043C5
:101190007047C260002070473548002901D00329FC
:1011A00002D1002A05D00361012904D0032902D00D
:1011B00004E0C361F8E7002A05D04361022904D0A6
:1011C000032902D004E00362F8E7002A02D0836119
:1011D000002070474362FBE72548C16A01221143A2
:1011E000C162002070472248C16A49084900C162B3
:1011F000002070471E48C16A80221143C16200204E
:1012000070471B48C16A80229143C1620020704729
:101210001748806B1080002070471548006B0860ED
:10122000002070471248406C08600020704710484A
:10123000C06C0860002070470D4988686522520420
:10124000104307221202904388600020704709482B
:101250004268002A02D08168002010477047054884
:101260004268002A02D081680120104770470000C0
:10127000001000426C01002010B40723072909D98F
:1012800008398C004168A3409943A2400A43426058
:1012900010BC7047046889008B409C438A402243FD
:1012A000026010BC704710B48368490003248C406E
:1012B000A3438A401A43826010BC704710B4C368CD
:1012C000490003248C40A3438A401A43C26010BCE7
:1012D000704710B4036901248C40A343012A00D154
:1012E0002343036110BC704770B4046A49000325AE
:1012F0008D401646AC438E4026430662002A0CD031
:10130000012A03D0022A01D0032A04D1826A8B4029
:10131000AA431343836270BC7047816AA943816208
:1013200070BC7047406A7047416270478163704784
:10133000C1637047406B80B2704701637047000023
:10134000F8B504460078F74B02250121042853D054
:10135000F54A5068A778460760783F02074378BA95
:101360009F7E00043F033843DF7E760F3F02384301
:101370003043506020780B263602002806D0012822
:1013800010D002281CD0032836D126E01068202770
:10139000384310600220401CB042FCD35068C008A3
:1013A000C00028E01068802630431060DF4E022025
:1013B000401CB042FCD35068C008C00008431AE08B
:1013C00010680827384310600220401CB042FCD34C
:1013D0005068C008C00028430DE010682843106022
:1013E000372676020220401CB042FCD35068062605
:1013F000C008C0003043506020785876CC486668FA
:10140000066060780F468140304604F05AF900903B
:10141000A07839468140009804F053F9C549086026
:101420006421304604F0BEFBC34A002304F0A8F850
:10143000C24941220860120600981168C04B090990
:101440000901984205D95B00984201D8394300E070
:1014500029431068084310600020F8BDB24A516863
:1014600003231B02994300280ED0012804D0022830
:1014700005D0032808D106E0FF20013001E001205B
:101480004002014300E01943516000207047F0B46E
:10149000012541792D0303273F022E030224A24B8D
:1014A0000129196864D008229143114319600B2265
:1014B00012020221491C9142FCD35968C908C90093
:1014C0002143A943596059680122B943520211438B
:1014D000596001218905196200BF00BF00BF00BF2C
:1014E00000BF027845781207120F2D022A43857833
:1014F0002D072D0E2A43C5786D076D0B2A430579FC
:10150000ED07ED0A2A4351183722520511431A6A92
:101510000A431A624279012A3ED07D214901491EBF
:101520000029FCDC196A0029FCDA7E4901250D76C8
:101530008A768079C87658680F2109068843072281
:10154000304312049043586058680725C008C00013
:1015500028435860586888439043586041210906E1
:1015600008680009000120430860F0BC00207047B3
:10157000A14321431960372252020221491C9142A2
:10158000FCD359680622C908C9001143B143294355
:1015900059605968B9439BE77D21C900BFE761499C
:1015A000497E814201D1002070475F4A11680028BE
:1015B00006D0012806D0022806D0032808D105E06D
:1015C000202004E0802002E0082000E00220014307
:1015D0001160002070475349497E814202D10520A5
:1015E000C0437047504A1168052819D203007B4454
:1015F0001B79DB189F44020406080B00202004E03E
:10160000802002E0082000E00220814308E0106A08
:101610000123DB0598431062106A5B109843106247
:10162000116000207047F0B49B073F4E3D4C454D84
:101630001B0E454F002804D0012816D0022839D1AE
:1016400027E039488068C0263043374EB06062607A
:1016500021603E49022008602968FF22120291435E
:101660001A0211432960386024E02F48806803265D
:10167000B60230432C4EB060E260A16033490820CE
:10168000086029680902090A1A06114329603860AE
:1016900010E062612161B0680C210843B0602B4901
:1016A000042008602968FF22120491431A041143A0
:1016B00029603860F0BC0020704710B402231A493A
:1016C000234A002804D0012808D0022813D10CE0B6
:1016D0008868C024A043886013600CE088680323F6
:1016E0009B0298438860082004E088680C23984394
:1016F00088600420106010BC0020704706282AD2A1
:1017000003007B441B79DB189F44020406080A246B
:10171000002220E001221EE004221CE005221AE043
:10172000062218E0780100204000004000F82A005E
:10173000100000201400002040420F00180000207C
:10174000C0FC9B0100E400E000E100E080E200E07A
:1017500080E100E0072250010907090F084310212A
:10176000084332490861002070473048016910225F
:101770009143016100207047012189070A690243F2
:101780000A6100207047012189070A6982430A61C2
:1017900000207047012189078A6902438A6100207D
:1017A0007047012189078A6982438A610020704756
:1017B00001229207D169D1610160002070470122A6
:1017C00092075169D1610160002070471848006B91
:1017D000C2051648202182680A43826015480268C3
:1017E000002A02D041680120104770471048006B62
:1017F000C2050E48022182680A4382600D480269D0
:10180000002A02D041690420104770470848006B45
:10181000C2050648826841150A438260054882680D
:10182000002A02D0C16802201047704740000040E3
:10183000C00000407801002010B4012189074C6AE3
:1018400001231A46824094434C62CC6A9443CC6292
:101850004C6B94434C631230C006C00E8340FE486C
:10186000036010BC00207047F0B59C4696462822C5
:10187000FA4B4243D218FA4C03021F19002393601B
:10188000D360136153619361D3611362A604536201
:10189000736A0124254685402B437362F36A2B4308
:1018A000F362736B2B437363634653607346136039
:1018B00000227A603A610B78002B00D120228B79CC
:1018C000002B09D0012B04D0022B04D0032B03D111
:1018D00001E0224300E01A434B79002B0DD0012B8D
:1018E00009D0022B02D0032B07D102E004231A43B4
:1018F00003E00C2300E008231A430B79002B01D1ED
:1019000010231A43CB79002B03D0012B01D15B03A9
:101910001A4301235B021A437A604A88FA603C61E9
:10192000123040B2C3060022DB0E9C40CD4B1C603F
:101930000D7A8107C90EFF238B4000280EDA0007BD
:10194000000F08388608C848B6003618F069984372
:10195000AB071B0E8B401843F0610AE08608C348B2
:10196000B600301806689E43AB071B0E8B401E4323
:101970000660BF4804601046F0BD10B4B84C0002C9
:10198000120200190A4319040A43426110BC0020E4
:101990007047B34A000280189214002902D001292E
:1019A00006D102E04168914301E041681143416082
:1019B00000207047F8B59C462823A84C43431C19C7
:1019C000A74B0002C518207A079F069E830701D403
:1019D000C00702D00220C043F8BD68680323DB04BF
:1019E00018436860002A03D0207A0123184320722C
:1019F000002E03D0207A022318432072A661002013
:101A000062612062E0616046FF22E1602061002F98
:101A100061D0264620363079002879D068680321C5
:101A200049040843686070792A466369E16801F0F7
:101A300042FAF0792946A369226901F03CFA90E064
:101A4000E169606988421DD9A96802200142FBD082
:101A5000E168481CE06009786B689B070DD0431C67
:101A6000E3600078000201436868C043800704D146
:101A7000581CE0601878000401432960E069401CAC
:101A8000E06107E06868800604D5A9680220014289
:101A9000FBD02A60216AA06988421CD9A868C007C7
:101AA000C00FFBD0286821694B1C2361087069684E
:101AB00089070DD02369060A591C21611E706968C7
:101AC000C943890704D1010C2069431C23610170BB
:101AD000206A401C2062216AA0698842B0D8E1696E
:101AE00060698842ACD8207AFD210840410849004D
:101AF0002172AA681020024203D1AA68082002427B
:101B00002FD04808400020720820C043F8BDFFE7EE
:101B1000E369606998421BD90846491CE160007876
:101B20006A6892070FD00A46491CE16012781302D6
:101B30006A681843D243920705D10A46491CE160FE
:101B4000117809040843E169491CE161286003E058
:101B50006868800600D52A60686803218903084305
:101B600068600020F8BD38B50C4628213B4B414346
:101B7000C9183B4D203103025B190A714C71002AD0
:101B800016D0002140006A46801D009110705868F0
:101B90008007800F02D0022804D101E0517001E0DB
:101BA0000120507001F02CF96946204601F060F9DF
:101BB000002038BD38B50C462821284B4143C918B0
:101BC000274D203103025B198A71CC71002A14D091
:101BD00028494000096800916946401D087058680E
:101BE0008007800F02D0022801D10120487001F047
:101BF00007F96946204601F03BF9002038BDF0B4F2
:101C000082B0002100912821144A41438A181449C6
:101C1000000240184168890606D4816840231942B1
:101C200002D08168994381600121836849020B4297
:101C300024D0846804231C4220D083688B438360B3
:101C4000107A4008400010721368002B02D090698F
:101C5000002823D002B00FE080E100E094010020D2
:101C60000090004080E200E000ED00E000E400E0D1
:101C700000E100E0E85D0000F0BC7047FF218368F0
:101C800001310B40FD25002B0DD083688B43836011
:101C9000107A284010721368002BDBD0516802B014
:101CA000F0BC01201847114620318B79002BD1D18F
:101CB00009790029CED181680223194004261C46E7
:101CC00000295AD081680423194256D0916900290D
:101CD00003D0116AD3698B424FD1D36951698B42CA
:101CE0001ED1137ADF071BD059084900117283688F
:101CF00010210B4200D0009481680823194202D0C1
:101D00000099314300919169002936D1416801233E
:101D1000DB039943416000990123194300912CE0B2
:101D2000D3698B4222D2D16800291CD04B1CD360CE
:101D3000097801914168890711D0591CD1601B783D
:101D4000019F1B023B4301934368DB439B0706D182
:101D50004B1CD3600978019B090419430191D16997
:101D6000491CD16102E00021C9430191117ACB07DE
:101D700001D1890701D5019901608168C907C90F9F
:101D80004AD081688023194246D001680191116AC6
:101D90009369994240D21769002F17D07B1C019993
:101DA00013613970416889070DD001990F0A591CD8
:101DB00011611F704368DB439B0704D1019B1B0C1F
:101DC0004F1C17610B70116A491C1162116A9369EB
:101DD000994221D1117A8B071ED529404908490023
:101DE0001172416803239B039943416011680029E4
:101DF00000D12FE781681023194202D000992143B6
:101E00000091806808210842009801D0304300907A
:101E100001210843009003E010680028E9D00098F1
:101E20000028E6D05168126802B0F0BC10470000EC
:101E300030B401229207946A0546012110350B4601
:101E4000AB409C439462146B9C431463C01DC0065A
:101E5000C00E8140E148016030BC00207047F0B501
:101E60000C24DF4D44436419DE4E8501AD19AC46A8
:101E700000252560A360012362609B079D6A0646DA
:101E800010360122B24095439D621D6B95431D6340
:101E90009D6A15439D621D6B15431D63C51D6DB283
:101EA000EF06AE46FF0E01250B78BD4000262F46FB
:101EB000002B08D0012B04D0022B02D0032B0ED113
:101EC00001E00126F6021E4323704B78052B06D84D
:101ED0001D014B8801243543A402A3420BD90520E0
:101EE000C04341078B6A93438B620B6B93430B6335
:101EF000BA490F60F0BD0A79634612022A431A609C
:101F00004A88521E93059B0D62469360B64A002391
:101F10001760C01D4C798007C00EFF2172468140BA
:101F2000002A0EDA1207120F083A9508AF4AAD00E0
:101F3000AD18EA698A43A107090E81400A43EA61A4
:101F40000AE09508AA4AAD00AD182A688A43A1079D
:101F5000090E81400A432A60A64807601846F0BD72
:101F6000A04A8001801880690870002070479D4A4F
:101F700080018018C16001610221C16102688B0289
:101F80001A4302604160012141600021416108461D
:101F90007047F0B40C25924E4543AD19914E800127
:101FA000049C8019E60703D0C66904273E43C66136
:101FB000A7070226002F02DAC7693743C7616C7092
:101FC000C260036180220029016807D0914301604B
:101FD000466001214160F0BC002070471143F6E7E4
:101FE000804A80018018026889000A430260C16942
:101FF00006221143C161022141600121416000209C
:102000007047F0B4774C89010E1907461437012147
:10201000B940520411431B04049D194329437162C2
:10202000800100191A434262F0BC002070478A0107
:102030006C49531800225A628001401842621046CF
:10204000704768498001401800214160C1614161C9
:1020500008467047634A8001801840690880002064
:10206000704760498001401800214161084670476F
:102070005C4B8001C018012A03D000690880002051
:102080007047C068FAE770B4564E8401A41936153B
:10209000039DB24203D970BC0520C0437047042998
:1020A0000BD1042809D254488669F60AF6028661E3
:1020B00086691B022B431E43866120687023984368
:1020C00020602068090108432060521E9005800DA1
:1020D000A06070BC00207047424B8001C0180629E8
:1020E00021D20B007B441B79DB189F4402130C1395
:1020F0000C13C169002A02D00122114301E04908F2
:102100004900C16104E00421002A06D108E0C2614F
:10211000002070470221002A02D0C2690A43F6E774
:10212000C2698A43F3E70520C043704782B00021AB
:1021300000910C212A4A414389182A4A80018018BB
:1021400082696B461A711A7982614A68002A3AD00C
:10215000187940070CD50878012802D0032805D04B
:1021600006E04878C00703D0042000E0102000906B
:10217000187980071AD50878002806D0022804D0DC
:10218000012807D003280DD010E00098022318433F
:1021900000900BE04878800708D500980823184382
:1021A000009003E0009820231843009068460079CF
:1021B000C007009802D0012318430090002802D0E5
:1021C000896802B0104702B070470020AEE70120D6
:1021D000ACE70220AAE70320A8E7000080E100E0C6
:1021E000BC0100200030004080E200E000ED00E093
:1021F00000E400E000E100E08000004030B4012293
:102200009207D46A0546012108350B46AB409C4332
:10221000D462546B9C4354631430C006C00E81409A
:10222000F748016030BC00207047F0B50E46054607
:102230002820F4496843401885B000278760C760AC
:10224000076147618761C76107624762EE4C43607F
:10225000290202600C1901208007C26A2B4608334C
:10226000012199408A43C262426B8A434263C26A37
:102270000A43C262426B0A434263E54AE348906202
:102280006069C00704D0206800906069C007FAD177
:1022900060698006FCD500206060E06020616069B4
:1022A000A0682A4600901432307952B20392D206C6
:1022B000D20E01279740002805D0012803D002281C
:1022C00001D0032817D17279052A14D213007B4458
:1022D0001B79DB189F440A0205081C0008221043E2
:1022E00004E01822104301E028221043B279002AAA
:1022F00013D0012A0FD00520C0434307DA6A8A436E
:10230000DA625A6B8A435A63BD490F6005B0F0BD6B
:1023100020221043E5E704210843E060BD4800683F
:1023200041080291306801010091029803F0C9F957
:102330000099019048430299081A0002009903F09D
:10234000C0F90146019880B22062C8B26062B2480A
:1023500000220760A807C00EFF230399F479834089
:1023600000290EDA0907090F08398D08AB49AD00BD
:102370006D18E9699943A3071B0E83401943E9616E
:102380000AE08D08A649AD0069180D689D43A307B2
:102390001B0E83401D430D60A2480760104605B028
:1023A000F0BD70B515462822964C42431419964A42
:1023B00000028218A068C60702D00220C04370BD88
:1023C000012665613043E160A0600020E061002BE0
:1023D0000ED020462030417900291FD0516820239B
:1023E0001943516000796369E16800F064FD23E0FE
:1023F000E1698D420DD9E069E1680918401CE0618E
:102400000878106050698006FCD5E16960698842EF
:10241000F1D8A06840084000A0600DE05069800637
:1024200006D5E069E1680918401CE0610878106091
:102430005068022108435060002070BDF8B50D4679
:10244000282141436F4C00020C196F49A6684118BE
:10245000B00702D50220C043F8BD02200643A660A3
:102460002561A26100222262002B0ED0204620307E
:10247000C279002A33D04A6810231A434A6080790F
:10248000A369226900F017FD2DE0236AA2699A4230
:1024900020D90825042600234A69D207FCD04A69BE
:1024A0002A401A434B69334013434A6902401A4396
:1024B00005D0A16881430820C043A160F8BD0B6826
:1024C000226A2769BF18521C22623B70236AA269E4
:1024D0009A42E0D8A06840084000A06003E0486845
:1024E0000122104348600020F8BD2821454A41439D
:1024F0008918454A00028018C36840221343C3600C
:10250000C3689343C3608868022240084000904338
:1025100088600020704738B50C46034628203949AA
:1025200058434018203042710471002A0CD000201A
:10253000009058006946801C087000F061FC6946F4
:10254000204600F095FC02E0807900F0AFFC00200E
:1025500038BD38B50C4628212A4B4143C9182031D3
:10256000CA718C71002A0DD02F4940000968009172
:102570006946401C087000F043FC6946204600F0A4
:1025800077FC02E0204600F091FC002038BD1E4A96
:10259000000280184069400601D5002000E00120BB
:1025A000087000207047184A0002801840694006F1
:1025B000400E087000207047134A00028018016323
:1025C00000207047104B0002C31806292ED20800C5
:1025D0007844007900188744020406080A0C012098
:1025E00008E0022006E0082004E0042002E01020B9
:1025F00000E020205968002A1BD001431AE00000A7
:1026000080E100E0EC0100200080004000000204B6
:10261000800000401400002080E200E000ED00E0B7
:1026200000E400E000E100E0EC5D00000520C043B4
:10263000704781435960002070472821484B70B48F
:102640004143C9180022474B83B00002C0180092D2
:10265000836801935B079D0F10232024032D30D046
:10266000019A1207950F0222032D4BD0019B5B07A5
:1026700012D503680E6A0D69AB550B6A5B1C0B62C1
:102680000D6A8B69AB4207D143685B085B0043600E
:102690008B6893438B600092019B0A259D43012325
:1026A000002D36D0019CA40748D5CD694C69AC42B9
:1026B0003AD0CA69CB689B18521CCA611A7802606A
:1026C0003CE00425009545690195ED0601D50C25F2
:1026D0000095019D2D0702D5009D1D430095019B8E
:1026E0005B0702D5009B23430093019B9B0703D507
:1026F000009B40242343009303686C46237142608F
:1027000020791BE08D6895438D6045689D43456049
:10271000C1E78A68520852008A604268A243426058
:1027200000981843009009E08C68640864008C608D
:102730004468944344600098184300900A68002A53
:1027400006D00098002803D0496803B070BC104739
:1027500003B070BC704700206FE701206DE70000F8
:10276000EC01002000800040324931480863704786
:1027700030490020086370472F4B5A6019602F4B77
:10278000002199600A460178012900D10822417888
:10279000072919D811438278002A02D0012A02D0D1
:1027A00012E0402200E0802211439960244A102167
:1027B0001160244AC078136880071B0A1B02000EB0
:1027C0000343136020480160002070471A4900202D
:1027D000086048608860194988601C4910200860BA
:1027E0000020704715498A6810231A438A60124AEC
:1027F000906008600020704700211048C9430160C4
:102800008168102291438160002070470A480B497B
:10281000806808600020704708494968016000200E
:10282000704705490A68002A01D049681047704777
:102830005AA50000C00200403C02002000020040F7
:1028400080E200E004E400E000E100E080E100E07C
:10285000412212061168AA4B1940012804D0012018
:102860000004014311607047A648FAE741221206AE
:10287000116801231B069943012800D119431160F7
:102880007047412109060A68000712091201000F6A
:1028900010430860704741210906012803D0002831
:1028A00000D1486070479848486098484860984808
:1028B000F7E741210906012803D0002800D18860EC
:1028C000704794488860944888609448F7E74123AB
:1028D0001B06DA688243012900D10243DA6070479F
:1028E00041231B06DA69120A1202012900D10243B0
:1028F000DA61704741231B061A698243012900D11E
:1029000002431A617047412109064A69800F800716
:1029100010434861704730B4412212065169FF23C9
:10292000013399434024012804D07D48046051615B
:1029300030BC70477B4819430368FF252D04AB4327
:102940000325AD052B4303607748EFE741200006E0
:1029500080697047412109068861704741231B0641
:102960001A6B8243012900D102431A637047412048
:102970000006406B80B2704741200006006B6B4937
:1029800008407047C201412000068263C901C1634B
:102990007047412000068169C90507D500BF00BF07
:1029A00000BF00BF00BFFF2101318161816989053E
:1029B00007D500BF00BF00BF00BF00BF0121490213
:1029C00081618169C90307D500BF00BF00BF00BF97
:1029D00000BF0121090481618169890307D500BF16
:1029E00000BF00BF00BF00BF0121490481618169B0
:1029F000490307D500BF00BF00BF00BF00BF0121D2
:102A0000890481618169090307D500BF00BF00BF48
:102A100000BF00BF0121C90481618169C90209D5D4
:102A200000BF00BF00BF00BF00BF816901221205C7
:102A300011438161704700BF00BF00BF00BF41224A
:102A400012069369DB07FCD1536983430343536147
:102A500000230B609169C907FCD151698143516121
:102A600097E741221206116801235B06994301286A
:102A700000D119431160704770B400BF00BF00BFA0
:102A800000BF00BF00BF00BF00BF41231B069C6901
:102A9000E407FCD100BF00BF00BF00BF5C69012597
:102AA0002C435C61002400290CD920CAA600855162
:102AB00000BF00BF00BF00BF9D69ED07FCD1641CD3
:102AC0008C42F2D300BF00BF00BF00BF586940086E
:102AD0004000586170BC5CE7F0B44618002403461F
:102AE00000290AD91D781778521C5B1CBD4201D001
:102AF000061902E0641C8C42F4D33046F0BC7047E7
:102B0000FFFEFEFF000101006745230178563412E5
:102B1000896745239A785634AB896745BC9A7856BD
:102B200080E100E004E400E000E100E003010100D6
:102B300070B45407DBB252071E04520D64091A43E5
:102B4000A84D3443A84B082815D206007E44367998
:102B5000B619B744100310121B23323B1869002921
:102B600002D0012903D005E02840204302E0C00A3A
:102B7000C0021043186170BC70479869022902D1E5
:102B8000C00AC0021043986170BC7047D86903291D
:102B900001D128402043D86170BC7047186A0529CC
:102BA00002D0042903D005E02840204302E0C00AF7
:102BB000C0021043186270BC7047586A072902D1DE
:102BC000C00AC0021043586270BC7047986A082956
:102BD00001D128402043986270BC704783494A68FD
:102BE0004007D208D200400F104348607047F0B44D
:102BF00082B09C4613460025079A069F7B4C0095A1
:102C0000002A2FD0266A22121643266200BF226AAB
:102C10004907490B01431806000C520D01435205A8
:102C20006046164600070522000E5205014338078C
:102C3000000F1643014331430191206A084320628B
:102C400001950198401C0190A028FAD3206A002821
:102C500010DB0098411C0091082808D902B0F0BC94
:102C600000207047256202B0F0BC01207047206A46
:102C70000028EEDA02B0F0BC012070475B4A5168D0
:102C800003231B0280079943800D0843506070475F
:102C9000564A51689314C0079943C00C08435060CA
:102CA0007047524A516807231B0440079943400B61
:102CB0000843506070474D4A51680F231B060007B8
:102CC00099430009084350607047484B81B01A6827
:102CD0008243012900D102431A6000200090401C69
:102CE00000906428FBD301B07047404B9A68824340
:102CF000012900D102439A6070474007D207000EB5
:102D0000D20E09071043090F08433849086170477C
:102D100010B582B00220FFF7B4FD802300223349B2
:102D20008520086188689843886008680223984372
:102D30001843086000920098401C00906428FAD361
:102D400048680F231B0698434860486807231B0404
:102D500098434860486801231B03984348604868CB
:102D600003231B02984348600092086A01239B05D5
:102D70001843086200BF086A0523400D40055B0543
:102D8000184301901A48019C072320430190086AC8
:102D9000019C2043086201920198401C0190A028E8
:102DA000FAD3086A002807DB0098421C0092082822
:102DB00002D8086A0028F7DA4868C008C000034350
:102DC0004B600D490B4808600C4908600220FFF772
:102DD00058FD0722022308211046FFF7A9FE02B082
:102DE00010BD0000FFFF00F88000004040000040E0
:102DF0000013070000B4C4041000002014000020D9
:102E000010B43F4B1978042902D0002904D012E0F5
:102E1000062010BCC043704701208007846A10223E
:102E200094438462046B94430463846A144384620D
:102E3000046B14430463491C197010BC00207047D4
:102E40002F480178002905D0491E0906090E017096
:102E500003D00BE00620C043704701208007826A40
:102E600010218A438262026B8A430263002070470A
:102E7000244B1A5C002A02D00220C043704730B4B1
:102E8000214C02011219002414600C784D7824079B
:102E9000AD078978240D2D0FC9072C43890F0C43EA
:102EA00014600121195430BC00207047154A0021DC
:102EB00011540846704730B4134C000100190468DF
:102EC000124D2C40046004681B041C43046003681A
:102ED0009B0702D48260C16001E08160C2604168EA
:102EE00001221143416030BC0020704706490001B7
:102EF00040184168490849004160002070470000BF
:102F0000220000202300002000040040FFFF00F00A
:102F100010B572B6FDF704FBFDF747F9FFF7F8FEB1
:102F2000FDF709F900F044F800F08CFB00F05DFDBE
:102F3000FDF779F9FDF7AFF900F089FD00F0B5FD77
:102F400062B6FDF7A0FA002010BD000007488047D8
:102F500007480047FEE7FEE7FEE7FEE7FEE7FEE77D
:102F600004480549054A064B70470000210500004A
:102F7000A9000000C0110020C0170020C0130020CD
:102F8000C013002010B4800710D520490122087812
:102F9000002800D10A708B68C8685B1C002460415F
:102FA0008B60C8601A4801881143018010BC7047CB
:102FB00000B583B0002168460170022141701421E0
:102FC0004180012101710F2141710023114A69469D
:102FD0001846FEF744FFF0210020FEF7C8FF03B0BB
:102FE00000BD0A498868C9687047084A0B6892683A
:102FF000002B00D10A600B68401ED21A824203D314
:103000000020086001207047002070472800002041
:103010003E000020852F000070B58348834C058852
:103020002580608802F05EFD0646284602F05AFDC3
:10303000314602F03DFC7E49E06002F013FE02F0F2
:103040000DFD208170BD7B4801887848022905D09C
:10305000012901D0032900D181807047022181809C
:10306000704775490888C20742D070B540084000D3
:10307000088001F07DF800F00DFA00F032FB00F05E
:10308000C7FF00F07FFC00F0F6FE01F0E2FA01F06D
:10309000AEFC01F016FE6748644C0088022804D09C
:1030A000012802D0032802D003E0A08001E0032021
:1030B000A0805D4805882580608802F013FD0646E3
:1030C000284602F00FFD314602F0F2FB5849E0605D
:1030D00002F0C8FD02F0C2FC208100F024FF01F0E4
:1030E000E6F801F083FC00F02DFF02F01BFA70BD42
:1030F000704751490888C20710D010B540084000F9
:10310000088000F0C7F900F0ECFA01F0DAFD01F0F8
:10311000A0FA01F06BFC01F06AFC10BD7047F0B53D
:10312000464C91B0678AA0880F90454800880E9061
:10313000E68AA08A0C90E0890B904248A589008815
:103140000A90A08B0990394800890290364800887F
:103150000890608B019001F09FF880B203903A488C
:10316000808A07903948008880B2069038480088E5
:1031700080B205902D48A48C4481364887810F98F1
:1031800002F0B0FC344902F093FB02F067FC3149D5
:1031900008830A210E9802F094FA2E4948822F489B
:1031A0000A21301802F09BFA02F094FC1F490861D2
:1031B0002B49884201DA1D4801611C48006902F070
:1031C0004DFC244E70850C9802F08CFC224902F0D4
:1031D0006FFB02F043FCB0840B98224FF080FD811E
:1031E0000A9802F07FFC1C4902F03CFD02F036FC1C
:1031F000B885039878861C480999C184029981850D
:103200000898F08301987880084880883080079873
:10321000B087069830860598F08614480088788331
:103220001348048511B0F0BD7A000020380000205A
:103230000000C842180100203E000020860E002039
:103240007C000020E2000020CE060020B00000201C
:10325000A800002050050020000020413CF6FFFFA0
:1032600000007A439005002050060020E400002072
:10327000D005002010B50446800712D5FE49002075
:10328000C880488101231A46FC491846FFF7D6F842
:10329000FB48FD490279FB4883795A548179491CDE
:1032A0008171E00702D0F9490120088010BD10B5F6
:1032B000F14900208880F648F64C01230288A11CC1
:1032C0001846FFF76EF82088401C208010BD70B4AF
:1032D000EB490889CA79498940BA49BA032A02D018
:1032E000042A14D028E00B18834222DDE94DEA4C71
:1032F0000622424329181219897896888E421BD8D3
:1033000052888A4218D3401C8342F1DC11E00C1829
:1033100084420EDDE14AE24D062343435B199E8859
:1033200091B28E4208D85B888B4205D3401C844200
:10333000F2DC70BC0120704770BC00207047F0B414
:10334000CF4CD848A1790170E3794370217A81701C
:10335000617AC170408841BAD348C181A77AE57AC1
:10336000227B667B3902140229433443042B10D09C
:10337000032B15D0CD4E102B767818D0062B06D106
:10338000C8498D80CF808481BB4908200881F0BC6A
:10339000704701820481B84908200881F0BC704759
:1033A0000182C480B44908200881F0BC70470182C2
:1033B0000021B14C02712170002A15D0BB4BBC49D1
:1033C000D20702D04E80891C5B1C0279520809D0BA
:1033D0005D784D809D788D80521E091D9B1C1206C4
:1033E000120EF5D101792170AA4922788918FF318E
:1033F00001314A7B897B12020A434281008A0930EB
:103400002081F0BC7047F0B49D48C37901894089A0
:1034100049BA42BA9446A04A102B02D0062B29D0B2
:1034200031E00846614523DA3D26B602994B441A3D
:10343000E2186400FF32E3180132FF33527B01339C
:103440009B7B12021A431F23DB028700DB5B0546CE
:103450009CB206235D43904BEB189C80F55B944235
:10346000ADB25D8001D295420DD8401C6045DDDBD8
:10347000F0BC70470623594389188A888242F7D2E4
:1034800049888142F4D9F0BC002070477C48C0795B
:1034900000207047F8B5784C7A4F617800250029F4
:1034A00030D079480090861F012954D0022968D075
:1034B000032926D10020A080754E764D0123328845
:1034C000A91C1846FEF76DFF2888401C28806F480D
:1034D0000088012815D177493088FFF786FD00283C
:1034E0000FD00120A08069480025058031886B48F5
:1034F00002F0E3F82189009802F0DFF8BD71E58061
:103500006570F8BDBA796C48002A0FD0E1880229AD
:1035100002D2491CE1800BE0072A07D30121617028
:10352000A5704178FB221140417001E0BD71E5803A
:1035300061897D221201914202D2491C6181F8BD4C
:103540005E4949780029FAD00121A170417804220E
:103550001143417013E0A580BD71FFF7F0FE002814
:1035600002D002206070F8BD494801884B4802F043
:10357000A4F82189009802F0A0F80120A0806570CD
:10358000F8BD00F0B9FA002831D0F279308971899C
:1035900040BA49BA032A02D0042A15D037E00918E4
:1035A0008C46814223DD3C4B3A4E06224243311881
:1035B000D7188978BA888A4229D87A888A4226D345
:1035C000401C8445F1DC12E009188C4681420EDD76
:1035D000324A334B06264643F618B78891B28F42DB
:1035E00015D876888E4212D3401C8445F2DC2848D8
:1035F00001882A4802F061F82189009802F05DF8FC
:103600000120A080657021480580E560F8BD032099
:103610006070F8E7704770B4054629480023002918
:103620000EDD284CEA5C50400822C60702D0400854
:10363000604000E04008521EF7D15B1C8B42F1DB7A
:1036400070BC704700B583B04B200002009003208F
:10365000694608710020487188710120C8710246CE
:103660000146FEF7AFFF012200211046FEF7AAFF38
:103670000023154A694629E04C0000204C03002035
:1036800048030020480500204E03002020000020B1
:1036900072000020480200208E0600204A0200200E
:1036A00050050020600A0020600E00205403002016
:1036B000620A00205800002026010020CA000020D5
:1036C000FFFF000001A00000753200000120FEF79E
:1036D000ACFD01231A460B491846FEF7AFFE03B0B6
:1036E00000BD10B50848818821204006012905D079
:1036F000002902D10121FDF719FE10BD0121FDF7BE
:1037000017FE10BD4C0300204C00002010B5C94925
:1037100082070FD50020C88001231A46C649FEF74C
:103720008DFEC648C649837B027C5A54817B491C66
:10373000817310BDC007FCD00120488010BD30B49B
:10374000BE48C479027A837AC57AA1185B19CB186E
:10375000417A5B18DBB2AA2C1BD1447BFF2C18D119
:10376000852A16D1027B9A4213D1122911D20A005E
:103770007A44127992189744080E141A20262C3293
:10378000383E4A4450565C0C62684089AD4940BAA4
:10379000088030BC70474089AA4940BA488030BC94
:1037A00070474089A74940BA888030BC704740893B
:1037B000A44940BAC88030BC70474089A14940BA8A
:1037C000088130BC704740899E4940BA488130BC6E
:1037D000704740899B4940BA888130BC7047408916
:1037E000984940BA488230BC70474089954940BAF0
:1037F000C88230BC70474089924940BA888230BC48
:10380000704740898F4940BAC88130BC70474089B1
:103810008C4940BA088230BC70474089894940BA17
:10382000088330BC70474089864940BA488330BC21
:1038300070474089834940BA888330BC70474089CB
:10384000804940BA888430BC704740897D4940BA7D
:10385000C88430BC7047F0B400220646002820D04F
:1038600000291ED0491E002913DD701ECB0701D090
:103870004278401C457800244B1008D087785219B4
:10388000C578E419801CD2B2E4B25B1EF6D11019DF
:10389000C2B2002902DB705C8018C2B2F0BC1046D4
:1038A0007047F0BC00207047F8B500216A461170DF
:1038B0006248AA220270FF2282716A4611705D4935
:1038C00049788170122938D20800784400790018AC
:1038D0008744080808080808180808080F08080896
:1038E00008212A085548052141700021C170017145
:1038F00026E05448018A0A0A1238C2700171062172
:1039000041701DE04F4881890A0A1238C270017166
:103910000621417014E04B48418C0A0A1238C270EB
:103920000171062141700BE04648818C0A0A123869
:10393000C27001710621417002E03E49FF204870CB
:103940003E4E00230427701E34781A4602218578E3
:103950001B19C4785219801CDBB2D2B2491EF6D1B1
:10396000F15D9818081869460870087833490123F2
:10397000487107220020FEF714FD2E494878401CAC
:103980004870F8BD70B52B4C01262078002809D06E
:10399000002501280AD0022814D0032805D1FFF7FA
:1039A000CEFE20E0FFF780FF267070BD6088012802
:1039B000FBD1A088411CA1800C28F6D96580A58088
:1039C00002200AE01D48817B00290AD0E288002AF3
:1039D00005D0072905D385730320207070BDE680CC
:1039E00070BD8573E580257070BD00B583B04B2038
:1039F000C001009003206946087100204871887159
:103A00000220C871012211460020FEF7DBFD0021D3
:103A100001220846FEF7D6FD00230B4A69461846E8
:103A2000FEF703FC01231A4603490020FEF706FDBA
:103A300003B000BD5C000020840E0020740E002046
:103A40007B0E0020860E00200D370000704710B559
:103A50000C4A02210020FDF796FB00220A4B0221AE
:103A60001046FDF799FB0022012302211046FDF7C5
:103A700083FA02210020FDF7AFFB0020FDF7DCFBFD
:103A800010BD000060EA0000A86100001748184A55
:103A90000188491C89B2018013698B4201D8002139
:103AA000018088B2D0607047704730B50F4C83B04A
:103AB0001E20208064216180012568460571022254
:103AC0004271C180002101720F2141720023094A15
:103AD00001A92846FEF7C3F90095638822880021D2
:103AE0000120FEF756FA03B030BD0000640000204C
:103AF00040300040A93A0000F0B59C4F85B03D8AA7
:103B0000FC896806000E0090281980B2984A02903D
:103B10001078039051780191012808D19548032924
:103B200008D0042941D010297ED006297DD000205C
:103B300005B0F0BDFD880621FFF76DFD010A000606
:103B4000000C08438C4FA842B8806FD188488B4D39
:103B50000178A9704078E870009828710298011BDC
:103B6000002910DD06204443854820180022540413
:103B70000388240C1E0A2C196671801D491E521CD4
:103B8000A3710029F3D100993C46C91C3980A81CB7
:103B9000FFF741FD002262802288010AAA18907076
:103BA000D1700098401D6081CCE03D890621FFF76F
:103BB00032FD010A0006000C08436F49A8428880C4
:103BC00034D16B496D480A7882704978C170009988
:103BD00001710298031B9C465B1E002B29DD062009
:103BE00068496043421865486546C11C0126ED07D7
:103BF000F607001D921FF54207D0D5882D0A8D705B
:103C000095798570801C891C921DD5885B1010D019
:103C100096892F0A8F708570558A370A0F71067141
:103C2000001D091D0C3202E023E061E08AE05B1E0A
:103C3000EED16046401E0AD4221806214A4351495B
:103C40004300895A4D480A0A181842718171009937
:103C5000494D4A4CC91CE980A01CFFF7DCFC00223E
:103C60002A81EA88010AA2189070D1700098401D3C
:103C700067E00621FFF7CFFC010A0006000C0843AD
:103C80003D498880798988425CD10298011B0029CE
:103C900018DD3D483D4ACB0705D00379001D1E02C3
:103CA00013791E43121D491008D0037A08301E02F2
:103CB000137A491E1E4308320029F6D106203049E6
:103CC00060430E522D4E0398B0700198F070200A98
:103CD00030717471280AB071F5710621B01CFFF7BC
:103CE0009AFC010A3072717223490820488129E048
:103CF0000621FFF790FC010A0006000C1E4D084348
:103D0000A880B98988421DD1194922468879097944
:103D10000002084306214A431949184E8852039964
:103D2000B1700621F170210A31717471010AB1710B
:103D3000F0710621B01CFFF76EFC010A307271723F
:103D400008206881012005B0F0BD1148322181852D
:103D500064210187E1210A4AC900518519220D49D0
:103D60005201CA860121818270470000600E002046
:103D7000600A00204E030020680000204802002056
:103D80008E06002050050020660A0020680A0020E8
:103D9000CE0600200E08002070B5704800F05BFFD2
:103DA0006F4D00246C6428646E4800F054FFEC648E
:103DB000A8646A6C296CEC626A622962A86270BDB0
:103DC00070B5674C002220696169401C51417D2219
:103DD0006161D2000023206101F0D2FBE123E161A7
:103DE0001B01A0610022C01A91411DD30020A061D7
:103DF000E06120616061236A626A5B1C4241236268
:103E00006262A06AE16A05460D4305D00025ED43D4
:103E1000401E6941E162A062236301466263E06A79
:103E2000A163E0630120207070BD10B54C4C207878
:103E300000281FD0226C206B636C616B42404B40AA
:103E40001A4306D061642064474A0121434800F0C8
:103E500021FEA26CA06BE36CE16B42404B401A4325
:103E600006D0E164A064414A01213E4800F012FE00
:103E70000020207010BD70B5394C002220696169A6
:103E8000401C51417D226161D2000023206101F07C
:103E900077FBE123E1611B01A0610022C01A91417F
:103EA0001DD30020A061E06120616061226A636A25
:103EB000521C434163622262A06AE16A05460D43D7
:103EC00005D00025ED43401E6941E162A0626363B5
:103ED00001462263E06AA163E0630120207020783C
:103EE00000281FD0226C206B636C616B42404B40FA
:103EF0001A4306D0616420641B4A0121174800F070
:103F0000C9FDA26CA06BE36CE16B42404B401A43CD
:103F100006D0E164A064154A0121124800F0BAFD00
:103F20000020207070BD10B511480A21008B01F0EF
:103F3000C8FB0B494A88801A8A6880188860000C80
:103F4000488010BD0A48C18805488288891AC2681D
:103F50008918C1608902090C8180704704EA000059
:103F60007800002008EA0000B8000020C00000200F
:103F7000860E00203C48C08B70473B48408D704700
:103F80003A48C08E704738490020C98E002902D0B7
:103F9000012900D1012070477D20354980014886E4
:103FA00070473248808C70473048408D70472F48AA
:103FB000008E704710B42F4900200A898B8A002A8E
:103FC0000CD04039012A04D0022A04D0032A05D19A
:103FD00003E0888C02E0488D00E0088E002426492A
:103FE000002B07D00122012B06D0022B07D0032B78
:103FF0000AD107E00C7000E00A704C7004E04A70CF
:104000000C7001E00A704A701C49088010BC7047AF
:1040100018490020897B0906090E00D101201849A2
:1040200048847047F8B517480024478F164805881C
:10403000C1880091868900F02FF97D2200999201B4
:1040400080B2002902D001290CD105E0864209D9AD
:10405000012F05D12C4605E0864203D9012F01D15D
:104060002C4614402046F8BD8E0600200E08002085
:10407000CE0600204E080020C80000201A010020B3
:10408000860E00200E0A00204E0A002010B500F017
:10409000BAFA10BD774A2421515E774B10229A5EFE
:1040A0000020012A0AD0022A02D0032A02D005E009
:1040B000084603E00120C003014308B26F490880AD
:1040C000704770B56E48FDF735F9030701220020EF
:1040D0006C49002B01DA4A7000E04870CC88FF235D
:1040E000F5339C4205D24D78002D0BD0641CCC805A
:1040F00002E04C78002C05D0CC889C4203D11046BD
:104100008A7070BDC880887070BD70B55C48FDF75E
:1041100011F9C10600235B48002902DA0121017070
:1041200000E003708188FF25F535574A0424A94231
:1041300005D20678002E0ED0491C818002E001785D
:10414000002908D08088A84206D11088204310801A
:104150004007C00F70BD83801088A04310804007C7
:10416000C00F70BD4948808A002800D001207047E8
:10417000F8B546480090808A002801D0012600E06A
:1041800000263F48FDF7D6F8C0063E4C0025002823
:1041900002DA0120207000E02570A188FF23F533AA
:1041A00039480422994205D22378002B10D0491CAB
:1041B000A18002E0217800290AD0A3881946FF399E
:1041C000F53906D10188114301804807C70F05E082
:1041D000A5800188914301804807C70F2848FDF753
:1041E000A9F8000702D50120607000E06570E08842
:1041F000FF21F531884205D26278002A0AD0401C9E
:10420000E08002E06078002804D0E088884202D193
:10421000012001E0E5802846A070014600981C4A74
:10422000C0899082154A012805D100290AD1194870
:104230004078012806D0002E1AD0002F18D000F0A8
:10424000E2F9F8BD0B4B2421595E0B4C1023E35EC1
:104250000020012B0AD0022B02D0032B02D005E054
:10426000084603E00120C003014308B21080F8BDF6
:104270001580F8BD8E0600200E0700201A010020D0
:1042800000010042D80000203E000020CE060020A1
:1042900090050020CA00002010B55548A5210088CF
:1042A00089004843491001F00CFA80B210BDF0B506
:1042B00083B00220FBF764FF4D4C80B22083618BFA
:1042C0004C4F401AE1694018E0618002050CA800DB
:1042D00028186583000B208064206843000B6080F1
:1042E0002582B88D0A21484380B260820003642190
:1042F00001F0E7F986B2E680388F0A21484380B2A0
:10430000A08201900003642101F0DBF980B22081DA
:10431000029039483949C08EA0814F8DE781E18AEA
:10432000884200D2084602990446B1423ED9881B11
:1043300001F0D0FB0090381B01F0CCFB009901F09C
:10434000B7FA2B4908620090029801F0CBFB009964
:1043500001F088FC0290384601F0C4FB029901F09C
:10436000D9FC234948620290284601F0BBFB009922
:1043700001F078FC029901F02FFC01F049FB1C4987
:10438000B542886201461A4801D244810AE0019A86
:10439000954201D9478105E04181194840220188B1
:1043A000114301801748818E1148818003B0F0BD10
:1043B00070B50024FFF7E7FD85B21148007840068C
:1043C00003D411488078012804D109488188012943
:1043D00003D04489012D04D006E0FFF723FE84B208
:1043E000F8E70120C00304430848048070BD0000C2
:1043F000E0000020CE0600200E0800208E060020DF
:104400003E0000200E0A0020CA0000201A010020F1
:1044100070B53248324DC08F324C00280CD0402647
:10442000012803D0022801D0032805D100F01DF88F
:10443000A880208830432080A888288021880A0608
:104440000ED5294A1278012A0AD18022914321806F
:104450002649274A898E274C1180012901D02080C6
:1044600070BDFFF7DFFD208070BDF0B5224D83B039
:10447000688902902E8A0120FBF782FE184C60802A
:104480002189401AE188401880B2E080000B208129
:104490000190E88AAF8BAA88391A02980092301AE4
:1044A00001F01DF97843351A0120FBF769FE6080A1
:1044B0002189401AE188401880B2E080000B2081F9
:1044C0007043401981B2019A0098904201D9491C69
:1044D00000E0491E88B203B0F0BD0000CE06002007
:1044E0000C0100203E000020CA0000200E0A00201F
:1044F000E40000201A010020CE070020F8B557483C
:10450000058E448D56484788FFF73DFD86B25548D5
:104510000078002802D0FFF72DFD0BE0012F07D017
:10452000A54202D20A204543ACB2012E04D006E0D7
:10453000FFF740FD84B2F8E70120C00304434A4876
:104540008480F8BD494848490278002A05D182781C
:10455000002A02D14279002A01D0022002E04078EC
:10456000012800D10870704740484178012937D1AF
:1045700002783D49002A05D18278002A02D140798B
:10458000002801D0022000E00120087036480078A1
:10459000002825D0012823D1F8B53048058E448D58
:1045A0002F484788FFF7EFFC86B22E480078002896
:1045B00002D0FFF7DFFC0BE0012F07D0A54202D2AB
:1045C0000A204543ACB2012E04D006E0FFF7F2FC0E
:1045D00084B2F8E70120C003044323488480F8BD77
:1045E000704710B520484088012806D0022807D01F
:1045F000032801D1FFF7B8FF10BDFFF7D9FE10BDAA
:10460000FFF706FF10BD10B514480122018B1648B4
:10461000002341801548022903D00370032905D0E7
:1046200000E00270437001290BD000E042708370FB
:10463000012908D0022909D0032901D1FFF794FFED
:1046400010BD8270F4E7FFF7B3FE10BDFFF7E0FE88
:1046500010BD054806498088888170478E06002075
:104660004E0800204E00002016010020CA00002045
:10467000860E002070B4EF4EEF4CF5890021EF4B11
:10468000A581012002468A402A4259D00D2957D2DD
:104690000A007A44127992189744060B11171D23C9
:1046A000292F343A40464C001978014319700121F2
:1046B000E8E719780222114319701146E2E71978E8
:1046C0000422114319700321DCE7197808221143F1
:1046D00019700421D6E719781022114319700521A9
:1046E000D0E719782022114319700621CAE71978FA
:1046F0004022114319700721C4E7597801435970CA
:104700000821BFE719788022114319700921B9E700
:1047100059780222114359700A21B3E759780422CB
:10472000114359700B21ADE7597808221143597094
:104730000C21A7E759781022114359700D21A1E7E8
:10474000491C10299EDB1988002901D0A08001E0B6
:104750000020A080B08470BC7047F0B5B5488BB025
:104760000489018B0A91418A0991C18A0891808A42
:104770000790B3480026C18DB248B54D8289059295
:10478000078B808C0390B04840880290AF48008D22
:104790000190AA480078400700280DDB8C420BD915
:1047A000291DAC48FEF721FC002806D0A3480422AE
:1047B00001781143017000E06E60A04800780007A6
:1047C0000ED4059884420BD2A349A248FEF70DFCF3
:1047D000002806D09948082201781143017000E0B2
:1047E000AE60964C2078C0060DD40A98B8420AD91B
:1047F0009A499848FEF7F9FB002805D02078102147
:104800000843207000E0EE60207880060ED4039903
:10481000099888420AD992498E48FEF7E6FB00289B
:1048200005D0207820210843207000E02E618D48BB
:104830000078002812D12078C0090ED1029908987A
:1048400088420AD988498348FEF7CFFB002805D063
:10485000207880210843207000E0AE618348007812
:10486000002810D16078C0070FD1019907988842BD
:104870000BD97F497748FEF7B8FB002803D0607852
:104880000121084360700BB0F0BD6E610BB0F0BD4C
:10489000F0B568488BB00489018B0891C18A0691F4
:1048A000808A0790664967488A8E408A0190049002
:1048B000088D09906448614DC089039063480026C3
:1048C000C08D02902878400700280CDA94420AD262
:1048D00068496048FEF789FB002806D02878FB214C
:1048E0000840287001E05A48866254480127007841
:1048F000514D000700280FDA019884420CD95E4917
:104900005448FEF772FB002808D04C48F722017883
:1049100011400170AF8001E04D48C662474C2078DD
:10492000C0060FD50499089888420BD253494948CC
:10493000FEF75BFB002807D02078EF2108402070AD
:10494000AF8001E042480663414846636078C00793
:104950000FD00299079888420BD249493D48FEF78B
:1049600044FB002807D06078400840006070AF80AA
:1049700001E03748C6632078C0090FD00399069834
:1049800088420BD23F493348FEF72FFB002807D05F
:1049900020784006400E2070AF8001E02C4806646D
:1049A000207840061BD529780998814219D2687869
:1049B000002816D17D206F7033498001FEF715FB6A
:1049C00000280ED02078BF2108402070A878012848
:1049D00003D12878401C28706E70AF7001E0AE7073
:1049E0006E7014482188C1810BB0F0BD42E610B44E
:1049F0001048114AC089D08013892449984209D0AF
:104A0000002809D0D3895C005B1C9B0708539B0FCF
:104A1000D38102E0002801D1002010811C480A88BF
:104A200002824A88C2828A888283C988418410BCF3
:104A300070470000860E00201C0100202601002087
:104A40008E080020CE080020CE090020CE070020CE
:104A5000B00E0020F8240100B80E0020BC0E00208B
:104A6000C00E0020C8000020C80E0020C900002091
:104A7000C40E0020D80E0020DC0E0020E00E002026
:104A8000EC0E0020F00E0020E80E00202C0100208B
:104A9000D0050020F8B5064617460D460120FDF763
:104AA000FAFE0120FDF7DDFF31460220FDF7C3FFCE
:104AB0000024002D0BD9A000395A6A4611808019B4
:104AC0000121FDF7D9FF641CA4B2AC42F3D300204E
:104AD000FDF7C7FF0020FDF7DEFEF8BDF0B583B09F
:104AE0005E4801905E4C408FE080A321A1806188E8
:104AF0005C4A012901D0D1886180217800250029F4
:104B000073D0012970D002296BD1012869D100200E
:104B1000554FE080BB1E901F118851258689598012
:104B2000418A9E800C301B1D6D1EF7D1F320800042
:104B3000FF21105A4531785249483B258688AD02FD
:104B4000494F0120FDF7A7FE0120FDF78AFF294606
:104B50000220FDF770FF0024002E0BD9A000395A67
:104B60006A46118040190121FDF786FF641CA4B23A
:104B7000B442F3D30020FDF774FF0020FDF78BFE55
:104B80003A496420FEF731FA00282AD034480199C6
:104B9000C2884A870121018175256D020F46344E76
:104BA0000846FDF778FE0120FDF75BFF294602204D
:104BB000FDF741FF0024A000315A6A4611804019D8
:104BC0000121FDF759FF641CA4B2BC42F3D30020BD
:104BD000FDF747FF0020FDF75EFE21490020088118
:104BE000087003B0F0BD00E01EE02069012810D17C
:104BF0003B239B0218881080A088400808D0998821
:104C0000D18019899181401E0C3208330028F6D1D9
:104C10002561E088012805D060880128E1D1207055
:104C200003B0F0BD0220FAE760880128F8D10F2315
:104C300065801B0318881080114651209E88CE8005
:104C40001E898E81401E0C3108330028F6D1D58094
:104C5000257003B0F0BD0068704700008E0800208A
:104C6000340100208E060020000F002040010020AB
:104C70003C01002010B525480088C105244803D513
:104C80000221FCF753FB10BD0221FCF751FB10BDC4
:104C900070B42048FF24468AC5891F480134C38B5D
:104CA0001A4802881146A143012B07D1002E03D0D8
:104CB0002243028070BC7047002DFBD0018070BC85
:104CC000704710B5114C2088C105114803D5022149
:104CD000FCF72CFB02E00221FCF72AFB0D48428A7C
:104CE000C1890D48C38BFF200130012B03D02188DF
:104CF0008143218010BD002A02D02188014303E0B6
:104D00000029F7D021888143218010BD3E0000207A
:104D100000000042860E00200E080020F0B5FF487B
:104D2000FF4C83B0C08A2084FFF72AF986B2FD4881
:104D30006684418EE184858DFB4825854278012A71
:104D400003D08078012807D00AE0F8480A22008EB4
:104D50005043F74A908603E0F648F54A008890866B
:104D6000A78C691AB81B00F0BAFC00F0B3FEF0493A
:104D7000C86601900090284600F0B4FE02900099A9
:104D800000F070FF0090384600F0ACFE009900F093
:104D9000C1FF00F063FE80B220860090E6490298D1
:104DA00000F0B8FF00F05AFE80B26086218C0291BC
:104DB000A94210D9009800F095FE0546029800F02F
:104DC00091FE019900F04EFF294600F005FF00F02A
:104DD00045FEA08602E0814200D2A786A08EB042A6
:104DE00001D20020A08603B0F0BDF0B5CB48CC4C7A
:104DF00083B0808A2081FFF7C3F886B2C9486681F4
:104E0000418EE181858DC84825824278012A03D0F0
:104E10008078012807D00AE0C4480A22008E504357
:104E2000C34A908603E0C348C14A00889086A78998
:104E3000691AB81B00F053FC00F04CFEBC494865F1
:104E400001900090284600F04DFE0290009900F07D
:104E500009FF0090384600F045FE009900F05AFF27
:104E600000F0FCFD80B220830090B349029800F06E
:104E700051FF00F0F3FD80B2608321890291A942C5
:104E800010D9009800F02EFE0546029800F02AFE88
:104E9000019900F0E7FE294600F09EFE00F0DEFDDD
:104EA000A08302E0814200D2A783A08BB04201D24E
:104EB0000020A08303B0F0BD9848A04980880880F6
:104EC0004A88801A4A68801848608002000C48802E
:104ED0007047F0B59148994989B0808808804A8820
:104EE000801A4A68801848608002000C48800A21B5
:104EF00000F0E7FB8E4C2080FFF742F887B28A482B
:104F000067804178012903D08078012805D007E027
:104F100086480A21008E484301E086480088A08622
:104F20008049C88CE0800D8C258129460A3989B2D8
:104F3000069161820291A688291AF01B00F0CFFB2E
:104F400000F0C8FDE06001900090069800F0CAFDF6
:104F5000009900F087FE0090304600F0C3FD0099F4
:104F600000F0D8FE00F07AFD80B2754920824978C1
:104F700001291DD121880091A9420FD900F0B2FD6D
:104F80000546009800F0AEFD019900F06BFE294641
:104F900000F022FE00F062FDA08204E008460299C3
:104FA000884200D2A682A08AB84201D20020A08204
:104FB00009B0F0BDF0B55948604985B080880880D7
:104FC0004A88801A4A68801848608002000C48802D
:104FD0000A2100F076FB564C2083FEF7D1FF608358
:104FE00051484178012903D08078012805D007E095
:104FF0004E480A21008E484301E04E480088A083B5
:105000004849C88CE0830F8C6783258C29460A3178
:105010008EB26685291AA08B03900290C01B00F007
:105020005EFB00F057FD606201900090304600F09A
:1050300059FD009900F016FE0090029800F052FD14
:10504000009900F067FE00F009FD80B23C49208520
:10505000097901291BD1218B0091A9420ED900F0B9
:1050600041FD0546009800F03DFD019900F0FAFD74
:10507000294600F0B1FD00F0F1FC02E0B14201D29E
:105080000398A085A08DB84201D20020A08505B06C
:10509000F0BDF0B521487D2183B04089C90000F002
:1050A00010FB234D2886FEF76BFF87B21D486F86E5
:1050B000C18FE986048F1C482C874278012A03D0CF
:1050C0008078012805D007E018480A22008E504356
:1050D00001E018480088A886154E611AB58EE81BB5
:1050E00000F0FDFA00F0F6FCF06306460190204661
:1050F00000F0F8FC3146029000F0B4FD0646284668
:1051000000F0F0FC314600F005FE00F0A7FC044E74
:1051100080B2308001210090890713E0860E0020C4
:10512000DC1000208E070020CA0000208E06002020
:105130009C100020EA0000200000A040D0000020C9
:1051400090100020029800F0E5FD00F087FC80B28E
:10515000FE497080097801291DD1FD49098E02910F
:10516000A14210D9009800F0BDFC0446029800F05E
:10517000B9FC019900F076FD214600F02DFD00F00C
:105180006DFCB08002E0814200D2B580B088B842A8
:1051900001D20020B08003B0F0BDF0B5ED48EE4D77
:1051A0008BB000882887FEF7EBFE87B2EB486F874D
:1051B0004178012903D08078012805D007E0E8482C
:1051C0000A21008E484301E0E6480088A887E649A6
:1051D000E64CC88CE8870E8C268031460A3989B2A5
:1051E000089161810791311AA88F00900690C01B29
:1051F00000F075FA00F06EFC00F030FC80B22887F9
:105200000546089800F06EFC6168059100F02AFDE3
:105210000290069800F066FC029900F07BFD00F019
:105220001DFC80B2C9492081497801291AD1B542B3
:105230000ED900F057FC0646284600F053FC0599AD
:1052400000F010FD314600F0C7FC00F007FC03E061
:105250000798854201D20098A081A089B84201D266
:105260000020A0810BB0F0BDF0B5C148C14983B0AA
:10527000808808804A88801A4A68801848608002BE
:10528000000C48800A2100F01CFAB84C2085FEF77B
:1052900077FE87B2B14867854178012903D08078CD
:1052A000012805D007E0AE480A21008E484301E0FE
:1052B000AC480088A085AC49C88CE0850290098C78
:1052C00021860A460A3A96B26687A58D091AE81B16
:1052D00000F005FA00F0FEFB60630190009030469C
:1052E00000F000FC009900F0BDFC0090284600F0A2
:1052F000F9FB009900F00EFD00F0B0FB80B293497D
:105300002087497801291CD1218D029A0091914270
:105310000FD900F0E7FB0546009800F0E3FB019988
:1053200000F0A0FC294600F057FC00F097FBA08796
:1053300002E0B14200D2A587A08FB84201D200207E
:10534000A08703B0F0BDF8B589488A4980880880F5
:105350004A88801A4A68801848608002000C488099
:105360000A2100F0AEF9814C2082FEF709FE87B2D7
:105370007A4867824178012903D08078012805D0D6
:1053800007E077480A21008E484301E0754800880D
:10539000A0827548C18CE182008C208302460A3AC3
:1053A00096B26684A58A411AE81B00F098F900F0CD
:1053B00091FBE0610090304600F094FB009900F012
:1053C00051FC0090284600F08DFB009900F0A2FCF3
:1053D00000F044FB20845D484078012808D1208AF1
:1053E000B04200D2A584A08CB84201D20020A08493
:1053F000F8BDF0B45C48604B418B1A885F48564C4E
:1054000002805248594B0027CD070AD0012505706C
:105410005A4EA5883688B54200D82E46574D2E8064
:1054200002E000250570A2808D070BD5012545708F
:10543000474D524EAD8A3688B54200D82E464F4D64
:105440002E8003E000254570414DAA824D070AD504
:1054500001258570494EA58B3688B54200D82E4669
:10546000464D2E8002E000258570A2830D070AD5E7
:105470000125C570414EA58E3688B54200D82E460E
:105480003E4D2E8002E00025C570A286CD060BD5CC
:105490000125C5712E4DAE8D384D2D88AE4200D8F8
:1054A0003546364E358003E00025C571284DAA8566
:1054B0008D060AD501250572304D9E892D88AE4294
:1054C00000D835462D4E358002E0002505729A81C0
:1054D0004D060AD501258571284E9D8F3688B54227
:1054E00000D82E46254D2E8002E0002585719A8732
:1054F0000D060AD501254571204D9E8C2D88AE42A2
:1055000000D835461D4E358002E0002545719A844D
:105510007F1C102F00DA77E71848018816480180B1
:10552000F0BC704710B5FFF764FFFFF7B2FDFFF75F
:10553000D0FCFFF75AFCFFF7F1FBFFF704FFFFF782
:1055400093FEFFF737FDFFF728FE10BD90100020F7
:105550009C1000207A000020DC100020CA000020EF
:105560008E060020EA0000208E0700201C1100207B
:10557000860E0020D00000201A01002048010020E3
:10558000FEB5054610460C46184373D0AE468C4611
:105590000020AD1A01469C4167D3664600270124CE
:1055A0003D46B61A9D4102D313463A46212465462C
:1055B00076462F04360C3E432D0CB61A9D4104D37B
:1055C000150C1B042B4312041034654676462F0637
:1055D000360A3E432D0AB61A9D4104D3150E1B020E
:1055E0002B4312020834654676462F0736093E43A0
:1055F0002D09B61A9D4104D3150F1B012B4312012F
:10560000241D65467646AF07B6083E43AD08B61A78
:105610009D4104D3950F9B002B439200A41C65462B
:105620007646EF0776083E436D08B61A9D411AD3B9
:1056300092185B41641C16E00018764665464941A5
:10564000B71A9D410191009009D36046B11A984163
:105650008E468446009801990025401C6941DD076B
:1056600052082A435B08641EE6D57246634603B0BF
:10567000F0BDFFE700200146C046C0462A4623464B
:10568000F5E701E004C0091F0429FBD28B0701D50F
:105690000280801CC90700D00270704700290BD01F
:1056A000C30702D00270401C491E022904D383079D
:1056B00002D50280801C891EE3E70022EEE700226B
:1056C000DFE7002203098B4273D3030A8B4258D3CE
:1056D000030B8B423CD3030C8B4221D312E00346D5
:1056E0000B437FD4002243088B4274D303098B42BF
:1056F0005FD3030A8B4244D3030B8B4228D3030CA2
:105700008B420DD3FF22090212BA030C8B4202D343
:105710001212090265D0030B8B4219D300E0090A6B
:10572000C30B8B4201D3CB03C01A5241830B8B4274
:1057300001D38B03C01A5241430B8B4201D34B035D
:10574000C01A5241030B8B4201D30B03C01A5241C2
:10575000C30A8B4201D3CB02C01A5241830A8B4247
:1057600001D38B02C01A5241430A8B4201D34B0230
:10577000C01A5241030A8B4201D30B02C01A524194
:10578000CDD2C3098B4201D3CB01C01A5241830948
:105790008B4201D38B01C01A524143098B4201D382
:1057A0004B01C01A524103098B4201D30B01C01AAD
:1057B0005241C3088B4201D3CB00C01A5241830827
:1057C0008B4201D38B00C01A524143088B4201D354
:1057D0004B00C01A5241411A00D2014652411046B4
:1057E00070475DE0CA0F00D04942031000D3404229
:1057F000534000229C4603098B422DD3030A8B425F
:1058000012D3FC22890112BA030A8B420CD38901FC
:1058100092118B4208D3890192118B4204D38901E2
:105820003AD0921100E08909C3098B4201D3CB0120
:10583000C01A524183098B4201D38B01C01A5241D5
:1058400043098B4201D34B01C01A524103098B42D9
:1058500001D30B01C01A5241C3088B4201D3CB00C4
:10586000C01A524183088B4201D38B00C01A5241A7
:10587000D9D243088B4201D34B00C01A5241411A7E
:1058800000D20146634652415B10104601D34042AC
:10589000002B00D54942704763465B1000D340425D
:1058A00001B50020C046C04602BD70477047704732
:1058B000F0B5FF252D04C609C209FF2704462E4076
:1058C0000137CB093E4348402A402B400746002A77
:1058D0006BD0002B69D0AA4267D0AB4265D00028BC
:1058E00000DA32460125ED0529432C430902200246
:1058F000090AD21A4B0C7F24E31A434C000A7C4459
:10590000E35C7D242404121914145B00A21888425D
:1059100001D3521C00E0400049420C465C43241174
:105920005C43DB016415E318040A5C43C502200DE7
:105930000C4644436419250A5D432303EC0C0D46D1
:10594000654300030019EB184C42A34201D35B18D6
:10595000401CD4052018002B07D05B00C91804D3C5
:10596000401C002901D1400840003F2189048A429F
:1059700009D3002A08DC1106090F04D003214907C6
:105980004018C00FC007F0BD01224100120689185F
:105990007F2252069142F6D205214907C84201D51D
:1059A0009010F0BDFF20C005F0BD002F00DA324698
:1059B0001648AA4207D2AB4205D21902090E17D0E7
:1059C000F80FC007F0BDFF2563002D06AB42F9D8E4
:1059D0004900A942F6D8AB4201D1A942F2D0A9426E
:1059E00001D1002101E061004908D0050843F0BD64
:1059F0001102090EFBD0FF200243D005F0BD0A467C
:105A00000146104654E70000ED0400000000C07F8E
:105A100010B501469E240002CA15A307002A02D031
:105A20001843002A04DBA21A002A0CDDD04010BD66
:105A30001206120E01D140004008A21A03D4D04031
:105A400040420028F3DDFF2248001206904201D9AF
:105A5000002010BDC817C043584010BD0102C21538
:105A600004D00123DB071943002A0ADB9E239A1A7C
:105A700002D40846D0407047FF22410012069142EE
:105A800001D900207047C017C04370471F22030C84
:105A900002D10F2200041CD0030E01D10002083AEB
:105AA000030F01D10001121F830F01D18000921E4C
:105AB000002801DB4000521ED20551180212511875
:105AC0001922904004D3491C002801D149084900FB
:105AD00008467047C10FC90700D040420122920713
