:020000040000FA
:10000000701600204D2F0000552F0000572F0000C4
:1000100000000000000000000000000000000000E0
:10002000000000000000000000000000592F000048
:1000300000000000000000005B2F00005D2F0000AA
:10004000E5550000CD170000ED1700000D18000069
:10005000232800005F2F00005F2F0000CB2100004D
:10006000CF210000D3210000D72100005F2F000026
:10007000350100005F2F00005F2F00005F2F0000A0
:100080005F1200008B3A0000FF1B00005F2F000092
:10009000572700005B270000D90B00005F2F0000EE
:1000A0005F2F00005F2F000000F002F800F030F832
:1000B0000CA030C8083824182D18A246671EAB467D
:1000C00054465D46AC4201D100F022F87E460F3E18
:1000D0000FCCB6460126334200D0FB1AA246AB46EF
:1000E00033431847D05F0000F05F00000023002476
:1000F00000250026103A01D378C1FBD8520700D35F
:1001000030C100D50B6070471FB51FBD10B510BDC5
:1001100005F09CFD1146FFF7F7FF02F0F9FE05F030
:10012000B4FD03B4FFF7F2FF03BC05F0E9FD0000E6
:1001300080687047704701208007C26A81128A4335
:10014000C262426B8A434263C26A0A43C262426B22
:100150000A4342638A4889490160002141600122C3
:1001600052028260C160874A02614261864A8261AE
:100170000622C26101220262844A426281627047A1
:100180007F49012805D0022807D003280AD0002083
:100190007047086B0004000D70477D48006800043C
:1001A000000D7047C86B0004000D704710B50120AA
:1001B0008007826A0F2109020A438262026B0A43A6
:1001C0000263744A1520106351201063012121201D
:1001D0004006416070490160704981607049C160AA
:1001E0007148704901600F21890181606F49C160C8
:1001F00070496F4B4B60704B0B6007239B038B6008
:100200000302CB6011236D499B020B6070238B604E
:100210003023CB600021116301230322062101F06A
:1002200063F8012066490003086010BD01208007C3
:10023000C26A81118A43C262426B8A434263C26AC4
:100240000A43C262426B0A4342635E49012008606E
:10025000704770475D495C4848628007826A402168
:100260008A438262026B8A430263826A0A43826221
:10027000026B0A430263564801210160002141607C
:10028000816003210902C1607047514900208860E4
:1002900070474F4880687047704770474B490869FE
:1002A0004C4A10404C4A104308614D484B49016389
:1002B0004D494C4A8A600022D2430A600021016302
:1002C000704747484549016347498A6810231A43E4
:1002D0008A600021016370474149444808637047C0
:1002E00010B401229207D36A5B085B00D362536BA0
:1002F0005B085B005363D46A01231C43D462546BD4
:100300001C435463002202610A7C394BD207920ECF
:10031000D2180B7BDB07DB0E1A430B79DB071B0FB5
:100320001A430B7ADB075B0F1A430B789B079B0F73
:100330001A4342600A69012A05D00221C1602D4991
:10034000416110BC7047898A89B2F7E7012900D062
:1003500000210161704710B44468A40606D51B044F
:10036000120213430B43436110BC704721494161A2
:1003700010BC70470160704770470000E104000046
:10038000002000420202020212110002FFFF0F00D1
:1003900040200042C00F004200077777F0FF0F00B7
:1003A0004B5505000000103000010042C0FF000066
:1003B00003117700000200421100003000030042E8
:1003C00000E100E000B300400104000080000040B4
:1003D00000060040FFFF00F8000001045AA50000DD
:1003E000C002004048800000000200405A55000052
:1003F0000002180001010100F8B5444E00273088C2
:100400000125434C002806D07078410703D400072B
:1004100001D4657000E0677003F010FE20780028BA
:100420000BD0012820D0022806D13A48078002F0DC
:10043000B8FE3088002815D0F8BD374E75203580BD
:10044000400204F005FE80B26080012800D13780B0
:1004500003F099FD03F0A0FF3049C82002F0D1FD60
:100460000028E9D02570F8BD02F059FE04F042FBE7
:1004700060780028F7D002202070F8BD264F244C69
:100480000025A0880028FCD0204EA58030880028B8
:1004900007D07078410704D4000702D401206070AF
:1004A00000E0657003F0CAFD207800280DD0012817
:1004B00022D00228E5D11748058002F072FE30886C
:1004C0000028DED101202070DBE7012675203E8068
:1004D000400204F0BDFD80B26080012800D13D8063
:1004E00003F051FD03F058FF0C49C82002F089FDCC
:1004F0000028C6D02670C4E702F011FE04F0FAFA14
:1005000060780028BDD00220DDE7000058010020FF
:1005100000000020420100206801002008000020A7
:1005200072B61B481B4908631B49002088601B48A2
:100530005721016375210163194815210163512178
:100540000163194917480860C0104860174A88605D
:100550005068174B984308615060412000060168BD
:100560009215914301600168120211430160016814
:1005700009090901891C016062B67047002805D08D
:100580000949C968414300BF491EFCD170470000BA
:100590005AA50000C002004000020040C000004018
:1005A000C00F00420048E8010C000020400000405D
:1005B0000000070FFF4B10B40002C3181F24C8002F
:1005C000042906D219698440A14382400A431A6172
:1005D00006E0596920388440A14382400A435A61A9
:1005E00010BC00207047F0B50C460646F2494001A9
:1005F000451801216B6089072A60CA6A33461433A3
:10060000012098408243CA624A6B82434A63CA6AA5
:100610000243CA624A6B02434A63E6493002471802
:1006200020782872207B6876287AE449002845D013
:10063000012843D0012149040228207B48D0401ED4
:100640004007400D4518207CC007400E0543A02000
:1006500005433D602089002182B23046FFF7AAFFA2
:100660002089012182B23046FFF7A4FF20890221B0
:1006700082B23046FFF79EFF2089032182B23046C6
:10068000FFF798FF2089042182B23046FFF792FFDE
:100690002089052182B23046FFF78CFF2089062190
:1006A00082B23046FFF786FF2089072182B23046AA
:1006B000FFF780FF207D002814D017E0207B401E2C
:1006C0004007400D4518207CC007400E0543C0E799
:1006D000401E4007400D4518207CC007400E0543D2
:1006E0009020B5E7207E4006400C0543BD60002009
:1006F000786080203862163671B2C806C00E0123B9
:100700008340AF4803608807C00EFF22247F8240E9
:1007100000290EDA0907090F08398D08A949AD002B
:100720006918CD699543A207120E82401543CD6129
:100730000AE08D08A449AD0069180D689543A20729
:10074000120E824015430D60A04803600020F0BDEA
:1007500030B401229207D46A0546012114350B46B4
:10076000AB409C43D462546B9C4354631630C00628
:10077000C00E81409648016030BC00207047704731
:1007800008028C498860002070478A4A000280185D
:10079000016000207047874A00028018C06A000488
:1007A000000D088000207047824B0002C018082905
:1007B0002FD20B007B441B79DB189F4403080D12DA
:1007C000171C2126006B0003000C108021E0406BF9
:1007D0000003000C10801CE0806B0003000C1080F4
:1007E00017E0C06B0003000C108012E0006C0003E7
:1007F000000C10800DE0406C0003000C108008E03D
:10080000806C0003000C108003E0C06C0003000C3F
:1008100010800020704738B50C46674B4101C9185D
:100820000A77CC76002A0CD06A49C01D096800916D
:100830006946087002F0E4FA6946204602F018FBA7
:1008400002E0204602F032FB002038BD70B50C46B5
:10085000594B4101CB18197E01291AD05549012560
:10086000000241181D76002A16D0DC60187F00288F
:1008700022D008686A0410430860886A1022104376
:1008800088620D62D87EDA6801232C3102F013FBF6
:1008900016E00220C04370BD0D62012000034A6AC9
:1008A000401ED50701D04A6201E00028F7D1C86A8E
:1008B00020600020187603E0886A284388620D6271
:1008C000002070BD70B53C4C43011D192B7E012BDF
:1008D0001DD0384B01260002C4182E76002A19D0EC
:1008E000E960287F002837D0206871040843206021
:1008F000A06A10210843A06221466B7EE87E2C315D
:10090000EA6802F0D8FAA87E00282CD02CE0022059
:10091000C04370BDA87E0023002803D007202B769B
:10092000C04370BD266201200003626A401E560764
:1009300001D5626201E00028F7D16A7E0020002A1A
:1009400008D982001619366B8E50401C6A7EC0B2E0
:100950008242F6D82B7607E0A06A05210843A06200
:10096000A87E002800D12662002070BD70B5124C10
:1009700043011D192B7E012B30D00E4B01260002A6
:10098000C4182E76002A2CD0E960287F00284AD08F
:100990002068710408432060A06A10210843A06207
:1009A00021466B7EE87E2C31EA6802F084FAA87E4C
:1009B000002811E000200042900100208000020089
:1009C00080E200E000ED00E000E400E000E100E093
:1009D00080E100E0686000002CD02CE00220C043E1
:1009E00070BDA87E0023002803D007202B76C043CB
:1009F00070BD266201200003626A401E560701D5C1
:100A0000626201E00028F7D16A7E0020002A08D93E
:100A100082001619366B8E50401C6A7EC0B282422C
:100A2000F6D82B7607E0A06A05210843A062A87ECD
:100A3000002800D12662002070BD70B4B64C43017E
:100A40001B191C7E012C0FD0B44D0124000240194B
:100A50001C76002A0CD0D960816A0522114381627C
:100A6000997E002927D027E070BC0220C043704740
:100A70009A7E0025002A04D01D7670BC0720C04352
:100A80007047046201221203446A521E660701D5B0
:100A9000446201E0002AF7D15C7E0022002C08D9D4
:100AA00094002618366B0E51521C5C7ED2B29442D2
:100AB000F6D81D7600E0046270BC002070479749AC
:100AC0000002401880210162002070470420C043CA
:100AD0007047924B10B40002C3181F24C8000429A9
:100AE00006D299698440A14382400A439A6106E094
:100AF000D96920388440A14382400A43DA6110BC9E
:100B000000207047854A00028018816100207047EC
:100B1000824A00028018C1610020704730B47E4CC8
:100B200043011C197D4B0002C018C36889000F25C2
:100B30008D40AB438A401A43C26001680122890894
:100B40008900114301600020A07630BC704730B4AA
:100B5000714C42011419714A00028018C268890060
:100B60000F258D40AA438B401343C36001680222C6
:100B70008908890011430160A27630BC00207047CB
:100B8000664A00028018406A086000207047634A85
:100B90000002801841620020704710B45F4C0002D0
:100BA00000230019002906D0012906D0022906D009
:100BB000032907D105E0012304E0042302E0082310
:100BC00000E01023816A002A01D0194300E0994314
:100BD000816210BC00207047F8B501464E4A4001C2
:100BE00084184E4A08028018227A00250826002A16
:100BF00029D04A4F0902C91902232C31022A3AD0BE
:100C0000012A5DD0416A032A41621BD10A0700D53F
:100C10000425C9070ED0627E0021002A09D98A0066
:100C20001618366BE768491CBE50627EC9B28A420C
:100C3000F5D81D43002D05D02268002A02D0284691
:100C400061689047F8BD416A4162CB070022002BE2
:100C500002D0237F002B07D0C8060AD5207F0028AA
:100C600007D008252276E5E7C06AE168012508601B
:100C7000F8E72276F8BD426A4262560702D5267F1F
:100C8000002E0ED0D006F5D5207F0028F2D0A07E11
:100C90000A250028D0D0637EE07EE26802F00BF9DE
:100CA000CAE7627E0021002AC3D98A001618366B73
:100CB000E768491CBE50627EC9B28A42F5D8B8E7DF
:100CC000426A4262170703D5876A3F0700D50425A9
:100CD000570702D5277F002F0ED0D006AAD5207F38
:100CE0000028A7D0A07E35430028A3D0637EE07EF5
:100CF000E26802F0E0F89DE7627E0021002A98D9C0
:100D00008A001618366BE768491CBE50627EC9B26D
:100D10008A42F5D88DE700009001002000200042B3
:100D2000FC498868FC4A1043886000207047F0B492
:100D30000C246043F94C0619F64C00203060A004E6
:100D4000C76A8513AF43C762476BAF434763C76A40
:100D50002F43C762476B2F434763B3607260A06A3B
:100D600001221043A062A068EB4A1043A0600879FA
:100D700003220007000B920780180A789303184398
:100D80001123DB01C018012A02D049784900084329
:100D90002060F0BC0020704701208007C26A8113E8
:100DA0008A43C262426B8A434263C213DC480260D8
:100DB0000160490001600020704770B40A78D54C8A
:100DC0000020D30700D0802095074023002D01DAB2
:100DD000184300E098434B7820259E06002E01DB47
:100DE000D60601D5284300E0A843DE061025002ED4
:100DF00001DB160701D5284300E0A8431E0708259C
:100E0000002E01DB560706D528431E0701D45607DE
:100E100002D5284301E0A843A8439E070225002EDF
:100E200001DB560601D5284300E0A843DD07012376
:100E3000002D01D1920601D5184301E04008400081
:100E4000606301246404B74AB54B002801D01460E4
:100E500000E01C6048784406B34801D5106000E00B
:100E600018604878C109B14801D0106000E01860EE
:100E700070BC00207047137910785B07C0075B09CE
:100E80001843137AA3491B041843137BDB079B0DFC
:100E90001843137CDB07DB0D1843137D127EDB0741
:100EA0005B0FD2071843D20F10430864002070472D
:100EB0000420C043704710781379C007DB07800D0A
:100EC000DB0D1843137A127BDB075B0FD2079149C6
:100ED0001843D20F10438864002070470420C04399
:100EE000704710781179C007C9078009C9090843FC
:100EF000117A884BC907890A0843117BC907C90AB7
:100F00000843517C8907890B0843117D0A06120C9E
:100F100010430843D8630020704710B41079147A46
:100F2000C007A4079289000BA40B204392B2794B0F
:100F30001043062912D20A007A4412799218974473
:100F4000020406080A0C986508E0D86506E01866F1
:100F500004E0586602E0986600E0D86610BC002005
:100F600070476C4B986A0721090288435107490D65
:100F7000014399620020704730B4664C60680029D4
:100F800001D003290BD1002A04D00125ED04012B47
:100F90000AD003E001252D04012B05D0A843012927
:100FA00004D0032902D00DE02843F8E7002A04D03A
:100FB00001252D05012B0AD003E001256D04012B2D
:100FC00005D0A843022904D0032902D00DE028430C
:100FD000F8E7002A04D001214905012B09D003E0DC
:100FE00001218904012B04D08843606030BC0020BB
:100FF00070470843F9E730B4464C6068002901D0D7
:1010000003290BD1002A04D00125ED02012B0AD0BF
:1010100003E0FF250135012B05D0A843012904D0A9
:10102000032902D00DE02843F8E7002A04D0012567
:101030002D03012B0AD003E001256D02012B05D001
:10104000A843022904D0032902D00DE02843F8E781
:10105000002A04D001214903012B09D003E001211A
:101060008902012B04D08843606030BC00207047A7
:101070000843F9E730B4274C6068002901D0032900
:1010800005D1002A08D00825012B0DD0A84301293D
:101090000CD003290AD013E0012B02D040084000F5
:1010A000F5E701252843F2E72843F0E7002A03D0BB
:1010B0001025012B09D002E00225012B05D0A84301
:1010C000022904D0032902D00BE02843F8E7002AC4
:1010D00003D02021012B08D002E00421012B04D0F1
:1010E0008843606030BC002070470843F9E730B4A3
:1010F000084CA068002901D0032905D1002A17D087
:101100000825012B1CD0A84301291BD0032919D085
:1011100022E00000001000420004CA00B0010020DC
:1011200080E100E000E100E000800000000001003C
:10113000012B02D040084000E6E701252843E3E701
:101140002843E1E7002A03D01025012B09D002E053
:101150000225012B05D0A843022904D0032902D07F
:101160000BE02843F8E7002A03D02021012B08D008
:1011700002E00421012B04D08843A06030BC002091
:1011800070470843F9E73A48102A02D20520C043C5
:101190007047C260002070473548002901D00329FC
:1011A00002D1002A05D00361012904D0032902D00D
:1011B00004E0C361F8E7002A05D04361022904D0A6
:1011C000032902D004E00362F8E7002A02D0836119
:1011D000002070474362FBE72548C16A01221143A2
:1011E000C162002070472248C16A49084900C162B3
:1011F000002070471E48C16A80221143C16200204E
:1012000070471B48C16A80229143C1620020704729
:101210001748806B1080002070471548006B0860ED
:10122000002070471248406C08600020704710484A
:10123000C06C0860002070470D4988686522520420
:10124000104307221202904388600020704709482B
:101250004268002A02D08168002010477047054884
:101260004268002A02D081680120104770470000C0
:1012700000100042B001002010B40723072909D94B
:1012800008398C004168A3409943A2400A43426058
:1012900010BC7047046889008B409C438A402243FD
:1012A000026010BC704710B48368490003248C406E
:1012B000A3438A401A43826010BC704710B4C368CD
:1012C000490003248C40A3438A401A43C26010BCE7
:1012D000704710B4036901248C40A343012A00D154
:1012E0002343036110BC704770B4046A49000325AE
:1012F0008D401646AC438E4026430662002A0CD031
:10130000012A03D0022A01D0032A04D1826A8B4029
:10131000AA431343836270BC7047816AA943816208
:1013200070BC7047406A7047416270478163704784
:10133000C1637047406B80B2704701637047000023
:10134000F8B504460078F74B02250121042853D054
:10135000F54A5068A778460760783F02074378BA95
:101360009F7E00043F033843DF7E760F3F02384301
:101370003043506020780B263602002806D0012822
:1013800010D002281CD0032836D126E01068202770
:10139000384310600220401CB042FCD35068C008A3
:1013A000C00028E01068802630431060DF4E022025
:1013B000401CB042FCD35068C008C00008431AE08B
:1013C00010680827384310600220401CB042FCD34C
:1013D0005068C008C00028430DE010682843106022
:1013E000372676020220401CB042FCD35068062605
:1013F000C008C0003043506020785876CC486668FA
:10140000066060780F468140304604F0B8F90090DD
:10141000A07839468140009804F0B1F9C5490860C8
:101420006421304604F09EFCC34A002304F006F910
:10143000C24941220860120600981168C04B090990
:101440000901984205D95B00984201D8394300E070
:1014500029431068084310600020F8BDB24A516863
:1014600003231B02994300280ED0012804D0022830
:1014700005D0032808D106E0FF20013001E001205B
:101480004002014300E01943516000207047F0B46E
:10149000012541792D0303273F022E030224A24B8D
:1014A0000129196864D008229143114319600B2265
:1014B00012020221491C9142FCD35968C908C90093
:1014C0002143A943596059680122B943520211438B
:1014D000596001218905196200BF00BF00BF00BF2C
:1014E00000BF027845781207120F2D022A43857833
:1014F0002D072D0E2A43C5786D076D0B2A430579FC
:10150000ED07ED0A2A4351183722520511431A6A92
:101510000A431A624279012A3ED07D214901491EBF
:101520000029FCDC196A0029FCDA7E4901250D76C8
:101530008A768079C87658680F2109068843072281
:10154000304312049043586058680725C008C00013
:1015500028435860586888439043586041210906E1
:1015600008680009000120430860F0BC00207047B3
:10157000A14321431960372252020221491C9142A2
:10158000FCD359680622C908C9001143B143294355
:1015900059605968B9439BE77D21C900BFE761499C
:1015A000497E814201D1002070475F4A11680028BE
:1015B00006D0012806D0022806D0032808D105E06D
:1015C000202004E0802002E0082000E00220014307
:1015D0001160002070475349497E814202D10520A5
:1015E000C0437047504A1168052819D203007B4454
:1015F0001B79DB189F44020406080B00202004E03E
:10160000802002E0082000E00220814308E0106A08
:101610000123DB0598431062106A5B109843106247
:10162000116000207047F0B49B073F4E3D4C454D84
:101630001B0E454F002804D0012816D0022839D1AE
:1016400027E039488068C0263043374EB06062607A
:1016500021603E49022008602968FF22120291435E
:101660001A0211432960386024E02F48806803265D
:10167000B60230432C4EB060E260A16033490820CE
:10168000086029680902090A1A06114329603860AE
:1016900010E062612161B0680C210843B0602B4901
:1016A000042008602968FF22120491431A041143A0
:1016B00029603860F0BC0020704710B402231A493A
:1016C000234A002804D0012808D0022813D10CE0B6
:1016D0008868C024A043886013600CE088680323F6
:1016E0009B0298438860082004E088680C23984394
:1016F00088600420106010BC0020704706282AD2A1
:1017000003007B441B79DB189F44020406080A246B
:10171000002220E001221EE004221CE005221AE043
:10172000062218E0BC0100204000004000F82A001A
:10173000100000201400002040420F00180000207C
:10174000C0FC9B0100E400E000E100E080E200E07A
:1017500080E100E0072250010907090F084310212A
:10176000084332490861002070473048016910225F
:101770009143016100207047012189070A690243F2
:101780000A6100207047012189070A6982430A61C2
:1017900000207047012189078A6902438A6100207D
:1017A0007047012189078A6982438A610020704756
:1017B00001229207D169D1610160002070470122A6
:1017C00092075169D1610160002070471848006B91
:1017D000C2051648202182680A43826015480268C3
:1017E000002A02D041680120104770471048006B62
:1017F000C2050E48022182680A4382600D480269D0
:10180000002A02D041690420104770470848006B45
:10181000C2050648826841150A438260054882680D
:10182000002A02D0C16802201047704740000040E3
:10183000C0000040BC01002010B4012189074C6A9F
:1018400001231A46824094434C62CC6A9443CC6292
:101850004C6B94434C631230C006C00E8340FE486C
:10186000036010BC00207047F0B59C4696462822C5
:10187000FA4B4243D218FA4C03021F19002393601B
:10188000D360136153619361D3611362A604536201
:10189000736A0124254685402B437362F36A2B4308
:1018A000F362736B2B437363634653607346136039
:1018B00000227A603A610B78002B00D120228B79CC
:1018C000002B09D0012B04D0022B04D0032B03D111
:1018D00001E0224300E01A434B79002B0DD0012B8D
:1018E00009D0022B02D0032B07D102E004231A43B4
:1018F00003E00C2300E008231A430B79002B01D1ED
:1019000010231A43CB79002B03D0012B01D15B03A9
:101910001A4301235B021A437A604A88FA603C61E9
:10192000123040B2C3060022DB0E9C40CD4B1C603F
:101930000D7A8107C90EFF238B4000280EDA0007BD
:10194000000F08388608C848B6003618F069984372
:10195000AB071B0E8B401843F0610AE08608C348B2
:10196000B600301806689E43AB071B0E8B401E4323
:101970000660BF4804601046F0BD10B4B84C0002C9
:10198000120200190A4319040A43426110BC0020E4
:101990007047B34A000280189214002902D001292E
:1019A00006D102E04168914301E041681143416082
:1019B00000207047F8B59C462823A84C43431C19C7
:1019C000A74B0002C518207A079F069E830701D403
:1019D000C00702D00220C043F8BD68680323DB04BF
:1019E00018436860002A03D0207A0123184320722C
:1019F000002E03D0207A022318432072A661002013
:101A000062612062E0616046FF22E1602061002F98
:101A100061D0264620363079002879D068680321C5
:101A200049040843686070792A466369E16801F0F7
:101A300042FAF0792946A369226901F03CFA90E064
:101A4000E169606988421DD9A96802200142FBD082
:101A5000E168481CE06009786B689B070DD0431C67
:101A6000E3600078000201436868C043800704D146
:101A7000581CE0601878000401432960E069401CAC
:101A8000E06107E06868800604D5A9680220014289
:101A9000FBD02A60216AA06988421CD9A868C007C7
:101AA000C00FFBD0286821694B1C2361087069684E
:101AB00089070DD02369060A591C21611E706968C7
:101AC000C943890704D1010C2069431C23610170BB
:101AD000206A401C2062216AA0698842B0D8E1696E
:101AE00060698842ACD8207AFD210840410849004D
:101AF0002172AA681020024203D1AA68082002427B
:101B00002FD04808400020720820C043F8BDFFE7EE
:101B1000E369606998421BD90846491CE160007876
:101B20006A6892070FD00A46491CE16012781302D6
:101B30006A681843D243920705D10A46491CE160FE
:101B4000117809040843E169491CE161286003E058
:101B50006868800600D52A60686803218903084305
:101B600068600020F8BD38B50C4628213B4B414346
:101B7000C9183B4D203103025B190A714C71002AD0
:101B800016D0002140006A46801D009110705868F0
:101B90008007800F02D0022804D101E0517001E0DB
:101BA0000120507001F02CF96946204601F060F9DF
:101BB000002038BD38B50C462821284B4143C918B0
:101BC000274D203103025B198A71CC71002A14D091
:101BD00028494000096800916946401D087058680E
:101BE0008007800F02D0022801D10120487001F047
:101BF00007F96946204601F03BF9002038BDF0B4F2
:101C000082B0002100912821144A41438A181449C6
:101C1000000240184168890606D4816840231942B1
:101C200002D08168994381600121836849020B4297
:101C300024D0846804231C4220D083688B438360B3
:101C4000107A4008400010721368002B02D090698F
:101C5000002823D002B00FE080E100E0D80100208E
:101C60000090004080E200E000ED00E000E400E0D1
:101C700000E100E06C600000F0BC7047FF21836869
:101C800001310B40FD25002B0DD083688B43836011
:101C9000107A284010721368002BDBD0516802B014
:101CA000F0BC01201847114620318B79002BD1D18F
:101CB00009790029CED181680223194004261C46E7
:101CC00000295AD081680423194256D0916900290D
:101CD00003D0116AD3698B424FD1D36951698B42CA
:101CE0001ED1137ADF071BD059084900117283688F
:101CF00010210B4200D0009481680823194202D0C1
:101D00000099314300919169002936D1416801233E
:101D1000DB039943416000990123194300912CE0B2
:101D2000D3698B4222D2D16800291CD04B1CD360CE
:101D3000097801914168890711D0591CD1601B783D
:101D4000019F1B023B4301934368DB439B0706D182
:101D50004B1CD3600978019B090419430191D16997
:101D6000491CD16102E00021C9430191117ACB07DE
:101D700001D1890701D5019901608168C907C90F9F
:101D80004AD081688023194246D001680191116AC6
:101D90009369994240D21769002F17D07B1C019993
:101DA00013613970416889070DD001990F0A591CD8
:101DB00011611F704368DB439B0704D1019B1B0C1F
:101DC0004F1C17610B70116A491C1162116A9369EB
:101DD000994221D1117A8B071ED529404908490023
:101DE0001172416803239B039943416011680029E4
:101DF00000D12FE781681023194202D000992143B6
:101E00000091806808210842009801D0304300907A
:101E100001210843009003E010680028E9D00098F1
:101E20000028E6D05168126802B0F0BC10470000EC
:101E300030B401229207946A0546012110350B4601
:101E4000AB409C439462146B9C431463C01DC0065A
:101E5000C00E8140E148016030BC00207047F0B501
:101E60000C24DF4D44436419DE4E8501AD19AC46A8
:101E700000252560A360012362609B079D6A0646DA
:101E800010360122B24095439D621D6B95431D6340
:101E90009D6A15439D621D6B15431D63C51D6DB283
:101EA000EF06AE46FF0E01250B78BD4000262F46FB
:101EB000002B08D0012B04D0022B02D0032B0ED113
:101EC00001E00126F6021E4323704B78052B06D84D
:101ED0001D014B8801243543A402A3420BD90520E0
:101EE000C04341078B6A93438B620B6B93430B6335
:101EF000BA490F60F0BD0A79634612022A431A609C
:101F00004A88521E93059B0D62469360B64A002391
:101F10001760C01D4C798007C00EFF2172468140BA
:101F2000002A0EDA1207120F083A9508AF4AAD00E0
:101F3000AD18EA698A43A107090E81400A43EA61A4
:101F40000AE09508AA4AAD00AD182A688A43A1079D
:101F5000090E81400A432A60A64807601846F0BD72
:101F6000A04A8001801880690870002070479D4A4F
:101F700080018018C16001610221C16102688B0289
:101F80001A4302604160012141600021416108461D
:101F90007047F0B40C25924E4543AD19914E800127
:101FA000049C8019E60703D0C66904273E43C66136
:101FB000A7070226002F02DAC7693743C7616C7092
:101FC000C260036180220029016807D0914301604B
:101FD000466001214160F0BC002070471143F6E7E4
:101FE000804A80018018026889000A430260C16942
:101FF00006221143C161022141600121416000209C
:102000007047F0B4774C89010E1907461437012147
:10201000B940520411431B04049D194329437162C2
:10202000800100191A434262F0BC002070478A0107
:102030006C49531800225A628001401842621046CF
:10204000704768498001401800214160C1614161C9
:1020500008467047634A8001801840690880002064
:10206000704760498001401800214161084670476F
:102070005C4B8001C018012A03D000690880002051
:102080007047C068FAE770B4564E8401A41936153B
:10209000039DB24203D970BC0520C0437047042998
:1020A0000BD1042809D254488669F60AF6028661E3
:1020B00086691B022B431E43866120687023984368
:1020C00020602068090108432060521E9005800DA1
:1020D000A06070BC00207047424B8001C0180629E8
:1020E00021D20B007B441B79DB189F4402130C1395
:1020F0000C13C169002A02D00122114301E04908F2
:102100004900C16104E00421002A06D108E0C2614F
:10211000002070470221002A02D0C2690A43F6E774
:10212000C2698A43F3E70520C043704782B00021AB
:1021300000910C212A4A414389182A4A80018018BB
:1021400082696B461A711A7982614A68002A3AD00C
:10215000187940070CD50878012802D0032805D04B
:1021600006E04878C00703D0042000E0102000906B
:10217000187980071AD50878002806D0022804D0DC
:10218000012807D003280DD010E00098022318433F
:1021900000900BE04878800708D500980823184382
:1021A000009003E0009820231843009068460079CF
:1021B000C007009802D0012318430090002802D0E5
:1021C000896802B0104702B070470020AEE70120D6
:1021D000ACE70220AAE70320A8E7000080E100E0C6
:1021E000000200200030004080E200E000ED00E04E
:1021F00000E400E000E100E08000004030B4012293
:102200009207D46A0546012108350B46AB409C4332
:10221000D462546B9C4354631430C006C00E81409A
:10222000F748016030BC00207047F0B50E46054607
:102230002820F4496843401885B000278760C760AC
:10224000076147618761C76107624762EE4C43607F
:10225000290202600C1901208007C26A2B4608334C
:10226000012199408A43C262426B8A434263C26A37
:102270000A43C262426B0A434263E54AE348906202
:102280006069C00704D0206800906069C007FAD177
:1022900060698006FCD500206060E06020616069B4
:1022A000A0682A4600901432307952B20392D206C6
:1022B000D20E01279740002805D0012803D002281C
:1022C00001D0032817D17279052A14D213007B4458
:1022D0001B79DB189F440A0205081C0008221043E2
:1022E00004E01822104301E028221043B279002AAA
:1022F00013D0012A0FD00520C0434307DA6A8A436E
:10230000DA625A6B8A435A63BD490F6005B0F0BD6B
:1023100020221043E5E704210843E060BD4800683F
:1023200041080291306801010091029803F027FAF8
:102330000099019048430299081A0002009903F09D
:102340001EFA0146019880B22062C8B26062B248AB
:1023500000220760A807C00EFF230399F479834089
:1023600000290EDA0907090F08398D08AB49AD00BD
:102370006D18E9699943A3071B0E83401943E9616E
:102380000AE08D08A649AD0069180D689D43A307B2
:102390001B0E83401D430D60A2480760104605B028
:1023A000F0BD70B515462822964C42431419964A42
:1023B00000028218A068C60702D00220C04370BD88
:1023C000012665613043E160A0600020E061002BE0
:1023D0000ED020462030417900291FD0516820239B
:1023E0001943516000796369E16800F064FD23E0FE
:1023F000E1698D420DD9E069E1680918401CE0618E
:102400000878106050698006FCD5E16960698842EF
:10241000F1D8A06840084000A0600DE05069800637
:1024200006D5E069E1680918401CE0610878106091
:102430005068022108435060002070BDF8B50D4679
:10244000282141436F4C00020C196F49A6684118BE
:10245000B00702D50220C043F8BD02200643A660A3
:102460002561A26100222262002B0ED0204620307E
:10247000C279002A33D04A6810231A434A6080790F
:10248000A369226900F017FD2DE0236AA2699A4230
:1024900020D90825042600234A69D207FCD04A69BE
:1024A0002A401A434B69334013434A6902401A4396
:1024B00005D0A16881430820C043A160F8BD0B6826
:1024C000226A2769BF18521C22623B70236AA269E4
:1024D0009A42E0D8A06840084000A06003E0486845
:1024E0000122104348600020F8BD2821454A41439D
:1024F0008918454A00028018C36840221343C3600C
:10250000C3689343C3608868022240084000904338
:1025100088600020704738B50C46034628203949AA
:1025200058434018203042710471002A0CD000201A
:10253000009058006946801C087000F061FC6946F4
:10254000204600F095FC02E0807900F0AFFC00200E
:1025500038BD38B50C4628212A4B4143C9182031D3
:10256000CA718C71002A0DD02F4940000968009172
:102570006946401C087000F043FC6946204600F0A4
:1025800077FC02E0204600F091FC002038BD1E4A96
:10259000000280184069400601D5002000E00120BB
:1025A000087000207047184A0002801840694006F1
:1025B000400E087000207047134A00028018016323
:1025C00000207047104B0002C31806292ED20800C5
:1025D0007844007900188744020406080A0C012098
:1025E00008E0022006E0082004E0042002E01020B9
:1025F00000E020205968002A1BD001431AE00000A7
:1026000080E100E030020020008000400000020471
:10261000800000401400002080E200E000ED00E0B7
:1026200000E400E000E100E0706000000520C0432D
:10263000704781435960002070472821484B70B48F
:102640004143C9180022474B83B00002C0180092D2
:10265000836801935B079D0F10232024032D30D046
:10266000019A1207950F0222032D4BD0019B5B07A5
:1026700012D503680E6A0D69AB550B6A5B1C0B62C1
:102680000D6A8B69AB4207D143685B085B0043600E
:102690008B6893438B600092019B0A259D43012325
:1026A000002D36D0019CA40748D5CD694C69AC42B9
:1026B0003AD0CA69CB689B18521CCA611A7802606A
:1026C0003CE00425009545690195ED0601D50C25F2
:1026D0000095019D2D0702D5009D1D430095019B8E
:1026E0005B0702D5009B23430093019B9B0703D507
:1026F000009B40242343009303686C46237142608F
:1027000020791BE08D6895438D6045689D43456049
:10271000C1E78A68520852008A604268A243426058
:1027200000981843009009E08C68640864008C608D
:102730004468944344600098184300900A68002A53
:1027400006D00098002803D0496803B070BC104739
:1027500003B070BC704700206FE701206DE70000F8
:102760003002002000800040324931480863704741
:1027700030490020086370472F4B5A6019602F4B77
:10278000002199600A460178012900D10822417888
:10279000072919D811438278002A02D0012A02D0D1
:1027A00012E0402200E0802211439960244A102167
:1027B0001160244AC078136880071B0A1B02000EB0
:1027C0000343136020480160002070471A4900202D
:1027D000086048608860194988601C4910200860BA
:1027E0000020704715498A6810231A438A60124AEC
:1027F000906008600020704700211048C9430160C4
:102800008168102291438160002070470A480B497B
:10281000806808600020704708494968016000200E
:10282000704705490A68002A01D049681047704777
:102830005AA50000C00200408002002000020040B3
:1028400080E200E004E400E000E100E080E100E07C
:10285000412212061168AA4B1940012804D0012018
:102860000004014311607047A648FAE741221206AE
:10287000116801231B069943012800D119431160F7
:102880007047412109060A68000712091201000F6A
:1028900010430860704741210906012803D0002831
:1028A00000D1486070479848486098484860984808
:1028B000F7E741210906012803D0002800D18860EC
:1028C000704794488860944888609448F7E74123AB
:1028D0001B06DA688243012900D10243DA6070479F
:1028E00041231B06DA69120A1202012900D10243B0
:1028F000DA61704741231B061A698243012900D11E
:1029000002431A617047412109064A69800F800716
:1029100010434861704730B4412212065169FF23C9
:10292000013399434024012804D07D48046051615B
:1029300030BC70477B4819430368FF252D04AB4327
:102940000325AD052B4303607748EFE741200006E0
:1029500080697047412109068861704741231B0641
:102960001A6B8243012900D102431A637047412048
:102970000006406B80B2704741200006006B6B4937
:1029800008407047C201412000068263C901C1634B
:102990007047412000068169C90507D500BF00BF07
:1029A00000BF00BF00BFFF2101318161816989053E
:1029B00007D500BF00BF00BF00BF00BF0121490213
:1029C00081618169C90307D500BF00BF00BF00BF97
:1029D00000BF0121090481618169890307D500BF16
:1029E00000BF00BF00BF00BF0121490481618169B0
:1029F000490307D500BF00BF00BF00BF00BF0121D2
:102A0000890481618169090307D500BF00BF00BF48
:102A100000BF00BF0121C90481618169C90209D5D4
:102A200000BF00BF00BF00BF00BF816901221205C7
:102A300011438161704700BF00BF00BF00BF41224A
:102A400012069369DB07FCD1536983430343536147
:102A500000230B609169C907FCD151698143516121
:102A600097E741221206116801235B06994301286A
:102A700000D119431160704770B400BF00BF00BFA0
:102A800000BF00BF00BF00BF00BF41231B069C6901
:102A9000E407FCD100BF00BF00BF00BF5C69012597
:102AA0002C435C61002400290CD920CAA600855162
:102AB00000BF00BF00BF00BF9D69ED07FCD1641CD3
:102AC0008C42F2D300BF00BF00BF00BF586940086E
:102AD0004000586170BC5CE7F0B44618002403461F
:102AE00000290AD91D781778521C5B1CBD4201D001
:102AF000061902E0641C8C42F4D33046F0BC7047E7
:102B0000FFFEFEFF000101006745230178563412E5
:102B1000896745239A785634AB896745BC9A7856BD
:102B200080E100E004E400E000E100E003010100D6
:102B300070B45407DBB252071E04520D64091A43E5
:102B4000A84D3443A84B082815D206007E44367998
:102B5000B619B744100310121B23323B1869002921
:102B600002D0012903D005E02840204302E0C00A3A
:102B7000C0021043186170BC70479869022902D1E5
:102B8000C00AC0021043986170BC7047D86903291D
:102B900001D128402043D86170BC7047186A0529CC
:102BA00002D0042903D005E02840204302E0C00AF7
:102BB000C0021043186270BC7047586A072902D1DE
:102BC000C00AC0021043586270BC7047986A082956
:102BD00001D128402043986270BC704783494A68FD
:102BE0004007D208D200400F104348607047F0B44D
:102BF00082B09C4613460025079A069F7B4C0095A1
:102C0000002A2FD0266A22121643266200BF226AAB
:102C10004907490B01431806000C520D01435205A8
:102C20006046164600070522000E5205014338078C
:102C3000000F1643014331430191206A084320628B
:102C400001950198401C0190A028FAD3206A002821
:102C500010DB0098411C0091082808D902B0F0BC94
:102C600000207047256202B0F0BC01207047206A46
:102C70000028EEDA02B0F0BC012070475B4A5168D0
:102C800003231B0280079943800D0843506070475F
:102C9000564A51689314C0079943C00C08435060CA
:102CA0007047524A516807231B0440079943400B61
:102CB0000843506070474D4A51680F231B060007B8
:102CC00099430009084350607047484B81B01A6827
:102CD0008243012900D102431A6000200090401C69
:102CE00000906428FBD301B07047404B9A68824340
:102CF000012900D102439A6070474007D207000EB5
:102D0000D20E09071043090F08433849086170477C
:102D100010B582B00220FFF7B4FD802300223349B2
:102D20008520086188689843886008680223984372
:102D30001843086000920098401C00906428FAD361
:102D400048680F231B0698434860486807231B0404
:102D500098434860486801231B03984348604868CB
:102D600003231B02984348600092086A01239B05D5
:102D70001843086200BF086A0523400D40055B0543
:102D8000184301901A48019C072320430190086AC8
:102D9000019C2043086201920198401C0190A028E8
:102DA000FAD3086A002807DB0098421C0092082822
:102DB00002D8086A0028F7DA4868C008C000034350
:102DC0004B600D490B4808600C4908600220FFF772
:102DD00058FD0722022308211046FFF7A9FE02B082
:102DE00010BD0000FFFF00F88000004040000040E0
:102DF0000013070000B4C4041000002014000020D9
:102E000010B43F4B1978042902D0002904D012E0F5
:102E1000062010BCC043704701208007846A10223E
:102E200094438462046B94430463846A144384620D
:102E3000046B14430463491C197010BC00207047D4
:102E40002F480178002905D0491E0906090E017096
:102E500003D00BE00620C043704701208007826A40
:102E600010218A438262026B8A430263002070470A
:102E7000244B1A5C002A02D00220C043704730B4B1
:102E8000214C02011219002414600C784D7824079B
:102E9000AD078978240D2D0FC9072C43890F0C43EA
:102EA00014600121195430BC00207047154A0021DC
:102EB00011540846704730B4134C000100190468DF
:102EC000124D2C40046004681B041C43046003681A
:102ED0009B0702D48260C16001E08160C2604168EA
:102EE00001221143416030BC0020704706490001B7
:102EF00040184168490849004160002070470000BF
:102F0000220000202300002000040040FFFF00F00A
:102F100010B572B6FDF704FBFDF748F9FFF7F8FEB0
:102F2000FDF709F900F050F800F0AFFB00F05CFD90
:102F3000FDF77CF9FDF7B2F900F0A8FD00F042FEC4
:102F400062B6FDF79BFA002010BD000007488047DD
:102F500007480047FEE7FEE7FEE7FEE7FEE7FEE77D
:102F600004480549054A064B70470000210500004A
:102F7000A9000000701000207016002070120020C0
:102F80007012002010B480071CD526490122087851
:102F9000002800D10A708B68C8685B1C002460415F
:102FA0008B60C86020490888401C08801F49088839
:102FB000401C08801E490888401C08801D48018864
:102FC0001143018010BC704700B583B000216846F2
:102FD00001700221417015214180012101710F21F1
:102FE00041710023144A69461846FEF738FFEF2165
:102FF0000020FEF7BCFF03B000BD0A498868C9681D
:103000007047084A0B689268002B00D10A600B6871
:10301000401ED21A824203D300200860012070476C
:1030200000207047280000200400002098000020A5
:103030009A0000203A000020852F0000F0B5694E6C
:103040008DB0748AB0880B90674800880A90F08A27
:103050000990B08A089065480788B0890090644854
:1030600000880690B08B0590708B029001F0E0FA1A
:1030700005466048007804905F48B68C86802046FC
:103080005E4CA0810B9802F08BFD5D4902F06EFC56
:1030900002F042FD20830A210A9802F070FB608250
:1030A000099802F07DFD564902F060FC02F034FD03
:1030B0006085089802F074FD514902F057FC02F057
:1030C0002BFDA084E7804F4F0098F881069802F00E
:1030D00067FD4B4902F0D0FE02F01EFDB8857D86EB
:1030E00049490598C8840298788043480078208030
:1030F0000498A087454800887883454806850DB028
:10310000F0BD444801783C48012905D0022901D08E
:10311000032900D1017070470121017070473E49B9
:103120000888C2073CD010B540084000088001F074
:10313000BBF900F055F900F023FC00F0CAFA01F0E9
:10314000BDFC01F0E2FB01F0D5FC01F050FF02F004
:10315000A8F8304801782848012904D0022902D073
:10316000032902D003E0017001E00321017000F0A7
:10317000F6FF01F06EF801F077FA01F0FBFE00F0C7
:1031800093FF01F089FE02F009FAFFF757FF01F003
:1031900061FF01F0D6F800F0E6FC01F01EF810BD6A
:1031A00070471D490888C2071AD010B54008400072
:1031B000088001F0DFFE00F013F900F08AFA02F057
:1031C00070F800F0DDFB01F095FC01F010FFFFF757
:1031D00035FF00F0C8FC00F0C2FF01F03BFF10BD5E
:1031E00070470000420F002094000020580100208A
:1031F0001E0100201401002038000020940500204A
:1032000000002041D4050020940600202001002069
:10321000140600203F0100203A00002010B50446AB
:10322000800712D5F9490020C880488101231A4639
:10323000F7491846FFF702F9F648F8490279F648C7
:1032400083795A548179491C8171E00702D0F4498D
:103250000120088010BD10B5EC4900208880F1489D
:10326000F14C01230288A11C1846FFF79AF8208828
:10327000401C208010BD70B4E6490889CA7949898C
:1032800040BA49BA032A02D0042A14D028E00B1805
:10329000834222DDE44DE54C0622424329181219EF
:1032A000897896888E421BD852888A4218D3401C4F
:1032B0008342F1DC11E00C1884420EDDDC4ADD4D66
:1032C000062343435B199E8891B28E4208D85B88DF
:1032D0008B4205D3401C8442F2DC70BC0120704755
:1032E00070BC00207047F0B4CA4CD348A17901707B
:1032F000E3794370217A8170617AC170408841BA64
:10330000CE48C181A77AE57A227B667B3902140216
:1033100029433443042B0AD0032B10D0C84E102B62
:10332000767814D0062B3DD0F0BC00207047018287
:103330000481B64908200881F0BC01207047018251
:10334000C480B24908200881F0BC01207047018286
:103350000021AE4C02712170002A15D0B84BB9493A
:10336000D20702D04E80891C5B1C0279520809D01A
:103370005D784D809D788D80521E091D9B1C120624
:10338000120EF5D101792170A74922788918FF31F1
:1033900001314A7B897B12020A434281008A09304B
:1033A000208106E0A4498D80CF8084819749082040
:1033B0000881F0BC0120704796489C4A8179934867
:1033C000A14B818112881A80A04A1288914203D0B1
:1033D0000C21C18100207047EA21C1810120704782
:1033E000F8B58A4C8C4F61780025002932D08B4883
:1033F0000090861F012956D002297AD0032928D1AE
:103400000020A080874E884D01233288A91C1846D1
:10341000FEF7C7FF2888401C2880814800880128C3
:1034200017D130468A490088FFF7EBFD002810D0FD
:103430000120A0807A48002606807A480188A81CCE
:1034400002F099F92189009802F095F9BE71E680A1
:103450006670F8BDBA797F48002A0FD0E18802294A
:1034600002D2491CE1800BE0072A07D301216170D9
:10347000A5704178FB221140417001E0BD71E580EB
:1034800061897D221201914202D2491C6181F8BDFD
:10349000714949780029FAD00121A17041780422AC
:1034A0001143417022E0A580BD71B0795F49A081D0
:1034B000654A0988118065490988884202D00C2034
:1034C000E08108E0EA20E081FFF70DFF002802D04C
:1034D00002206070F8BD53480188554802F04BF94E
:1034E0002189009802F047F90120A0806570F8BD9D
:1034F000FFE700F08FFB002831D0F2793089718925
:1035000040BA49BA032A02D0042A15D037E0091874
:103510008C46814223DD454B434E062242433118FF
:10352000D7188978BA888A4229D87A888A4226D3D5
:10353000401C8445F1DC12E009188C4681420EDD06
:103540003B4A3C4B06264643F618B78891B28F4259
:1035500015D876888E4212D3401C8445F2DC31485F
:103560000188334802F007F92189009802F003F935
:103570000120A08065702A4805802561F8BD0320E0
:103580006070F8E7F0B42348C3790189408949BAEB
:1035900042BA9446254A102B02D0062B29D031E09E
:1035A0000846614523DA3D26B6021F4B441AE2184D
:1035B0006400FF32E3180132FF33527B01339B7BFF
:1035C00012021A431F23DB028700DB5B05469CB215
:1035D00006235D43154BEB189C80F55B9442ADB21E
:1035E0005D8001D295420DD8401C6045DDDBF0BC0A
:1035F00070470623594389188A888242F7D249883E
:103600008142F4D9F0BC0020704700004000002047
:10361000900300208C0300208C05002092030020E2
:1036200020000020860000208C020020D20600200E
:103630008E020020940500201C0B00201C0F00208F
:10364000980300201E0B00200C010020FA0000202F
:103650005000002058010020FC00002070B40546F6
:103660002448002300290EDD234CEA5C5040082248
:10367000C60702D04008604000E04008521EF7D163
:103680005B1C8B42F1DB70BC704700B583B04B20F4
:10369000000200900320694608710020487188717B
:1036A0000120C87102460146FEF78CFF012200216D
:1036B0001046FEF787FF0023104A69460120FEF7F7
:1036C000B4FD01231A460E491846FEF7B7FE03B0B3
:1036D00000BD10B50B48818821204006012905D086
:1036E000002902D10121FDF721FE10BD0121FDF7C6
:1036F0001FFE10BDFFFF000001A000001D320000F2
:10370000900300204000002010B5CA4982070FD561
:103710000020C88001231A46C749FEF78FFEC7481C
:10372000C749837B027C5A54817B491C817310BD3D
:10373000C007FCD00120488010BD30B4BF48C47918
:10374000027A837AC57AA1185B19CB18417A5B1883
:10375000DBB2AA2C1BD1447BFF2C18D1852A16D1B1
:10376000027B9A4213D1122911D20A007A441279AB
:1037700092189744080E141A20262C32383E4A44D8
:1037800050565C0C62684089AE4940BA088030BC33
:1037900070474089AB4940BA488030BC7047408987
:1037A000A84940BA888030BC70474089A54940BAD2
:1037B000C88030BC70474089A24940BA088130BCFB
:1037C000704740899F4940BA488130BC7047408962
:1037D0009C4940BA888130BC70474089994940BAB9
:1037E000488230BC70474089964940BAC88230BC94
:1037F00070474089934940BA888230BC70474089FD
:10380000904940BAC88130BC704740898D4940BA60
:10381000088230BC704740898A4940BA088330BC6E
:1038200070474089874940BA488330BC7047408917
:10383000844940BA888330BC70474089814940BA86
:10384000888430BC704740897E4940BAC88430BC07
:103850007047F0B400220646002820D000291ED070
:10386000491E002913DD701ECB0701D04278401C91
:10387000457800244B1008D087785219C578E41990
:10388000801CD2B2E4B25B1EF6D11019C2B200297C
:1038900002DB705C8018C2B2F0BC10467047F0BC0E
:1038A00000207047F8B500216A4611706348AA22CB
:1038B0000270FF2282716A4611705E4949788170F8
:1038C000122938D208007844007900188744080883
:1038D00008080808180808080F08080808212A0816
:1038E0005648052141700021C170017126E05548FC
:1038F000018A0A0A1238C2700171062141701DE066
:10390000504881890A0A1238C2700171062141703B
:1039100014E04C48418C0A0A1238C2700171062129
:1039200041700BE04748818C0A0A1238C27001715D
:103930000621417002E03F49FF2048703F4E0023BE
:103940000427701E34781A46022185781B19C47822
:103950005219801CDBB2D2B2491EF6D1F15D981823
:10396000081869460870087834490123487107220D
:103970000020FEF716FD2F494878401C4870F8BD1E
:1039800070B52C4C2078002809D0002501280AD0D9
:10399000022815D0032812D1FFF7CFFE22E0FFF74F
:1039A00081FF01200AE06088012808D1A088411C1D
:1039B000A1800C2803D96580A5800220207070BDED
:1039C0001E498A7B002A0BD0E088072802D2401CBF
:1039D000E08070BD072A03D38D730320207070BD73
:1039E0008D73E580257070BD00B583B04B20C0019C
:1039F00000900320694608710020487188710220F8
:103A0000C871012211460020FEF7DCFD00210122D1
:103A10000846FEF7D7FD00230B4A69461846FEF715
:103A200004FC01231A4604490020FEF707FD03B0F9
:103A300000BD000054000020400F0020300F002087
:103A4000370F0020420F00200937000070B5E12138
:103A5000294CC900A1806088884206D2274D02F017
:103A60009FF8294601F082FF01E07F20C005244D28
:103A70000646E86802F094F8314602F0FDF902F0DB
:103A80004BF880B2E080686270BD704710B584B0BA
:103A90000020694602900A7AFD210A4069460A72AE
:103AA00001220A708870502001907D20124CC000C5
:103AB00020800023134A1846FDF739F902A9002097
:103AC000FDF77BF9228802210020FDF75CFB002234
:103AD000E38802211046FDF75FFB0022012302214B
:103AE0001046FDF749FA02210020FDF775FB002082
:103AF000FDF7A2FB04B010BD5C0000200000E14413
:103B0000001000428B3A00003D490A693D48438954
:103B10009A4201D8002242814089C860704770B53E
:103B20003948384C408A60800C21A1804843374D89
:103B30003C2101F032FE0004000CE08012D002F0C3
:103B40002FF801467F20C00501F010FF29462061B3
:103B500001F00CFF606101F0DFFF01044A0C28490D
:103B6000CA60086170BD70B5264C2088411C218058
:103B70002189884224D90020208023480C21408AB2
:103B80006080A1804843214D3C2101F006FE0004E5
:103B9000000CE08012D002F003F801467F20C0053F
:103BA00001F0E4FE2946206101F0E0FE606101F0D1
:103BB000B3FF01044A0C1249CA600861FFF746FFCF
:103BC00070BD704730B50F4C83B06420A0810121D7
:103BD00068460171032141710221C18000250572EF
:103BE00045722B460A4A01A90120FEF738F90095D3
:103BF000A389628900210120FEF7CBF903B030BD13
:103C00004030004064000020420F002095BFD635B0
:103C1000C33B0000F0B5A14E85B0F489308A019015
:103C20004006000E009001989D4B001980B2039051
:103C30001D785A789B48029201889B488D4201D199
:103C4000032A0AD08D4201D1042A41D08D4201D1EC
:103C5000102A7DD0062A7CD00CE1F5880621FFF7DA
:103C6000FDFC010A0006000C0843904FA842B880F2
:103C700070D18B488E4D0178A9704078E87000981B
:103C800028710398011B002910DD06204443894850
:103C90002018002254040388240C1E0A2C19667173
:103CA000801D491E521CA3710029F3D100993C4686
:103CB000C91C3980A81CFFF7D1FC00226280228831
:103CC000010AAA189070D1700098401D6081CEE062
:103CD00035890621FFF7C2FC010A0006000C0843E3
:103CE0007249A842888035D16D4971480A7882703E
:103CF0004978C170009901710398001B431E8446E6
:103D0000002B29DD06206C4960434218684865464F
:103D1000C11C0126ED07F607001D921FF54207D0D2
:103D2000D5882D0A8D7095798570801C891C921D0F
:103D3000D5885B1010D096892F0A8F708570558AB0
:103D4000370A0F710671001D091D0C325B1E02E05F
:103D500023E061E08BE0EED16046401E0AD42218D9
:103D600006214A4354494300895A51480A0A1818FF
:103D70004271817100994D4C4D4DC91CE180A81CC8
:103D8000FFF76CFC00222281E288010AAA189070D9
:103D9000D1700098401D608169E00621FFF75EFC4C
:103DA000010A0006000C0843404988807189884256
:103DB0005DD10398021B002A17DD40484049D30714
:103DC00005D00379001D1F020B791F43091D5210F6
:103DD00007D0037A08301F020B7A08311F43521EA6
:103DE000F7D10620334960430F52314E0621B5709A
:103DF0000298F070200A307174710198000AB07155
:103E00000198F071B01CFFF729FC010A3072717241
:103E10002649082048812AE08D422BD10621FFF750
:103E20001DFC010A0006000C204F0843B880B18930
:103E300088421CD11A492246887909790002084330
:103E400006214A431B491A4E8852B5700621F1706B
:103E5000210A31717471010AB171F0710621B01C2F
:103E6000FFF7FCFB010A3072717208207881012093
:103E700005B0F0BD002005B0F0BD12483221C1816F
:103E800064218182E121C9004038818419214901DE
:103E900041850D4801214183704700001C0F00201F
:103EA0001C0B0020FA000020920300207C00002060
:103EB0008C020020D206002094050020220B002056
:103EC000240B002012070020D207002010B5ED4976
:103ED000ED4C0B8AED480022A34203D903895B1CF9
:103EE00003810A8203893B2B03D943685B1C43602F
:103EF000028143683B2B03D903685B1C036042606B
:103F0000E34B0088D886E34843789B0702D40078C7
:103F1000000709D5086C431C0B64DF4B984203D3A0
:103F200001200A64887002E08878002806D08A7030
:103F30001D20D64A0C21C00201F064F810BD10B556
:103F4000D049D14C4B8AD5480022A34203D9C3881B
:103F50005B1CC3804A82C3883B2B03D983885B1CCC
:103F60008380C28083883B2B03D903685B1C03607A
:103F70008280C878002805D0CA70C94A0421C9487F
:103F800001F040F810BD70B51D20C00201F060F8CE
:103F9000C54EB080C54801F05BF87080C44801F0A0
:103FA00057F881B2C34DB94800243180A94205D0E9
:103FB0007288AA4202D0B388AB4203D10481446024
:103FC000046002E00181036042607120400201F060
:103FD0003FF8B94EB080B94801F03AF87080B8485F
:103FE00001F036F881B2B7483180A94205D0728815
:103FF000AA4202D0B388AB4203D10481446004607A
:1040000002E0018103604260A64801F021F89D4969
:10401000CC66886670BDAC48AC4A818899484164DA
:10402000937800220370022B00D1C261974B1B686A
:10403000C265C91A816596480186704770B5A24865
:10404000904C8088A14960648978002521700229FC
:1040500000D1E5618D490968E565401A8C49A06584
:104060000886FFF733FF618A874A8C48914203D95B
:10407000C188491CC1806582C1883B2903D98188D8
:10408000491C8180C58081883B2903D90168491C6E
:1040900001608580E078002805D0E570804A042121
:1040A000804800F0AFFF70BD8948C188754882899B
:1040B000891A826B891881638902090C8181704792
:1040C00010B570487D24C188E400491C8BB20022E1
:1040D0007C49C380A34203D90B895B1C0B81C2803E
:1040E0000B893C2B01D84B6803E00A814B685B1CB1
:1040F0004B603C2B03D94A600B685B1C0B60496822
:10410000744B01819C8F744B8480D984A14202D36B
:104110000121818200E08282818A1984407800280E
:1041200005D07120674A0C21400200F06BFF10BDE2
:10413000664A5448937800210370012B08D0022B63
:1041400005D10170603001608180C180518070476D
:104150005C4B01701960818259601981F6E710B5D6
:10416000FFF7AEFF594A4748937800210370012BAF
:1041700008D0022B05D10170603001608180C180C0
:10418000518010BD4F4B01701960818259601981B7
:10419000F6E7F8B53B4CA08901F002FD05466062E8
:1041A0004B48808801F0FCFC0746A0624B4928463A
:1041B00001F0DCFB4A4E0546E0623146384601F02C
:1041C000D5FB01462063284601F056FE314601F03A
:1041D000CDFB206201F07AFCF8BDF8B5294CA0892E
:1041E00001F0DEFC054660623948808801F0D8FCA9
:1041F0000746A0623949284601F0B8FB384E05460B
:10420000E0623146384601F0B1FB014620632846A2
:1042100001F032FE314601F0A9FB206201F056FCAC
:1042200001F0B6FC0546E08901F0BAFC294601F030
:10423000A7FE0546E06B01F0B3FC294601F0ACFD9A
:1042400001F06AFCE0638001000C1149E081C88341
:10425000F8BD70B50B4CE589E582608901F0A0FCE2
:104260000646284601F09CFC314601F07FFB1B49C5
:10427000606301F001FE01F04FFC1A49208388853C
:1042800070BD000088000020E70300006C0F0020D4
:104290009405002058010020C0270900E8000020F4
:1042A000E0000020D8F20000D600002008E800005E
:1042B00010E80000FFFF0000D000002008E200002E
:1042C00010E20000780F0020120B0020D20700201F
:1042D000420F002092070020D40500200000C842B1
:1042E00000002041940600203248808D70473248FB
:1042F000808C70473048408D70472F490020C98B13
:10430000002902D0012900D1012070472948C08F1F
:1043100070472A4880887047284840897047254957
:1043200000200A8F002A07D0012A06D04031022A35
:1043300005D0032A00D148897047C88F7047888804
:1043400070471F490020897F0906090E00D101200E
:104350001C4948847047F8B51B480024468E858D5B
:10436000C18C0091078F00F063F97D2200999201C2
:1043700080B2002902D001290CD105E0874209D979
:10438000012E05D12C4605E0874203D9012E01D12B
:104390002C4614402046F8BD10B53B20800200F0AA
:1043A00057FE0A4980B20880401EF62801D9012034
:1043B000088010BD12070020D206002052070020FE
:1043C00012090020420F0020D2070020FA0000202E
:1043D0008348818CC28B8348012A04D0022A07D0EB
:1043E000032A02D005E0002102E00122D20311439A
:1043F00001817D4900890880704770B57B48FCF7D2
:1044000099FF0307012200207649002B01DACA70C8
:1044100000E0C8708C89FF23F5339C4205D2CD782B
:10442000002D0BD0641C8C8102E0CC78002C05D0D0
:104430008C899C4203D110460A7170BD8881087135
:1044400070BD70B56948FCF775FFC106002365486B
:10445000002902DA0121017000E003704189FF2583
:10446000F535634A0424A94205D20678002E0ED001
:10447000491C418102E00178002908D04089A84206
:1044800006D11088204310804007C00F70BD4381C3
:104490001088A04310804007C00F70BD5548408B66
:1044A000002800D001207047F8B552480126408B03
:1044B0000025002801D0012700E000274B48FCF729
:1044C00039FF484CC00601D5267000E0257061898F
:1044D000FF23F53346480422994205D22378002B66
:1044E00010D0491C618102E0217800290AD063893B
:1044F0001946FF39F53906D1018811430180480773
:10450000C00F05E065810188914301804807C00F15
:10451000A0713648FCF70EFF000701D5E67000E0F9
:10452000E570A089FF21F531884205D2E278002AA2
:104530000AD0401CA08102E0E078002804D0A089C5
:10454000884202D1304601E0A58128462071034609
:104550002348418A002901D0012200E00022018B7A
:10456000002900D00121002A1BD0234A8B4311D0FF
:10457000A6706570818CC08B012804D0022804D0FD
:10458000032804D021E025811FE021811DE0114393
:1045900021811AE06671002903D018494978012960
:1045A00009D06671002F18D06571A570A079002818
:1045B0000FD06670F8BDA6706570818CC08B012825
:1045C000E1D00228E1D00328E1D007482189018009
:1045D000F8BD054865700580F8BD6670A570F8BD2A
:1045E000920700200E01002042010020000100423D
:1045F0003A000020D207002000800000FC000020CC
:1046000010B50220FBF7BCFD6A4980B28881CA89D7
:10461000801A0A69801808618002000C82008218E2
:10462000C881120B0A8064224243120B4A8010BDDB
:1046300010B50220FBF7A4FD5E4980B28881CA89CB
:104640006423801A0A69801808618002020C9000B5
:104650001018CA81000B5A430880120B4A8001F0DF
:104660009FFA01F033FA10BDF0B589B00220FBF7D4
:1046700087FD504C80B2A081E1894F4E401A2169DC
:10468000401820618002050CA8002818E581000B65
:10469000208064206843000B6080F089642100035F
:1046A00001F06DF801F07CFA0290B08A64210003F9
:1046B00001F065F801F074FA40490090488D8E8C45
:1046C0002189884200D2084660810299009801F051
:1046D000A9FB5AD90299009801F05EFC074660894F
:1046E000301A01F055FA394601F040F96061074689
:1046F000009901F0C1FB0590304601F051FA05998F
:1047000001F04AFCA0610690284601F049FA0590A4
:104710003946049001F0B0FB069901F03DFB01F031
:10472000D5F9274FE0613946029801F035FB01F0D9
:10473000F3F980B203903946009801F02DFC01F0A6
:10474000EBF987B20299049801F06CFB01D36E2D4E
:1047500002D26089E08015E00099059801F0E4FB41
:1047600002D31848854201D9E6800BE00398A8429D
:1047700008D2BD4206D2A08BE080134840220188B7
:10478000114301801148008CA08009B0F0BD10B524
:104790000024FFF7B2FD0E4980B28978012901D1CA
:1047A0000449CC88012801D1C0030443094804808E
:1047B00010BD00001C01002012070020D2060020BE
:1047C0000000F041D20F00003A000020D207002084
:1047D000FC00002042010020574832214160142192
:1047E0004162494281625549C160554981607047C3
:1047F000F0B55448504C83B0478C2760028DC08D73
:1048000001905148818C0091468D6421104600F042
:10481000B6FF01F0C5F905467D21A060C9000198E9
:1048200000F0ADFF01F0BCF9E06048486421C08AA7
:1048300000F0A5FF60601321C943A162381A6061CE
:104840001421616201F0A4F9294601F015FBE06131
:104850003F48216901F068FB0DD2A06A01F098F988
:10486000216901F0DFFA06D2606901F091F9216A4D
:1048700001F092FA2062E168206A01F0FDFA014637
:104880002062E06901F088FA05462061606A01F063
:104890007FF9294601F0C6FA04D2606A01F078F97E
:1048A00020610CE0A06A01F073F9216901F0BAFA05
:1048B00001D2206902E0A06A01F06AF92061E06A91
:1048C00001F066F9216901F067FAA16901F064FA63
:1048D0000546A061009801F063F90746294601F0FA
:1048E000A1FA02D23846A7610BE0304601F058F930
:1048F0000546A16901F096FA01D2A06900E02846B8
:10490000A06101F0E3F803B0F0BD1248007801287F
:1049100011D1114801784A1C027064290BD910B5D5
:1049200000210170FFF764FF0348806901F0F4F88B
:104930000A49088010BD7047840F00200AD7233C25
:10494000CDCCCC3D52070020D2060020420F0020E3
:104950000000A041FC0000203C010020420100209A
:10496000F8B56C486C49C48C8D8C478EFFF7C5FC3C
:1049700086B26A480078002802D0FFF7B5FC03E051
:10498000012F02D1FFF7CBFC84B2AC4200D92C46F8
:10499000012E01D1F003044361488480F8BD6148D1
:1049A0005F490278002A05D18278002A02D1427933
:1049B000002A01D0022002E04078012800D10870CE
:1049C000704758484178012932D102785449002A69
:1049D00005D18278002A02D14079002801D0022036
:1049E00000E0012008704E480078002820D00128FF
:1049F0001ED1F8B547484849C48C8D8C478EFFF7C7
:104A00007CFC86B245480078002802D0FFF76CFC99
:104A100003E0012F02D1FFF782FC84B2AC4200D93F
:104A20002C46012E01D1F00304433D488480F8BD9B
:104A30007047F8B53A49487801280BD002283AD097
:104A4000032809D137484278012A05D10278002A83
:104A500009D102E0FFF79BFEF8BD8278002A02D15F
:104A60004079002801D0022000E0012008702C4885
:104A700000780028F0D00128EED126482649C48CC1
:104A80008D8C478EFFF739FC86B2244800780028C9
:104A900002D0FFF729FC03E0012F02D1FFF73FFC12
:104AA00084B2AC4200D92C46012E01D1F00304435C
:104AB0001B488480F8BDFFF728FFF8BD1648012287
:104AC000017E1748002341701648022903D0037065
:104AD000032905D000E002704370012907D000E0EF
:104AE0004270837010480078002802D0A1E78270DD
:104AF000F8E770470A49888848800C490A780C49C9
:104B0000002A00D08881084A0A4B12781B788881D5
:104B10001A43704712070020D206002042000020EE
:104B20003E010020FC0000200F0100204601002073
:104B3000420F00201001002010B4FD480021C28A5D
:104B4000012003468B4013426DD00E296BD20B001F
:104B50007B441B79DB189F44060C131A21282F3C39
:104B600036434A51585FF3490B7803430B700121D8
:104B7000E7E7F04902240B7823430B702146E0E776
:104B8000EC4904240B7823430B700321D9E7E9494E
:104B900008240B7823430B700421D2E7E549102445
:104BA0000B7823430B700521CBE7E24920240B78D7
:104BB00023430B700621C4E7DE4940240B782343CE
:104BC0000B700721BDE7DB494B7803434B7009218C
:104BD000B7E7D84980240B7823430B700821B0E74E
:104BE000D44902244B7823434B700A21A9E7D149C9
:104BF00004244B7823434B700B21A2E7CD490824B2
:104C00004B7823434B700C219BE7CA4910244B7807
:104C100023434B700D2194E7C64920244B7823434E
:104C20004B700E218DE7491C10298ADB10BC7047A0
:104C3000F8B5C1480A21808800F0A1FDBC49BF4AEF
:104C40008880948FBE4ACC8097880F81897800290C
:104C50002BD1B84A00231678BA493507002D12DB4C
:104C6000A04210D24D886C1C4C80642D1DD90824A4
:104C700026434B80B44D167001242C70B34D2C701C
:104C8000B34D2C7000E04B80F5B22C070DD5B14C24
:104C90004E69A64201D2761C4E61A64206D2B842A7
:104CA00004D9F72005404B611570F8BDA642FCD928
:104CB0009F4A012090704B61F8BDF0B4A648A74907
:104CC00005889B4845814B88838140314F89C78146
:104CD0008078002824D1974900220E789948F4065C
:104CE000002C0BDB9D4209D98488631C8380642CD3
:104CF00016D9102382801E430E7000E08280F4B229
:104D0000E3060DD5934B86699E4201D2761C8661DF
:104D10009E4207D2BD4205D28261EF2004400C7052
:104D2000F0BC70479E42FBD9814901238B708261A0
:104D3000F0BC7047F0B48048458A88480389403009
:104D4000078A7B488078002824D17A4900220E788F
:104D50007C48B406002C0BDB9D4209D9C488631C37
:104D6000C380642C16D92023C2801E430E7000E03D
:104D7000C280F3B29C060DD5764CC669A64201D21C
:104D8000761CC661A64207D2BD4205D2C261DF20B1
:104D900003400B70F0BC7047A642FBD3644C012566
:104DA000A570F3E7F0B466480027C68A604806821B
:104DB000C58A01466A060978002A1DDA002920D131
:104DC000604943780A6A0446511C648AB34209D296
:104DD0005C4EA242316214D95B1C376243700121E0
:104DE00001700EE0FF2E0CD9564BA242196208D971
:104DF00001211F62017004E0002902D0690600D47D
:104E00000770002D05D107704A48BF220178114074
:104E10000170F0BC7047F8B547480A21808800F05F
:104E2000AEFC4E494C8B40310F8D414989780029A9
:104E300027D1404A002356784249B506002D0BDBA6
:104E4000A04209D90D896C1C0C81642D19D920242C
:104E50000B812643567000E00B81F4B2A50610D5F5
:104E60003C4DCE6AAE4201D2761CCE62AE4209D231
:104E7000B84207D2DF200440CB622D495470012094
:104E80000870F8BDAE42FCD3294D0120A870202047
:104E90000443CB625470F8BD314826490378487802
:104EA000234A002B06D00823184348700007C00F80
:104EB000D07005E0F723184048700007C00FD0708D
:104EC000C1B228488182704727481A49C28F487862
:104ED000002A02D01022104301E0EF221040487057
:104EE00070471348817D890708D00121017011495D
:104EF000FD220878400840001040087070471B48A9
:104F00000B4980890883C2071949D20F0A708207AA
:104F1000D20F4A704207D20F8A700207D20FCA70AE
:104F2000C206D20F80060A71C00F48717047000098
:104F30004401002058010020420F002052080020A8
:104F4000D2080020B40F00208A0000208B0000202F
:104F5000F8000020F82401009600002092080020AC
:104F600010010020D4050020D20A002012090020E0
:104F70005E010020F8B5FFF7DFFD1D481D4D80895B
:104F80001D4CC1072883C90F21708107C90F420733
:104F90006170D20FA2700207D20FE270C206D20F68
:104FA0008006C00F22716071002901D1FFF740FE19
:104FB000FFF7C0FEFFF781FEFFF7F4FEA87D012793
:104FC00080070E4E002805D02F703078FD21B843A1
:104FD000084030706079002801D1FFF71CFF30884D
:104FE000002800D02F70064928788884F8BD7047C3
:104FF00012090020440100205E0100205801002019
:10500000420F0020F8B5064617460D460120FDF771
:1050100042FC0120FDF725FD31460220FDF70BFD86
:105020000024002D0DD96000385A69460880A00080
:1050300080196A460121FDF71FFD641CA4B2AC4231
:10504000F1D30020FDF70DFD0020FDF724FCF8BD95
:1050500000687047F0B5764DFFB0E9897548D4B067
:10506000C1808C46AF8A4781B72141807149007861
:105070008C88714B00280CD0012840D0022839D1EF
:105080006E48007801287DD060460C4601287AD011
:10509000BEE06B480088012822D100203B25AD02EC
:1050A000810049190A68014606267143401C5A527C
:1050B0007F28F5DD5F483725C2600020AD02F6018C
:1050C0000622810042434919D21892190968401CEE
:1050D00011804628F4DB5748C160594900200880F8
:1050E0005448012C09D0012F07D06146012901D174
:1050F000022101707FB054B0F0BD0121F9E7012C0D
:1051000001D0012FF6D14B4800210F2681806A463D
:1051100040243603901E8D00AD192F884780AD883E
:105120008580001D891C641EF5D11146FE312325A2
:105130001B26F602A000801907884F80808888808F
:10514000091DA41C6D1EF5D115881D8000245588ED
:10515000194610465B268788CD80C5888F81001D43
:105160000C31761EF7D1FF206F30105A3549D1AA85
:105170005852D0A88480752001214002FFF742FFD9
:105180002C4801E004E009E004707FB054B0F0BDA9
:105190002849002008707FB054B0F0BD0020E080A6
:1051A0001A8860AE3282DA8864A918463F26878959
:1051B0004A80428A8F800C30091D761EF7D1224822
:1051C000FE22195A64A8815202463B2080218002A7
:1051D000FFF718FF184803231B02C0180288A0AE6F
:1051E0003282C688A4A9222287894E80468A8F806F
:1051F0000C30091D521EF7D114488A22C0180188AC
:10520000A4A881520246372046218002FFF7FAFE09
:10521000E088E8810120208175200D4A02214002AA
:10522000FFF7F0FE0020208120707FB054B0F0BD69
:10523000D20A002064010020D20600208C01002048
:10524000020000204A040000FA020000700800205A
:105250006C01002010B525480088C105244803D5FD
:105260000221FCF763F810BD0221FCF761F810BDC4
:1052700070B42048FF24468AC5891F480134838CB6
:105280001A4802881146A143012B07D1002E03D0F2
:105290002243028070BC7047002DFBD0018070BC9F
:1052A000704710B5114C2088C105114803D5022163
:1052B000FCF73CF802E00221FCF73AF80D48428A7C
:1052C000C1890D48838CFF200130012B03D0218838
:1052D0008143218010BD002A02D02188014303E0D0
:1052E0000029F7D021888143218010BD3A00002099
:1052F00000000042420F002012090020AA48AB49DA
:10530000808808804A88801A4A688018486080022D
:10531000000C48807047F0B5A34D8DB0E88A642139
:1053200000F02DFA0446A248008800F039FCA1499B
:105330000746C860A88A642100F021FA9E4D9F4963
:105340002C806880384600F011FB6860FEF7D2FFC1
:1053500028819B489D4C00880A9068810990994853
:10536000818A0891C08998490B90C88DE08202908B
:1053700005904F8C2783488F00F012FC8D490861FF
:10538000934900F0F3FAA0600090049091480690D1
:10539000C08E00F005FC874948618D4900F0E6FAAF
:1053A000E06006988349408D06900598C01E80B243
:1053B00008800590F81E81B27E484180039101214A
:1053C0008907049800F0E8FD049006980A2805D89B
:1053D00000F0E6FB7E4900F0C9FA60607E48407844
:1053E00001281FD128880299884216D3401A80B21A
:1053F00000F0D6FB616800F03FFD0290099800F0D4
:10540000CFFB05907F20C005029900F0C5FD0599EE
:1054100000F032FD00F080FB03E00599884201D2E4
:105420000A9820826D48C078002808D129880B98F6
:10543000814204D96A48802201781143017066488C
:10544000007801281ED16888B84216D3C01B80B2EC
:1054500000F0A6FB616800F00FFD0746099800F018
:105460009FFB02907F203946C00500F095FD029910
:1054700000F002FD00F050FB03E00399884201D2E6
:105480000A98A08255480079002808D169880898B0
:10549000814204D9524801224178114341704E4F54
:1054A000B878012824D16868009900F03DFD17D82C
:1054B000A168686800F070FD0146606800F0DCFCDF
:1054C0000090688900F06CFB01907F20C005009976
:1054D00000F062FD019900F0CFFC00F01DFB06E03A
:1054E0006868049900F09EFC02D23548008860820A
:1054F0003A480078002809D1E168686800F014FD96
:1055000004D237480422017811430170B87800288A
:1055100000D0668A3978002903D0A28AB24200D22C
:1055200016467A78002A04D0208AB04205D2064670
:1055300003E0002901D1002801D0214806800DB0E8
:10554000F0BD2148002183881A4801228380801DF4
:10555000012B11D0022B11D0032B11D0042B12D010
:10556000052B12D0062B13D0072B13D0002B02D102
:1055700081700170417070478270FAE7817000E0BD
:1055800082700270F6E7817000E08270017003E0C3
:10559000817000E0827002704270704710B5FFF7B2
:1055A000D0FFFFF7B8FE10BD420F0020040100201D
:1055B00094000020740100200410002000007A44B0
:1055C000420100209208002012080020E80F00206D
:1055D0000000C842520800207A0100205E0100202D
:1055E000580100201149012008701149002008804D
:1055F0001048C16A02221143C1627047012080072E
:1056000081690422114381610A48E42181620A49C7
:10561000016370470748016B490602D5034A01211F
:105620005170016B40221143016370478C010020CF
:105630006A0100204000004013550000FEB50546F9
:1056400010460C46184373D0AE468C460020AD1A67
:1056500001469C4167D36646002701243D46B61AA1
:105660009D4102D313463A462124654676462F04CF
:10567000360C3E432D0CB61A9D4104D3150C1B0469
:105680002B4312041034654676462F06360A3E43F5
:105690002D0AB61A9D4104D3150E1B022B4312028C
:1056A0000834654676462F0736093E432D09B61A5B
:1056B0009D4104D3150F1B012B431201241D654688
:1056C0007646AF07B6083E43AD08B61A9D4104D3EF
:1056D000950F9B002B439200A41C65467646EF076E
:1056E00076083E436D08B61A9D411AD392185B4165
:1056F000641C16E00018764665464941B71A9D417C
:105700000191009009D36046B11A98418E468446B3
:10571000009801990025401C6941DD0752082A4381
:105720005B08641EE6D57246634603B0F0BDFFE732
:1057300000200146C046C0462A462346F5E701E060
:1057400004C0091F0429FBD28B0701D50280801CED
:10575000C90700D00270704700290BD0C30702D0E0
:105760000270401C491E022904D3830702D502801F
:10577000801C891EE3E70022EEE70022DFE700221B
:1057800003098B4273D3030A8B4258D3030B8B421A
:105790003CD3030C8B4221D312E003460B437FD44E
:1057A000002243088B4274D303098B425FD3030A60
:1057B0008B4244D3030B8B4228D3030C8B420DD373
:1057C000FF22090212BA030C8B4202D31212090201
:1057D00065D0030B8B4219D300E0090AC30B8B423F
:1057E00001D3CB03C01A5241830B8B4201D38B03ED
:1057F000C01A5241430B8B4201D34B03C01A524192
:10580000030B8B4201D30B03C01A5241C30A8B42D4
:1058100001D3CB02C01A5241830A8B4201D38B02BF
:10582000C01A5241430A8B4201D34B02C01A524163
:10583000030A8B4201D30B02C01A5241CDD2C309D5
:105840008B4201D3CB01C01A524183098B4201D351
:105850008B01C01A524143098B4201D34B01C01A3C
:10586000524103098B4201D30B01C01A5241C308B4
:105870008B4201D3CB00C01A524183088B4201D323
:105880008B00C01A524143088B4201D34B00C01A0F
:105890005241411A00D201465241104670475DE024
:1058A000CA0F00D04942031000D3404253400022A7
:1058B0009C4603098B422DD3030A8B4212D3FC2250
:1058C000890112BA030A8B420CD3890192118B42CF
:1058D00008D3890192118B4204D389013AD09211E5
:1058E00000E08909C3098B4201D3CB01C01A5241A0
:1058F00083098B4201D38B01C01A524143098B4269
:1059000001D34B01C01A524103098B4201D30B0151
:10591000C01A5241C3088B4201D3CB00C01A524176
:1059200083088B4201D38B00C01A5241D9D243085D
:105930008B4201D34B00C01A5241411A00D201469A
:10594000634652415B10104601D34042002B00D504
:105950004942704763465B1000D3404201B50020C6
:10596000C046C04602BD704770477047F0B5FF257E
:105970002D04C609C209FF2704462E400137CB0972
:105980003E4348402A402B400746002A6BD0002B5C
:1059900069D0AA4267D0AB4265D0002800DA32460F
:1059A0000125ED0529432C4309022002090AD21AD8
:1059B0004B0C7F24E31A434C000A7C44E35C7D24B7
:1059C0002404121914145B00A218884201D3521C3B
:1059D00000E0400049420C465C4324115C43DB017B
:1059E0006415E318040A5C43C502200D0C464443C9
:1059F0006419250A5D432303EC0C0D46654300033F
:105A00000019EB184C42A34201D35B18401CD4058B
:105A10002018002B07D05B00C91804D3401C0029B4
:105A200001D1400840003F2189048A4209D3002A5D
:105A300008DC1106090F04D0032149074018C00FE4
:105A4000C007F0BD01224100120689187F225206CC
:105A50009142F6D205214907C84201D59010F0BD08
:105A6000FF20C005F0BD002F00DA32461648AA42DA
:105A700007D2AB4205D21902090E17D0F80FC007A2
:105A8000F0BDFF2563002D06AB42F9D84900A942BD
:105A9000F6D8AB4201D1A942F2D0A94201D10021EE
:105AA00001E061004908D0050843F0BD1102090E6C
:105AB000FBD0FF200243D005F0BD0A460146104648
:105AC00054E70000B50600000000C07F10B5014695
:105AD0009E240002CA15A307002A02D01843002AF8
