:020000040000FA
:1000000098110020ED3A0000F53A0000F73A0000A0
:1000100000000000000000000000000000000000E0
:10002000000000000000000000000000F93A00009D
:100030000000000000000000FB3A0000FD3A000054
:10004000FF3A00006923000089230000A923000073
:10005000BF330000FF3A0000FF3A0000672D0000A8
:100060006B2D00006F2D0000732D0000FF3A000083
:10007000790C0000FF3A0000FF3A0000FF3A000050
:10008000FB1D0000970C00009B270000FF3A0000BA
:10009000F3320000F732000075170000FF3A00004D
:1000A000FF3A0000FF3A000000F002F800F0AFF85D
:1000B0000CA030C8083824182D18A246671EAB467D
:1000C00054465D46AC4201D100F0A1F87E460F3E99
:1000D0000FCCB6460126334200D0FB1AA246AB46EF
:1000E000334318475073000070730000002300244E
:1000F00000250026103A01D378C1FBD8520700D35F
:1001000030C100D50B60704710B56E2902D105F0E3
:1001100055FF10BD702902D106F057F810BD6629B1
:1001200002D107F0C5F810BD652902D107F0C0F86B
:1001300010BD672902D107F0BBF810BD612902D1BB
:1001400007F0BEF810BD03681B0A01D380231943D2
:10015000692902D105F0FCFE10BD642902D105F029
:10016000F7FE10BD752902D105F0F2FE10BD6F2912
:1001700002D105F0D5FF10BD782902D106F012F8A2
:1001800010BDE92902D105F0DDFB10BDE42902D143
:1001900005F0D8FB10BDF52902D105F0D3FB10BD49
:1001A000EF2902D105F0C8FF10BDF82902D106F0F1
:1001B00007F810BD0368DB0901D3802319436329C5
:1001C00002D106F092FB10BD732902D106F095FB17
:1001D00010BDE32902D106F09FFB10BDF32902D127
:1001E00006F0A2FB10BD002010BD1FB506F0FCFB01
:1001F00004000020002107F045F8401C606000204A
:10020000002107F029F8E0601FBD10B510BD06F011
:10021000C3FB1146FFF7E9FF03F048FC06F058FF67
:1002200003B4FFF7F2FF03BC06F0AEFF10B5F94CC4
:10023000606F002803D0606F401E606710BD00F043
:100240006DFD002005F086F90120E070F2490022E2
:10025000CA622070E2880243E280886A486210BD68
:1002600010B500F05BFD002005F074F9E9490120AC
:10027000C87000208031C86210BDF0B585B000F0B4
:10028000CBFD044600F0CBFDE24D686E401C686675
:10029000A878012877D1200675D5DF4C606A002840
:1002A00009D0606A401E6062606A002803D1E88855
:1002B000000B0003E88000F02BFDA867A86FD7496A
:1002C0000127002688421AD3E86F0A28E86F02D275
:1002D000401CE8671FE00A2819D100F01FFD00202C
:1002E00005F038F9EF70E6622F70E86F401CE867A0
:1002F000E88802210843E880A06A60620BE0A86FEA
:100300009B21C900884205D3E888800702D5A06AEE
:10031000606200E0EE6700F0F6FCBE49088108204C
:10032000085EBF49BF4D884220DB20680A2820684C
:1003300002D2401C20604EE00A2821D100F0EEFCE1
:10034000002005F007F9B348C770E662077021681E
:10035000491C2160C188FF2201329143C180C188BC
:1003600010221143C180A06A606234E0A9480822CB
:10037000825E8A4224DBC088FF211131084203D00B
:10038000A06A606227E09EE02660E98E688E491CC4
:1003900005F016FC616888420BD16068401C606003
:1003A0009C48C188FF2201321143C180A06A60626B
:1003B00011E0616888420ED96068401C60600AE004
:1003C0000821415E984A914205DCC1881022914380
:1003D000C180266066608F480822825E4321090141
:1003E0008A4220DCE0680A28E06802D2401CE06013
:1003F0004DE00A281FD100F091FC002005F0AAF87A
:100400008448C770E6620770E168491CE160C288F1
:10041000012109038A43C280C18820221143C1807F
:10042000A06A606233E07B480822825E8A421EDC5A
:10043000C088800602D5A06A606228E0E660E98E86
:10044000688E491C05F0BCFBA168884208D1A068F1
:10045000401CA0606F48C18801221203114315E0BF
:10046000A168884213D9A068401CA0600FE0082151
:10047000415E6E4A91420ADBE660A660C2880121B5
:1004800009038A43C280C18820229143C180012090
:1004900000F02AFC0546022000F026FC01465D48DB
:1004A000027892072FD005844184017889070AD504
:1004B000416D491C4165416D012292029142016DDD
:1004C00003DC4919016505B0F0BD8912818424213E
:1004D000415EE722D20091420BDB2421415E544A67
:1004E000914206DC04210170524804F03DFD05B044
:1004F000F0BDE6620770C18808221143C180A06A7E
:10050000606205B0F0BD2A46838C0546D21A02848B
:10051000828C891A4184484A4849019200912022DC
:10052000474B825E2221415E007904F091FF05F085
:100530000EF8002832D0434A434944481623029219
:1005400001910090EB5E1422AA5E4149414803F0FC
:100550009BFE04F0FCFF012804D004F0F8FF022801
:1005600011D01BE0E06A002805D000223A493B4840
:1005700003F0DAFF12E000F0D1FB002004F0EAFF04
:10058000EF702F700AE03449354A881E04F01CF8D9
:1005900004F0DDFF032801D1AE66AE6531481D4D84
:1005A0000E210090304B314A695E0C20285E04F029
:1005B00095FFA98F68460180E98F818040352988A1
:1005C000018102AA01A904F09CFF0028114854D01F
:1005D000016F491C0167006F0A280FD900F09EFBCC
:1005E000002004F0B7FF0B48C770E662077006678B
:1005F000C18804221143C180A06A6062054C0820B2
:10060000205E04F09BFF608704F0A1FF00282FD13B
:1006100077E7000000000020800000208305000034
:10062000220E0000D2010020240D00002F05000042
:10063000C808000012000020100000200E0000205A
:100640000C00002042000020300000204600002066
:100650004C00002048000020380000203600002018
:1006600044000020400000203E0000203C0000200C
:1006700004F06DFF032802D009E00667BEE7A06D15
:10068000401CA065E06E401CE06600F081F9F8486F
:1006900000220090F74BAA5E3E21615E3C20205E66
:1006A00004F0E6FB04F053FF02283ED06888608225
:1006B000F14812220090F14BA25E1621615E1420D7
:1006C000205E04F0EDFB1E21ED4BEE4A615E1C2026
:1006D000205E6E460FC63423E35E3222A25E3821CE
:1006E000615E3620205E04F0CFF8EA48E64BE74A28
:1006F000E7496E460FC61A23E35E1822A25E062162
:10070000695E1220205E04F04DF9E149E24BE34AB4
:10071000081F04F04CFAE04800F084FBDE4804F0C7
:1007200054FE00F096FB05B0F0BDA888BFE7DC4F93
:1007300086B0F98E788E491C05F042FA3C21D94DDD
:100740004143A9611E2141432962FF212D314143CB
:10075000A9620026EE62D44CA6706666616E814284
:1007600003D800BF616E8142FBD90120A070CF4940
:10077000CF4804F011FFCF480190CF4C20780028DB
:1007800012D0CE4803F02FFACC4803F0DAF9CB4868
:1007900003F064FAC94803F0CEFAC84803F0C0FA7F
:1007A00003F03DFC00202070BE48066B002E19D0DF
:1007B000BD49CA88120501D0002613E0CA88D204B8
:1007C00003D5E122D20096427ED8C988890409D592
:1007D00002694B2109015218964202D90169761A21
:1007E00000E00E46AF48C66204F0B1FE0028C4D156
:1007F000AD4CE078012807D04B20000186427DD324
:100800006078002806D01CE00020E070A549C8628E
:10081000064697E00120607041022120400601F069
:1008200053FBF98E0A20491C4143788E05F0C8F924
:1008300000216166616E814203D800BF616E814212
:10084000FBD99B4804F065FC9348B98E0180018870
:100850004180018881800188C180018801810188EF
:1008600041810025A582E582A583E583894805802D
:100870004580001D058045808D488189E18625875A
:1008800065820199CD800089888048806082CD8012
:100890006581A565F98E0591788E491C009005F05B
:1008A0008FF90A2148437D21C90005F089F9E065E7
:1008B00005990A20491C4143009805F081F92066FA
:1008C000A566E566E58400E060E025856585A5858B
:1008D000744805614561C561257119206571400144
:1008E000E08500F023FA00F032FA01202070A584A0
:1008F0002565656502202070207800E022E002284E
:1009000003D100BF20780228FBD0F98E0A20491CB1
:100910004143788E05F054F905460220606700F0E7
:100920008FFA00206066606EA84203D800BF606E38
:10093000A842FBD900F0F2F900206067E0880005CA
:100940001ED000266078012800D016E7002EFCD1CA
:1009500000256570F98E0A20491C4143788E05F008
:100960002FF96566616E814203D800BF616E8142D6
:10097000FBD9012121204902400601F0A7FAFCE63B
:10098000012004F0E7FD00F05BFADBE716461CE708
:10099000F0B5454C01276279424E4949002540484F
:1009A00083B0052A62D213007B441B79DB189F4475
:1009B00002243894DA002E22A25E8A420FD130221D
:1009C000A25E40498A4251DB6771A565C18E6422EF
:1009D000491C5143408E05F0F3F8E065D2E0A06D6C
:1009E000E26D904242D3A5652E20205E12308842EF
:1009F0003DDAE08D1230E085C4E0A16DE26D9142F8
:100A000034D302216171A565C18E408E491C05F069
:100A1000D7F8142148437D21C90005F0D1F8E065DD
:100A2000B0E0F16A002912D0A06DE16D88421DD3BB
:100A3000A565F16A4B200001814200DDF06A2E219C
:100A4000615E491C81423FDCE08D401C43E0032194
:100A50006171A565C18E408E491C05F0B1F80A216F
:100A600048437D21C90005F0ABF8E0658AE078E0F5
:100A70001600002014000020340000203200002066
:100A80001A000020180000201E0000201C0000207A
:100A90004C00002048000020EC060020040000204C
:100AA000D20100208000002000000020B4000020BF
:100AB000520100204000002030020020F8060020F3
:100AC000DC050000AA0500002E22A25E411C8A421D
:100AD00001DBE08D401EE08554E02E22A25E8A42BA
:100AE0002AD13022A25E5B498A4210DB3021615E4E
:100AF000594A91420BDC04216171A565C18E0A221D
:100B0000491C5143408E05F05BF8E0653AE0A06D6A
:100B1000216E884236D30520607100F0FFF8002076
:100B200004F018FDE770E58525862770E088C0058C
:100B300028D5B06A706225E0A06DE26D904221D3A5
:100B4000A5652E20205E801C884202DCE08D801C82
:100B5000C1E72E20205E414A904202DBE08D801EDC
:100B6000B9E7E1850EE0A06DE16D88420AD305206A
:100B7000607100F0D3F8002004F0ECFCE770E5852C
:100B800025862770E06E0A2861D3E566A16EFF20F6
:100B90009130814203D2A06E401CA0660BE0A16E92
:100BA000814208D1A06E401CA0662D4804F0B0F927
:100BB0002B4804F0BCF904F0D6FC00282A48294D43
:100BC000205E10D0A84202DA002004F0CFFC04F02E
:100BD000CAFC00280DD004F0C3FC618988420ED9FC
:100BE0006089401C0AE0AF2109018842EFDB012047
:100BF000EBE76089002802D06089401E608160892F
:100C000004F0ABFC2E20205EA84206DD144804F060
:100C1000B1F9134804F015FA0BE02E20205E7D2177
:100C20000901884205DA0E4804F0D7F90C4804F0AF
:100C30003BFA0E490E481E2301910090E35E1C22F0
:100C4000A25E3021615E2E20205E03F00DFD03B018
:100C5000F0BD0000AA0500000E060000DE05000041
:100C600052010020C40900002E00000038000020BE
:100C7000360000208068704770B5EA4D284601F0C4
:100C80001FF90446C00401D5FFF7D0FA21462846D3
:100C900001F018F970BD10B5FFF7EFFA10BD012093
:100CA0008007C26A81128A43C262426B8A434263EE
:100CB000C26A0A43C262426B0A434263DB48DA49B2
:100CC000016000214160012252028260D84AC26064
:100CD000D84A02614161D84A8261C161012202623F
:100CE000D64A426281627047D049012803D0022867
:100CF00005D000207047086B0004000D7047486B5A
:100D00000004000D7047C948806B0004000D704757
:100D1000C648C06B0004000D70477047C84988681A
:100D2000C84A1040C84A10438860704710B5C74889
:100D3000408E4100C648006804F042FF81B2C048BE
:100D40000161C161416101628161416210BDC248BE
:100D5000C0498161BA49C96801220A3989B21204BD
:100D60008918C1617047F8B501208007C16A8513F1
:100D7000A943C162416BA9434163C16A2943C1626E
:100D8000416B29434163B148AD4CC18E0902491CF6
:100D9000A1620027E762B14921603F210904616037
:100DA000A94EA660418EAE4804F00AFF4008401EDE
:100DB00080B2E060AB48E063A7480760AA494160A1
:100DC000A4498161E1680A3989B24919C161E168C0
:100DD0006D00783989B249190162E168F03989B248
:100DE0004919416280276763FFF7A0FF20683843F5
:100DF00020602068B8432060A068924908403043D2
:100E0000A060FF202063994901200D60E062E06846
:100E100080B204F0D7FAF8BD8948006B7047884962
:100E200008637047864902880A6142884A6182885D
:100E30008A61C288CA6102890A6240894862704731
:100E40007F4988687F4A10406522520410438860B9
:100E5000704770B5012004F08CFB794CE168491EA5
:100E6000814202D2E068401E80B201252D047A4EF4
:100E70004019B061022004F07CFBE168491E814208
:100E800002D2E068401E80B24019F06170BD70B5BA
:100E900001208007826A0F2109020A438262026BE5
:100EA0000A430263724B1520186351201863002116
:100EB0002120400641606F4A02606F4A8260C16033
:100EC00058486E4A026003221203826001225203D4
:100ED000C2606C4A6A4C54606B4C14609160D16083
:100EE0006A4C21603022A260E16019630123032271
:100EF000062100F0C7FF01205C4D0003286001229D
:100F00000221204600F0B3FF0123032202212046E4
:100F100000F0B8FF01208003286070BD0120800729
:100F2000C26A81118A43C262426B8A434263C26AC7
:100F30000A43C262426B0A4342635549012008607A
:100F400070477047704753490869534A1040534AE5
:100F5000104308615348524901635449524A8A6018
:100F60000022D2430A600021016370474D484C497A
:100F700001634E498A6810231A438A600021016385
:100F8000704748494A480863704710B401229207E5
:100F9000D36A5B085B00D362536B5B085B005363EF
:100FA000D46A01231C43D462546B1C435463002253
:100FB00002610A7C3F4BD207920ED2180B7BDB07F3
:100FC000DB0E1A430B79DB071B0F1A430B7ADB0787
:100FD0005B0F1A430B789B079B0F1A4342600A6909
:100FE000012A05D00221C1603349416110BC70471C
:100FF000898A89B2F7E7012900D000210161704791
:1010000010B44468A40606D51B04120213430B4314
:10101000436110BC70472849416110BC70470160B2
:101020007047704700010042E203000000200042C8
:10103000103200000202020211110700FFFF0F0030
:1010400000100042FFF800FF0004CA00D201002097
:10105000400100200A00010040100042220800C0A8
:1010600000B4C404505000030503000000E100E098
:10107000C00F0042770077770FFF000011111100B9
:10108000031177000002004211000030000300420B
:1010900000B3004080000040FFFF00F800000104A2
:1010A0005AA50000C0020040488000000002004035
:1010B0005A550000000218000101010072B61B48D9
:1010C0001B4908631B49002088601B4857210163A6
:1010D00075210163194815210163512101631949E3
:1010E00017480860C0104860174A88605068174B5E
:1010F00098430861506041200006016892159143B1
:1011000001600168120211430160016809090901C7
:10111000891C016062B67047002805D00949C9687A
:10112000414300BF491EFCD1704700005AA5000092
:10113000C002004000020040C0000040C00F00425A
:101140000048E80138010020400000400000070F7F
:10115000FF4B10B40002C3181F24C800042906D294
:1011600019698440A14382400A431A6106E0596923
:1011700020388440A14382400A435A6110BC0020B9
:101180007047F0B50C460646F2494001451801216A
:101190006B6089072A60CA6A33461433012098407D
:1011A0008243CA624A6B82434A63CA6A0243CA6282
:1011B0004A6B02434A63E649300247182078287296
:1011C000207B6876287AE449002845D0012843D05E
:1011D000012149040228207B48D0401E4007400DD1
:1011E0004518207CC007400E0543A02005433D6004
:1011F0002089002182B23046FFF7AAFF2089012111
:1012000082B23046FFF7A4FF2089022182B2304625
:10121000FFF79EFF2089032182B23046FFF798FF37
:101220002089042182B23046FFF792FF20890521F0
:1012300082B23046FFF78CFF2089062182B2304609
:10124000FFF786FF2089072182B23046FFF780FF33
:10125000207D002814D017E0207B401E4007400D61
:101260004518207CC007400E0543C0E7401E4007DC
:10127000400D4518207CC007400E05439020B5E77F
:10128000207E4006400C0543BD6000207860802031
:101290003862163671B2C806C00E01238340AF48CB
:1012A00003608807C00EFF22247F824000290EDAE7
:1012B0000907090F08398D08A949AD006918CD69DA
:1012C0009543A207120E82401543CD610AE08D08B6
:1012D000A449AD0069180D689543A207120E82401B
:1012E00015430D60A04803600020F0BD30B401221A
:1012F0009207D46A0546012114350B46AB409C4346
:10130000D462546B9C4354631630C006C00E8140B7
:101310009648016030BC00207047704708028C4935
:101320008860002070478A4A00028018016000200F
:101330007047874A00028018C06A0004000D0880C8
:1013400000207047824B0002C01808292FD20B00E2
:101350007B441B79DB189F4403080D12171C2126C0
:10136000006B0003000C108021E0406B0003000CB8
:1013700010801CE0806B0003000C108017E0C06B35
:101380000003000C108012E0006C0003000C1080C1
:101390000DE0406C0003000C108008E0806C00033E
:1013A000000C108003E0C06C0003000C10800020D3
:1013B000704738B50C46674B4101C9180A77CC769F
:1013C000002A0CD06A49C01D09680091694608705E
:1013D00002F0E4FA6946204602F018FB02E02046DB
:1013E00002F032FB002038BD70B50C46594B41016C
:1013F000CB18197E01291AD0554901250002411840
:101400001D76002A16D0DC60187F002822D00868DC
:101410006A0410430860886A1022104388620D62D3
:10142000D87EDA6801232C3102F013FB16E002208B
:10143000C04370BD0D62012000034A6A401ED507FB
:1014400001D04A6201E00028F7D1C86A206000207C
:10145000187603E0886A284388620D62002070BD18
:1014600070B53C4C43011D192B7E012B1DD0384B10
:1014700001260002C4182E76002A19D0E960287FC0
:10148000002837D02068710408432060A06A10212A
:101490000843A06221466B7EE87E2C31EA6802F0A8
:1014A000D8FAA87E00282CD02CE00220C04370BDC2
:1014B000A87E0023002803D007202B76C04370BDF0
:1014C000266201200003626A401E560701D562624F
:1014D00001E00028F7D16A7E0020002A08D98200A6
:1014E0001619366B8E50401C6A7EC0B28242F6D806
:1014F0002B7607E0A06A05210843A062A87E002899
:1015000000D12662002070BD70B5124C43011D1938
:101510002B7E012B30D00E4B01260002C4182E76F4
:10152000002A2CD0E960287F00284AD02068710466
:1015300008432060A06A10210843A06221466B7E08
:10154000E87E2C31EA6802F084FAA87E002811E0D7
:10155000002000420C0700208000020080E200E032
:1015600000ED00E000E400E000E100E080E100E0E8
:10157000D07200002CD02CE00220C04370BDA87EA9
:101580000023002803D007202B76C04370BD2662BD
:1015900001200003626A401E560701D5626201E025
:1015A0000028F7D16A7E0020002A08D98200161987
:1015B000366B8E50401C6A7EC0B28242F6D82B76C3
:1015C00007E0A06A05210843A062A87E002800D198
:1015D0002662002070BD70B4B64C43011B191C7EFE
:1015E000012C0FD0B44D0124000240191C76002AB2
:1015F0000CD0D960816A052211438162997E00294D
:1016000027D027E070BC0220C04370479A7E002597
:10161000002A04D01D7670BC0720C04370470462C6
:1016200001221203446A521E660701D5446201E09A
:10163000002AF7D15C7E0022002C08D994002618DD
:10164000366B0E51521C5C7ED2B29442F6D81D7697
:1016500000E0046270BC0020704797490002401807
:1016600080210162002070470420C0437047924BE4
:1016700010B40002C3181F24C800042906D29969B7
:101680008440A14382400A439A6106E0D969203828
:101690008440A14382400A43DA6110BC00207047B5
:1016A000854A00028018816100207047824A00024A
:1016B0008018C1610020704730B47E4C43011C1972
:1016C0007D4B0002C018C36889000F258D40AB43D5
:1016D0008A401A43C26001680122890889001143C7
:1016E00001600020A07630BC704730B4714C4201DC
:1016F0001419714A00028018C26889000F258D40B4
:10170000AA438B401343C360016802228908890001
:1017100011430160A27630BC00207047664A000287
:101720008018406A086000207047634A00028018F1
:1017300041620020704710B45F4C00020023001982
:10174000002906D0012906D0022906D0032907D195
:1017500005E0012304E0042302E0082300E0102355
:10176000816A002A01D0194300E09943816210BCCC
:1017700000207047F8B501464E4A400184184E4A91
:1017800008028018227A00250826002A29D04A4F0C
:101790000902C91902232C31022A3AD0012A5DD04C
:1017A000416A032A41621BD10A0700D50425C907F3
:1017B0000ED0627E0021002A09D98A001618366BE5
:1017C000E768491CBE50627EC9B28A42F5D81D4303
:1017D000002D05D02268002A02D028466168904773
:1017E000F8BD416A4162CB070022002B02D0237F63
:1017F000002B07D0C8060AD5207F002807D008256F
:101800002276E5E7C06AE16801250860F8E72276FC
:10181000F8BD426A4262560702D5267F002E0ED0DE
:10182000D006F5D5207F0028F2D0A07E0A2500281A
:10183000D0D0637EE07EE26802F00BF9CAE7627EF8
:101840000021002AC3D98A001618366BE768491CA4
:10185000BE50627EC9B28A42F5D8B8E7426A426297
:10186000170703D5876A3F0700D50425570702D518
:10187000277F002F0ED0D006AAD5207F0028A7D022
:10188000A07E35430028A3D0637EE07EE26802F0AC
:10189000E0F89DE7627E0021002A98D98A00161898
:1018A000366BE768491CBE50627EC9B28A42F5D8E1
:1018B0008DE700000C07002000200042FC498868EA
:1018C000FC4A1043886000207047F0B40C24604349
:1018D000F94C0619F64C00203060A004C76A851345
:1018E000AF43C762476BAF434763C76A2F43C762C3
:1018F000476B2F434763B3607260A06A01221043B5
:10190000A062A068EB4A1043A06008790322000798
:10191000000B920780180A78930318431123DB0108
:10192000C018012A02D04978490008432060F0BC61
:101930000020704701208007C26A81138A43C26277
:10194000426B8A434263C213DC4802600160490073
:1019500001600020704770B40A78D54C0020D3078E
:1019600000D0802095074023002D01DA184300E0C5
:1019700098434B7820259E06002E01DBD60601D524
:10198000284300E0A843DE061025002E01DB1607E1
:1019900001D5284300E0A8431E070825002E01DBDF
:1019A000560706D528431E0701D4560702D52843FB
:1019B00001E0A843A8439E070225002E01DB56063E
:1019C00001D5284300E0A843DD070123002D01D104
:1019D000920601D5184301E04008400060630124ED
:1019E0006404B74AB54B002801D0146000E01C60C5
:1019F00048784406B34801D5106000E01860487884
:101A0000C109B14801D0106000E0186070BC00202E
:101A10007047137910785B07C0075B091843137A86
:101A2000A3491B041843137BDB079B0D1843137C4E
:101A3000DB07DB0D1843137D127EDB075B0FD2073C
:101A40001843D20F10430864002070470420C0439D
:101A5000704710781379C007DB07800DDB0D184342
:101A6000137A127BDB075B0FD20791491843D20F21
:101A700010438864002070470420C04370471078EA
:101A80001179C007C9078009C9090843117A884B31
:101A9000C907890A0843117BC907C90A0843517C51
:101AA0008907890B0843117D0A06120C104308436D
:101AB000D8630020704710B41079147AC007A407C7
:101AC0009289000BA40B204392B2794B1043062954
:101AD00012D20A007A441279921897440204060836
:101AE0000A0C986508E0D86506E0186604E05866B8
:101AF00002E0986600E0D86610BC002070476C4B8E
:101B0000986A0721090288435107490D01439962E8
:101B10000020704730B4664C6068002901D003296A
:101B20000BD1002A04D00125ED04012B0AD003E0DB
:101B300001252D04012B05D0A843012904D0032938
:101B400002D00DE02843F8E7002A04D001252D0536
:101B5000012B0AD003E001256D04012B05D0A84319
:101B6000022904D0032902D00DE02843F8E7002A17
:101B700004D001214905012B09D003E0012189048A
:101B8000012B04D08843606030BC002070470843BC
:101B9000F9E730B4464C6068002901D003290BD125
:101BA000002A04D00125ED02012B0AD003E0FF2515
:101BB0000135012B05D0A843012904D0032902D007
:101BC0000DE02843F8E7002A04D001252D03012B5E
:101BD0000AD003E001256D02012B05D0A84302299C
:101BE00004D0032902D00DE02843F8E7002A04D0EE
:101BF00001214903012B09D003E001218902012BB6
:101C000004D08843606030BC002070470843F9E787
:101C100030B4274C6068002901D0032905D1002A7F
:101C200008D00825012B0DD0A84301290CD0032989
:101C30000AD013E0012B02D040084000F5E701254F
:101C40002843F2E72843F0E7002A03D01025012BB0
:101C500009D002E00225012B05D0A843022904D0B7
:101C6000032902D00BE02843F8E7002A03D0202103
:101C7000012B08D002E00421012B04D088436060CE
:101C800030BC002070470843F9E730B4084CA06826
:101C9000002901D0032905D1002A17D00825012BDE
:101CA0001CD0A84301291BD0032919D022E0000031
:101CB000001000420004CA002C07002080E100E070
:101CC00000E100E00080000000000100012B02D0D4
:101CD00040084000E6E701252843E3E72843E1E721
:101CE000002A03D01025012B09D002E00225012B88
:101CF00005D0A843022904D0032902D00BE02843D1
:101D0000F8E7002A03D02021012B08D002E00421AB
:101D1000012B04D08843A06030BC002070470843EA
:101D2000F9E73A48102A02D20520C0437047C26042
:101D3000002070473548002901D0032902D1002A2C
:101D400005D00361012904D0032902D004E0C36156
:101D5000F8E7002A05D04361022904D0032902D004
:101D600004E00362F8E7002A02D083610020704794
:101D70004362FBE72548C16A01221143C16200208A
:101D800070472248C16A49084900C1620020704773
:101D90001E48C16A80221143C162002070471B485F
:101DA000C16A80229143C162002070471748806B4E
:101DB0001080002070471548006B086000207047B5
:101DC0001248406C0860002070471048C06C0860E2
:101DD000002070470D49886865225204104307228D
:101DE0001202904388600020704709484268002A28
:101DF00002D0816800201047704705484268002AD9
:101E000002D0816801201047704700000010004296
:101E10002C07002010B40723072909D908398C00A2
:101E20004168A3409943A2400A43426010BC7047F6
:101E3000046889008B409C438A402243026010BCA6
:101E4000704710B48368490003248C40A3438A4040
:101E50001A43826010BC704710B4C3684900032461
:101E60008C40A3438A401A43C26010BC704710B430
:101E7000036901248C40A343012A00D12343036159
:101E800010BC704770B4046A490003258D401646A3
:101E9000AC438E4026430662002A0CD0012A03D0B0
:101EA000022A01D0032A04D1826A8B40AA43134339
:101EB000836270BC7047816AA943816270BC7047BD
:101EC000406A70474162704781637047C1637047E1
:101ED000406B80B27047016370470000F8B504465C
:101EE0000078F74B02250121042853D0F54A5068A9
:101EF000A778460760783F02074378BA9F7E0004C0
:101F00003F033843DF7E760F3F0238433043506053
:101F100020780B263602002806D0012810D002288F
:101F20001CD0032836D126E01068202738431060E3
:101F30000220401CB042FCD35068C008C00028E01A
:101F40001068802630431060DF4E0220401CB042F3
:101F5000FCD35068C008C00008431AE01068082786
:101F6000384310600220401CB042FCD35068C008C7
:101F7000C00028430DE01068284310603726760221
:101F80000220401CB042FCD350680626C008C000A6
:101F90003043506020785876CC4866680660607898
:101FA0000F468140304603F00BFE0090A078394682
:101FB0008140009803F004FEC54908606421304662
:101FC00005F014F9C34A002303F0EBFBC249412298
:101FD0000860120600981168C04B0909090198426F
:101FE00005D95B00984201D8394300E029431068C5
:101FF000084310600020F8BDB24A516803231B0259
:10200000994300280ED0012804D0022805D00328C7
:1020100008D106E0FF20013001E001204002014329
:1020200000E01943516000207047F0B40125417968
:102030002D0303273F022E030224A24B0129196816
:1020400064D008229143114319600B22120202212D
:10205000491C9142FCD35968C908C9002143A943CE
:10206000596059680122B943520211435960012154
:102070008905196200BF00BF00BF00BF00BF027822
:1020800045781207120F2D022A4385782D072D0E51
:102090002A43C5786D076D0B2A430579ED07ED0AD4
:1020A0002A4351183722520511431A6A0A431A6209
:1020B0004279012A3ED07D214901491E0029FCDCDC
:1020C000196A0029FCDA7E4901250D768A76807925
:1020D000C87658680F210906884307223043120446
:1020E0009043586058680725C008C00028435860CE
:1020F00058688843904358604121090608680009E0
:10210000000120430860F0BC00207047A143214338
:102110001960372252020221491C9142FCD35968AE
:102120000622C908C9001143B143294359605968BF
:10213000B9439BE77D21C900BFE76149497E8142E0
:1021400001D1002070475F4A1168002806D001289D
:1021500006D0022806D0032808D105E0202004E09C
:10216000802002E0082000E00220014311600020EE
:1021700070475349497E814202D10520C0437047D0
:10218000504A1168052819D203007B441B79DB18DB
:102190009F44020406080B00202004E0802002E097
:1021A000082000E00220814308E0106A0123DB05DB
:1021B00098431062106A5B1098431062116000200F
:1021C0007047F0B49B073F4E3D4C454D1B0E454FAD
:1021D000002804D0012816D0022839D127E0394838
:1021E0008068C0263043374EB060626021603E494F
:1021F000022008602968FF22120291431A0211434B
:102200002960386024E02F4880680326B6023043F6
:102210002C4EB060E260A160334908200860296854
:102220000902090A1A0611432960386010E0626148
:102230002161B0680C210843B0602B49042008607C
:102240002968FF22120491431A041143296038605F
:10225000F0BC0020704710B402231A49234A00281A
:1022600004D0012808D0022813D10CE08868C024CB
:10227000A043886013600CE0886803239B029843A6
:102280008860082004E088680C2398438860042054
:10229000106010BC0020704706282AD203007B443F
:1022A0001B79DB189F44020406080A24002220E060
:1022B00001221EE004221CE005221AE0062218E09A
:1022C000380700204000004000F82A003C010020B0
:1022D0004001002040420F0044010020C0FC9B014F
:1022E00000E400E000E100E080E200E080E100E0E6
:1022F000072250010907090F0843102108433249FA
:102300000861002070473048016910229143016143
:1023100000207047012189070A6902430A610020F1
:102320007047012189070A6982430A6100207047CA
:10233000012189078A6902438A61002070470121CF
:1023400089078A6982438A610020704701229207C7
:10235000D169D16101600020704701229207516963
:10236000D1610160002070471848006BC205164813
:10237000202182680A43826015480268002A02D040
:1023800041680120104770471048006BC2050E4895
:10239000022182680A4382600D480269002A02D045
:1023A00041690420104770470848006BC205064881
:1023B000826841150A43826005488268002A02D07B
:1023C000C16802201047704740000040C000004034
:1023D0003807002010B4012189074C6A01231A46EE
:1023E000824094434C62CC6A9443CC624C6B9443DD
:1023F0004C631230C006C00E8340FE48036010BC20
:1024000000207047F0B59C4696462822FA4B42437E
:10241000D218FA4C03021F1900239360D360136192
:1024200053619361D3611362A6045362736A0124FA
:10243000254685402B437362F36A2B43F362736B2B
:102440002B437363634653607346136000227A60C4
:102450003A610B78002B00D120228B79002B09D018
:10246000012B04D0022B04D0032B03D101E0224323
:1024700000E01A434B79002B0DD0012B09D0022B21
:1024800002D0032B07D102E004231A4303E00C23FC
:1024900000E008231A430B79002B01D110231A43C3
:1024A000CB79002B03D0012B01D15B031A4301230D
:1024B0005B021A437A604A88FA603C61123040B28B
:1024C000C3060022DB0E9C40CD4B1C600D7A8107B9
:1024D000C90EFF238B4000280EDA0007000F0838D2
:1024E0008608C848B6003618F0699843AB071B0E3B
:1024F0008B401843F0610AE08608C348B6003018E4
:1025000006689E43AB071B0E8B401E430660BF4808
:1025100004601046F0BD10B4B84C0002120200195D
:102520000A4319040A43426110BC00207047B34AB1
:10253000000280189214002902D0012906D102E07D
:102540004168914301E041681143416000207047B8
:10255000F8B59C462823A84C43431C19A74B0002FE
:10256000C518207A079F069E830701D4C00702D0B2
:102570000220C043F8BD68680323DB041843686089
:10258000002A03D0207A012318432072002E03D0A2
:10259000207A022318432072A66100206261206223
:1025A000E0616046FF22E1602061002F61D0264695
:1025B00020363079002879D068680321490408431F
:1025C000686070792A466369E16801F042FAF0793F
:1025D0002946A369226901F03CFA90E0E16960694B
:1025E00088421DD9A96802200142FBD0E168481C3D
:1025F000E06009786B689B070DD0431CE3600078AE
:10260000000201436868C043800704D1581CE060A1
:102610001878000401432960E069401CE06107E08C
:102620006868800604D5A96802200142FBD02A60B0
:10263000216AA06988421CD9A868C007C00FFBD0D6
:10264000286821694B1C23610870696889070DD0CF
:102650002369060A591C21611E706968C9438907EC
:1026600004D1010C2069431C23610170206A401CC5
:102670002062216AA0698842B0D8E1696069884215
:10268000ACD8207AFD210840410849002172AA688F
:102690001020024203D1AA68082002422FD0480825
:1026A000400020720820C043F8BDFFE7E36960697D
:1026B00098421BD90846491CE16000786A68920775
:1026C0000FD00A46491CE160127813026A68184369
:1026D000D243920705D10A46491CE16011780904EA
:1026E0000843E169491CE161286003E068688006ED
:1026F00000D52A60686803218903084368600020C8
:10270000F8BD38B50C4628213B4B4143C9183B4D19
:10271000203103025B190A714C71002A16D0002186
:1027200040006A46801D0091107058688007800F35
:1027300002D0022804D101E0517001E00120507064
:1027400001F02CF96946204601F060F9002038BDFF
:1027500038B50C462821284B4143C918274D203154
:1027600003025B198A71CC71002A14D028494000F9
:10277000096800916946401D087058688007800FFD
:1027800002D0022801D10120487001F007F9694602
:10279000204601F03BF9002038BDF0B482B00021A2
:1027A00000912821144A41438A1814490002401814
:1027B0004168890606D481684023194202D08168A5
:1027C000994381600121836849020B4224D08468C7
:1027D00004231C4220D083688B438360107A400816
:1027E000400010721368002B02D09069002823D09B
:1027F00002B00FE080E100E05407002000900040AC
:1028000080E200E000ED00E000E400E000E100E034
:10281000D4720000F0BC7047FF21836801310B4087
:10282000FD25002B0DD083688B438360107A2840F0
:1028300010721368002BDBD0516802B0F0BC01208D
:102840001847114620318B79002BD1D10979002905
:10285000CED181680223194004261C4600295AD093
:1028600081680423194256D09169002903D0116A66
:10287000D3698B424FD1D36951698B421ED1137AF0
:10288000DF071BD0590849001172836810210B42E1
:1028900000D0009481680823194202D00099314386
:1028A00000919169002936D141680123DB039943E6
:1028B000416000990123194300912CE0D3698B42B8
:1028C00022D2D16800291CD04B1CD3600978019119
:1028D0004168890711D0591CD1601B78019F1B02E8
:1028E0003B4301934368DB439B0706D14B1CD360FA
:1028F0000978019B090419430191D169491CD161EF
:1029000002E00021C9430191117ACB0701D1890767
:1029100001D5019901608168C907C90F4AD0816852
:102920008023194246D001680191116A9369994246
:1029300040D21769002F17D07B1C019913613970A1
:10294000416889070DD001990F0A591C11611F7048
:102950004368DB439B0704D1019B1B0C4F1C176191
:102960000B70116A491C1162116A9369994221D155
:10297000117A8B071ED52940490849001172416818
:1029800003239B03994341601168002900D12FE77D
:1029900081681023194202D0009921430091806878
:1029A00008210842009801D03043009001210843DB
:1029B000009003E010680028E9D000980028E6D0D5
:1029C0005168126802B0F0BC1047000030B4012218
:1029D0009207946A0546012110350B46AB409C4393
:1029E0009462146B9C431463C01DC006C00E8140EA
:1029F000E148016030BC00207047F0B50C24DF4D89
:102A000044436419DE4E8501AD19AC4600252560AE
:102A1000A360012362609B079D6A0646103601226F
:102A2000B24095439D621D6B95431D639D6A15439E
:102A30009D621D6B15431D63C51D6DB2EF06AE464D
:102A4000FF0E01250B78BD4000262F46002B08D035
:102A5000012B04D0022B02D0032B0ED101E0012662
:102A6000F6021E4323704B78052B06D81D014B88B8
:102A700001243543A402A3420BD90520C0434107DA
:102A80008B6A93438B620B6B93430B63BA490F6062
:102A9000F0BD0A79634612022A431A604A88521E20
:102AA00093059B0D62469360B64A00231760C01DD4
:102AB0004C798007C00EFF2172468140002A0EDA51
:102AC0001207120F083A9508AF4AAD00AD18EA692F
:102AD0008A43A107090E81400A43EA610AE095088A
:102AE000AA4AAD00AD182A688A43A107090E8140A1
:102AF0000A432A60A64807601846F0BDA04A800134
:102B0000801880690870002070479D4A80018018F5
:102B1000C16001610221C16102688B021A43026037
:102B20004160012141600021416108467047F0B4D5
:102B30000C25924E4543AD19914E8001049C80199D
:102B4000E60703D0C66904273E43C661A7070226ED
:102B5000002F02DAC7693743C7616C70C260036136
:102B600080220029016807D091430160466001215D
:102B70004160F0BC002070471143F6E7804A8001B5
:102B80008018026889000A430260C1690622114365
:102B9000C161022141600121416000207047F0B411
:102BA000774C89010E19074614370121B9405204A8
:102BB00011431B04049D19432943716280010019CC
:102BC0001A434262F0BC002070478A016C495318D6
:102BD00000225A62800140184262104670476849DC
:102BE0008001401800214160C16141610846704781
:102BF000634A80018018406908800020704760495E
:102C00008001401800214161084670475C4B8001FB
:102C1000C018012A03D00069088000207047C068EE
:102C2000FAE770B4564E8401A4193615039DB242DA
:102C300003D970BC0520C043704704290BD1042878
:102C400009D254488669F60AF602866186691B0233
:102C50002B431E43866120687023984320602068C0
:102C6000090108432060521E9005800DA06070BCD1
:102C700000207047424B8001C018062921D20B006A
:102C80007B441B79DB189F4402130C130C13C1699E
:102C9000002A02D00122114301E049084900C16124
:102CA00004E00421002A06D108E0C2610020704738
:102CB0000221002A02D0C2690A43F6E7C2698A43A8
:102CC000F3E70520C043704782B0002100910C213A
:102CD0002A4A414389182A4A8001801882696B4632
:102CE0001A711A7982614A68002A3AD01879400725
:102CF0000CD50878012802D0032805D006E04878D2
:102D0000C00703D0042000E010200090187980074D
:102D10001AD50878002806D0022804D0012807D048
:102D200003280DD010E000980223184300900BE018
:102D30004878800708D5009808231843009003E0DE
:102D4000009820231843009068460079C007009837
:102D500002D0012318430090002802D0896802B0F5
:102D6000104702B070470020AEE70120ACE7022018
:102D7000AAE70320A8E7000080E100E07C0700202C
:102D80000030004080E200E000ED00E000E400E000
:102D900000E100E08000004030B401229207D46AD4
:102DA0000546012108350B46AB409C43D462546B69
:102DB0009C4354631430C006C00E8140F748016044
:102DC00030BC00207047F0B50E4605462820F44977
:102DD0006843401885B000278760C7600761476176
:102DE0008761C76107624762EE4C43602902026057
:102DF0000C1901208007C26A2B4608330121994033
:102E00008A43C262426B8A434263C26A0A43C26215
:102E1000426B0A434263E54AE34890626069C00737
:102E200004D0206800906069C007FAD1606980060C
:102E3000FCD500206060E06020616069A0682A46DF
:102E400000901432307952B20392D206D20E01278A
:102E50009740002805D0012803D0022801D003287C
:102E600017D17279052A14D213007B441B79DB1821
:102E70009F440A0205081C000822104304E018229F
:102E8000104301E028221043B279002A13D0012A0E
:102E90000FD00520C0434307DA6A8A43DA625A6BCF
:102EA0008A435A63BD490F6005B0F0BD202210432C
:102EB000E5E704210843E060BD480068410802914D
:102EC000306801010091029802F07AFE00990190A9
:102ED00048430299081A0002009902F071FE014667
:102EE000019880B22062C8B26062B24800220760D6
:102EF000A807C00EFF230399F479834000290EDA56
:102F00000907090F08398D08AB49AD006D18E9694B
:102F10009943A3071B0E83401943E9610AE08D081A
:102F2000A649AD0069180D689D43A3071B0E834099
:102F30001D430D60A2480760104605B0F0BD70B596
:102F400015462822964C42431419964A00028218CC
:102F5000A068C60702D00220C04370BD012665618B
:102F60003043E160A0600020E061002B0ED02046DD
:102F70002030417900291FD0516820231943516026
:102F800000796369E16800F064FD23E0E1698D4246
:102F90000DD9E069E1680918401CE061087810600B
:102FA00050698006FCD5E16960698842F1D8A06863
:102FB00040084000A0600DE05069800606D5E06939
:102FC000E1680918401CE06108781060506802212F
:102FD00008435060002070BDF8B50D4628214143DC
:102FE0006F4C00020C196F49A6684118B00702D552
:102FF0000220C043F8BD02200643A6602561A261FD
:1030000000222262002B0ED020462030C279002AF6
:1030100033D04A6810231A434A608079A369226931
:1030200000F017FD2DE0236AA2699A4220D90825F5
:10303000042600234A69D207FCD04A692A401A4371
:103040004B69334013434A6902401A4305D0A168D3
:1030500081430820C043A160F8BD0B68226A27693C
:10306000BF18521C22623B70236AA2699A42E0D8C0
:10307000A06840084000A06003E0486801221043B7
:1030800048600020F8BD2821454A41438918454A37
:1030900000028018C36840221343C360C36893438F
:1030A000C360886802224008400090438860002086
:1030B000704738B50C460346282039495843401814
:1030C000203042710471002A0CD00020009058007A
:1030D0006946801C087000F061FC6946204600F0DB
:1030E00095FC02E0807900F0AFFC002038BD38B5D7
:1030F0000C4628212A4B4143C9182031CA718C71D2
:10310000002A0DD02F494000096800916946401CF3
:10311000087000F043FC6946204600F077FC02E0AE
:10312000204600F091FC002038BD1E4A00028018A5
:103130004069400601D5002000E001200870002011
:103140007047184A0002801840694006400E087017
:1031500000207047134A0002801801630020704766
:10316000104B0002C31806292ED2080078440079BB
:1031700000188744020406080A0C012008E0022017
:1031800006E0082004E0042002E0102000E02020F7
:103190005968002A1BD001431AE0000080E100E0DA
:1031A000AC070020008000400000020480000040C6
:1031B0004001002080E200E000ED00E000E400E0DB
:1031C00000E100E0D87200000520C0437047814351
:1031D0005960002070472821484B70B44143C918FA
:1031E0000022474B83B00002C0180092836801930D
:1031F0005B079D0F10232024032D30D0019A120766
:10320000950F0222032D4BD0019B5B0712D503685B
:103210000E6A0D69AB550B6A5B1C0B620D6A8B69FC
:10322000AB4207D143685B085B0043608B68934304
:103230008B600092019B0A259D430123002D36D00F
:10324000019CA40748D5CD694C69AC423AD0CA6903
:10325000CB689B18521CCA611A7802603CE00425B6
:10326000009545690195ED0601D50C250095019D58
:103270002D0702D5009D1D430095019B5B0702D5DC
:10328000009B23430093019B9B0703D5009B402495
:103290002343009303686C462371426020791BE04E
:1032A0008D6895438D6045689D434560C1E78A6898
:1032B000520852008A604268A24342600098184354
:1032C000009009E08C68640864008C604468944352
:1032D00044600098184300900A68002A06D00098BD
:1032E000002803D0496803B070BC104703B070BC1D
:1032F000704700206FE701206DE70000AC07002059
:10330000008000403249314808637047304900204E
:10331000086370472F4B5A6019602F4B002199604A
:103320000A460178012900D108224178072919D8D5
:1033300011438278002A02D0012A02D012E04022F2
:1033400000E0802211439960244A10211160244A30
:10335000C078136880071B0A1B02000E034313602A
:1033600020480160002070471A490020086048602A
:103370008860194988601C49102008600020704747
:1033800015498A6810231A438A60124A90600860BF
:103390000020704700211048C94301608168102255
:1033A00091438160002070470A480B49806808609B
:1033B00000207047084949680160002070470549AE
:1033C0000A68002A01D04968104770475AA50000D2
:1033D000C0020040FC0700200002004080E200E044
:1033E00004E400E000E100E080E100E04122120698
:1033F0001168AA4B1940012804D0012000040143A0
:1034000011607047A648FAE74122120611680123AD
:103410001B069943012800D11943116070474121CF
:1034200009060A68000712091201000F104308601C
:10343000704741210906012803D0002800D14860C7
:10344000704798484860984848609848F7E7412195
:103450000906012803D0002800D1886070479448ED
:103460008860944888609448F7E741231B06DA682F
:103470008243012900D10243DA60704741231B06D1
:10348000DA69120A1202012900D10243DA61704797
:1034900041231B061A698243012900D102431A61A4
:1034A0007047412109064A69800F8007104348612F
:1034B000704730B4412212065169FF23013399430A
:1034C0004024012804D07D480460516130BC70471D
:1034D0007B4819430368FF252D04AB430325AD0545
:1034E0002B4303607748EFE741200006806970476F
:1034F000412109068861704741231B061A6B8243EC
:10350000012900D102431A63704741200006406B35
:1035100080B2704741200006006B6B49084070473D
:10352000C201412000068263C901C1637047412086
:1035300000068169C90507D500BF00BF00BF00BFF5
:1035400000BFFF21013181618169890507D500BF75
:1035500000BF00BF00BF00BF012149028161816936
:10356000C90307D500BF00BF00BF00BF00BF0121D6
:10357000090481618169890307D500BF00BF00BFCD
:1035800000BF00BF0121490481618169490307D55A
:1035900000BF00BF00BF00BF00BF012189048161DF
:1035A0008169090307D500BF00BF00BF00BF00BF8E
:1035B0000121C90481618169C90209D500BF00BF29
:1035C00000BF00BF00BF8169012212051143816164
:1035D000704700BF00BF00BF00BF412212069369C1
:1035E000DB07FCD1536983430343536100230B6022
:1035F0009169C907FCD151698143516197E7412223
:103600001206116801235B069943012800D1194372
:103610001160704770B400BF00BF00BF00BF00BFA3
:1036200000BF00BF00BF41231B069C69E407FCD11B
:1036300000BF00BF00BF00BF5C6901252C435C6177
:10364000002400290CD920CAA600855100BF00BF64
:1036500000BF00BF9D69ED07FCD1641C8C42F2D312
:1036600000BF00BF00BF00BF58694008400058615C
:1036700070BC5CE7F0B446180024034600290AD960
:103680001D781778521C5B1CBD4201D0061902E060
:10369000641C8C42F4D33046F0BC7047FFFEFEFF42
:1036A00000010100674523017856341289674523DC
:1036B0009A785634AB896745BC9A785680E100E029
:1036C00004E400E000E100E00301010070B45407ED
:1036D000DBB252071E04520D64091A43A84D34434D
:1036E000A84B082815D206007E443679B619B7448F
:1036F000100310121B23323B1869002902D0012944
:1037000003D005E02840204302E0C00AC002104375
:10371000186170BC70479869022902D1C00AC002C2
:103720001043986170BC7047D869032901D12840C3
:103730002043D86170BC7047186A052902D004295B
:1037400003D005E02840204302E0C00AC002104335
:10375000186270BC7047586A072902D1C00AC002BB
:103760001043586270BC7047986A082901D12840FC
:103770002043986270BC704783494A684007D2086A
:10378000D200400F104348607047F0B482B09C46AE
:1037900013460025079A069F7B4C0095002A2FD0E0
:1037A000266A22121643266200BF226A4907490B85
:1037B00001431806000C520D01435205604616469F
:1037C00000070522000E520501433807000F16437B
:1037D000014331430191206A084320620195019819
:1037E000401C0190A028FAD3206A002810DB009822
:1037F000411C0091082808D902B0F0BC0020704795
:10380000256202B0F0BC01207047206A0028EEDA81
:1038100002B0F0BC012070475B4A516803231B02D1
:1038200080079943800D084350607047564A51689D
:103830009314C0079943C00C084350607047524A24
:10384000516807231B0440079943400B084350600D
:1038500070474D4A51680F231B0600079943000922
:10386000084350607047484B81B01A688243012971
:1038700000D102431A6000200090401C0090642890
:10388000FBD301B07047404B9A688243012900D1B5
:1038900002439A6070474007D207000ED20E090714
:1038A0001043090F084338490861704710B582B0CA
:1038B0000220FFF7B4FD80230022334985200861F0
:1038C0008868984388600868022398431843086012
:1038D00000920098401C00906428FAD348680F2397
:1038E0001B0698434860486807231B0498434860B8
:1038F0004B68012000038343184348604868032352
:103900001B02984348600092086A01239B051843F4
:10391000086200BF086A0523400D40055B05184397
:1039200001901A48019C072320430190086A019CDA
:103930002043086201920198401C0190A028FAD30C
:10394000086A002807DB0098421C0092082802D869
:10395000086A0028F7DA4868C008C00003434B60D3
:103960000C490B4808600C4908600220FFF757FD1E
:103970000722022308211046FFF7A8FE02B010BD5F
:10398000FFFF00F88000004040000040004F0700AB
:1039900000B4C4043C0100204001002010B43F4B9F
:1039A0001978042902D0002904D012E0062010BCA6
:1039B000C043704701208007846A102294438462C8
:1039C000046B94430463846A14438462046B144359
:1039D0000463491C197010BC002070472F480178FF
:1039E000002905D0491E0906090E017003D00BE01D
:1039F0000620C043704701208007826A10218A4355
:103A00008262026B8A43026300207047244B1A5C77
:103A1000002A02D00220C043704730B4214C02017A
:103A20001219002414600C784D782407AD078978AA
:103A3000240D2D0FC9072C43890F0C43146001215D
:103A4000195430BC00207047154A00211154084613
:103A5000704730B4134C000100190468124D2C401B
:103A6000046004681B041C43046003689B0702D4C1
:103A70008260C16001E08160C2604168012211433F
:103A8000416030BC00207047064900014018416881
:103A90004908490041600020704700004C010020A7
:103AA0004D01002000040040FFFF00F010B572B689
:103AB000FDF704FBFDF7EBF9FFF7F8FEFDF7EFF874
:103AC000FDF751F9FDF73DFAFDF73DFA00F0D8F9A1
:103AD00000F03DFA00F096FAFDF720FA62B60020F9
:103AE00000F020F8FCF723FE002010BD07488047B7
:103AF00007480047FEE7FEE7FEE7FEE7FEE7FEE7D2
:103B000004480549054A064B70470000BD100000F7
:103B1000A9000000980B002098110020980D0020AB
:103B2000980D0020212210B55206002804D004214F
:103B30001046FEF7CBF910BD04211046FEF7C4F97C
:103B400010BDF8B504460078212701267F0600281D
:103B50000FD0607B0025B14C00283DD060707D20E7
:103B6000AF49800100F0C9F900280FD025706570B9
:103B7000F8BD04213846FEF7A9F97D20A949C00007
:103B800000F0BBF90028F3D0267020E0207861789F
:103B900088420AD2A178FF20F53001290DD0A24930
:103BA00000F0ABF9002800D0A670A07800280ED055
:103BB00004213846FEF78AF9F8BD9A4900F09DF9CC
:103BC0000028F2D0A5702078401C2070EDE7042179
:103BD0003846FEF779F9F8BD04213846FEF774F946
:103BE00025706570F8BD017B002200290AD0817B19
:103BF000052929D20B007B441B79DB189F440C114B
:103C0000181D210041890B46143B3C2B07D832225A
:103C10005143C831818017E08188002914D0828007
:103C200012E08288E121C9008A420DD081800BE038
:103C300082887E498A42F9D106E081880029EED146
:103C400002E081880029EAD1794982880B689A428A
:103C500000D00A607749098841807047F0B5044672
:103C60007D2083B07449C00000F047F900280DD0D2
:103C7000FDF74EF800B2714920810988019000914A
:103C8000637B6288A1886E4800F07CF9A67B0020E7
:103C9000042201256B4B6149052E11D237007F4468
:103CA0003F79FF19BF4402121D212C00667B002EB4
:103CB00008D16549184600F020F9002800D0A57306
:103CC00003B0F0BD4860A27303B0F0BD637B002B6E
:103CD000F8D15D495D4800F010F90028F4D00220C9
:103CE0001BE0637B002BEFD0ECE7667B002EE9D175
:103CF0005549184600F001F90028E0D103B0F0BDA5
:103D0000627B002A02D0486003B0F0BD4E491846DD
:103D100000F0F3F80028F7D00320A07303B0F0BD43
:103D2000827B0121002A04D1027B002A01D0428932
:103D3000143A01737047F8B5404D044628880327AC
:103D4000002600281FD02888C1070520002918D187
:103D50002988890701D5062013E02988490710D44E
:103D60002888000701D567730EE02888C106022065
:103D7000002906DB2988890603D42888400602D555
:103D80000420607300E0667360882E49884206D97B
:103D900067732888082108432880FCF747FAA07B2E
:103DA000012801D0022815D129492A4800F0A5F898
:103DB00001001A4808D06773298808221143298016
:103DC0004661FCF74DFA05E061884B2212019142F1
:103DD00000D94661607B002808D01F491F4800F0C9
:103DE0008CF8002802D00120E07302E0E07B01287B
:103DF0000AD1207C052807D8E673617B022904D00C
:103E00002E806673401C2074F8BD29881029F9D0D3
:103E100029882029F6D02E80F4E700000C0200202B
:103E20001C02002014020020180200208C0A00004E
:103E3000B0000020300000202402002006000020F6
:103E4000D8730000881300001002002060E3160001
:103E5000200200201027000028020020E093040028
:103E600080070CD52D490878002801D10120087061
:103E70008A68C868521C002358418A60C86070472D
:103E800000B583B000206946087002224A701422EF
:103E90004A8008710F2048710023214A1846FEF716
:103EA000ACFDF0210020FEF730FE03B000BD1D493F
:103EB000C20601D5C86870478006FCD508697047FE
:103EC00000B583B00321684601700221417064216E
:103ED0004180002101710F2141710023124A69467E
:103EE0000120FEF78AFD02210120FEF747FE03B004
:103EF00000BD0A498868C9687047084A0B6892681B
:103F0000002B00D10A600B68401ED21A824203D3F4
:103F10000020086001207047002070473002002018
:103F2000613E000040300040AF3E000010B5810708
:103F300007D54648012381681A461846FFF74CF812
:103F400010BDC007FCD042490020087010BD00B56C
:103F500083B0E120400200900320694608710020F0
:103F6000487188710520C87100233A4A0120FEF784
:103F70002AFF3648012381681A461846FFF72CF8B5
:103F800003B000BD0FB4F8B507AFFFF7B2FF304C78
:103F9000054660880E46002813D0201D01F0CEFD96
:103FA00000192A4633462CA1001D01F08DFC201D6E
:103FB00001F0C4FD00193A46001D069901F072FC9B
:103FC0000EE00B462A4624A1201D01F07DFC201D99
:103FD00001F0B4FD00193A46001D069901F062FC9B
:103FE000201D01F0ABFD6080F8BC08BC04B0184790
:103FF00010B5174C01214902201D01F0DFFD002002
:10400000608010BD10B5124C01214902201D01F045
:10401000D5FD0020608014A0FFF7B4FF10BD10B5DF
:104020000B4C207800280FD1608800280CD001208C
:104030002070201D01F082FD01230246211D18463B
:10404000FEF77DFF0020608010BD0000080A002000
:10405000080800202D3F00000A54203D2025313063
:104060006C6C75203A2000004C6F676765722049C0
:104070006E697469616C697A6564205620302E31EE
:104080003500000010B4002801DB002202E001220C
:10409000404200B28104890EFE4C4B00E15E1C19C7
:1040A0000223E35EC0B25B1A4343181200B2002A37
:1040B00002D00818404200E0081810BC00B2704757
:1040C00002460A4301D10020704770B5C203131A9B
:1040D0004A10D318CA038D1A0124421064035219DE
:1040E0006542002915DB00280ADB81420BDA15E066
:1040F00001F074FD801000B200281ADB00221BE0E2
:104100004442A14201DB00240DE001462C4610464A
:10411000EEE7002809DB4D42A84202DB01461046CB
:10412000E6E70124A4031846E2E78842EDDBDA4C17
:10413000F9E70122404200B28104890ED54D4B00BF
:10414000E95E5D190223EB5EC0B25B1A43431812AD
:1041500000B2002A02D00818404200E0081800B25D
:10416000001900B270BD10B4002801DB002202E08B
:104170000122404200B28104490EC84C4B00E15E6E
:104180001C190223E35E4006400E5B1A4343D8111C
:1041900000B2002A02D00818404200E0081810BC03
:1041A00000B2704701214903401810B400B2490021
:1041B000884202DB4900401A00B2002801DB0022DD
:1041C00002E00122404200B28104490EB34C4B0090
:1041D000E15E1C190223E35E4006400E5B1A434376
:1041E000D81100B2002A02D00818404200E0081896
:1041F00010BC00B27047AA49884201D9084603E0C2
:104200000121090488420CD38103090FA54B4A0000
:10421000995AD21852888004800C521A4243901343
:104220001CE00121C90288420CD30104490E9E4BB7
:104230004A00995AD2185288C005C00D521A4243FA
:1042400050120BE04105C90E984B4A00995AD218FA
:1042500052888006800E521A42439011081880B28C
:1042600070479349096800290CD0020A5300CA5EBE
:104270005B180221595EC0B2891A41430812101816
:1042800000B2704700207047FFB585B08C460646E7
:10429000109900201C46085EFFF765FF854D688475
:1042A00010990020085EFFF77DFFA8840227624670
:1042B0000223F75FD35E2222AA5E39461E4641439F
:1042C00056438919C91309B27B4E8C467186434304
:1042D0005743D91BC9130BB2B386079900934143C7
:1042E00013466343C918C91309B2A987079B6043E2
:1042F0005A43801AC01302B2704CEA870A23E35E65
:10430000049353439813F3890393377C43433B410E
:104310000197778A0297307D4F4386460741604672
:10432000C018C71B6248BC46C761049B4B439F1320
:10433000039B7B43019F3B41029F0193574373467D
:104340001F41BE46019F009BDB1B7746DB1BC36200
:10435000F78ABE464F43317E0F413FB2B78702977F
:10436000774657430F413FB2A7800197728B816A0E
:1043700096465143CA11B18B67464F43FF11D2197C
:10438000076A4F43FF11D719FF11476200978762F1
:1043900067460762876B72467A430F465F43D211C6
:1043A000FF11D219076B7943C9115118CF11476317
:1043B000876303633A21F38B715EBC4659438A13CA
:1043C000318C029F4F43BF13D2193E27F75F4F43F3
:1043D000BF13D21B12B232877287029FF787022760
:1043E000E75F7B43019F9B134F43BF13DB190627F6
:1043F000E75F79438913591A09B221806180019FCF
:10440000E780009FBA1A6746791A4261816150427B
:10441000FFF756FE2081307801280AD00BD92449B5
:10442000486989694043494340188013FFF7E3FE18
:1044300002E0002020810020F0860821F28C615EDD
:10444000308D4A4302410092708D1D4F48433A68B7
:10445000C1177B688018594179603860B28D01F0CE
:104460008DF9009A801800B26081002803DA0020DC
:104470006081386078600E21708C615E48438211E3
:104480000A21B08C615E4143891151180C22A25E51
:10449000504317E00205002000C0FFFF0004002089
:1044A000FFFF0300CA0600208605002088060020C2
:1044B0004003002000030020400200208002002072
:1044C000C0030020801108180E9900120880E081B6
:1044D0006089A0810E990020085EE98B0123484382
:1044E0000F99001308800A21F08D615E4843318ED8
:1044F000491F0841FD49DB04CA6B80185A00C86394
:10450000984201DB801A04E00123DB04D84201DC7D
:104510008018C863109A40111080288F6887C86B74
:104520004011288709B0F0BDF0B4F14B0025455F7C
:104530001C8A0027EF4EA54205DA2D1D05800F804D
:10454000F780F0BC7047EB49E84DC988491C89B237
:10455000002A19D02A46D26BE74DAA4204DDE3486F
:10456000963AC263F0BC7047F1800480F188DA8922
:104570009142F7D3DD49CA6B0A6102213170B781DC
:10458000598A0180F0BC7047F1800480F188DA8993
:104590009142F7D3E96B296102213170B781598AC1
:1045A0000180F0BC704710B4D14A0023C35E128A68
:1045B000934204DA00245B1D03800C8001E0012497
:1045C0000280204610BC7047F7B5CA4CC84A082381
:1045D000E35E978A0026C54DBB420EDA538A0380FC
:1045E0000E80A089401C80B2A081696D4843800084
:1045F000D18A000C4018208113E003232370068029
:10460000508BBE4A00B20880296CBD4E002919D0DB
:10461000C117528C01F0A2F8F160B0600020306147
:1046200070610821E08D615E01224843218E491F9F
:1046300008412969D204401851002861904208DBE2
:10464000401A0BE0C117D28A01F088F8F160B0601F
:10465000E4E70122D204D04201DC4018286102992B
:104660004011088003B0F0BDF0B5844687B0A04883
:104670000590868B0D9F30464843001301B29B483E
:104680009E4C006C00284ED0A08B0390E08B0690CF
:10469000258C628CA38CE08C0290604646433013DC
:1046A0002085401A00B260854543954E0490B0685D
:1046B000E917F66828187141914D8C46E960A860A9
:1046C00001462C202E25205E655F451B8C485D43EE
:1046D0000669EB174069AE19434189480661436199
:1046E000084661460096019301F048F80546029A93
:1046F0000199009801F042F8291A7C484164039A14
:10470000049842430698024150180599C98E4018F2
:1047100000B2A085218E88420EDD7648E185407981
:10472000012811D015E0208A0390608A0690A58A9E
:10473000E28A238B608BAFE7618E884208DA6D488E
:10474000E1854079012804D168490020C86600E06D
:10475000E08505993420085E6A4A3821515E0823B5
:1047600048438013684900B2484300141082D1893D
:10477000401A00B250820C21D35E515E403A009143
:10478000528F8B4215DD238F5D4943438E69DD17C0
:10479000C9699E194D415A4901238E615B029340BC
:1047A000CD6100219E1BA94103DA55490025CD6149
:1047B0008B61A68E52494643E08E524D0641886970
:1047C000C96900F0DBFF301800B22881002802DB45
:1047D0000020688105E00099884201DA698100E0E3
:1047E000688144484078002812D04049E08D09682B
:1047F00080B2002911D0020A5300CA5E5B18022160
:10480000595EC0B2891A41430812101800B205E07F
:104810000C9869890180E08D19E00020A882FFF7DB
:10482000A2FCE8821420285EFFF7BCFC2883162037
:104830002E21285E615E48436989C013081A0C99CD
:10484000088018202E21285E615E4843C0133880FE
:104850000C990020085E404381130020385E4043DD
:1048600080130818FFF7C7FC218E88420AD90C9ADA
:104870000020105E4943404380138913081AFFF754
:10488000BAFC388007B0F0BDF0B585B0821ACB1AFB
:104890001C4C02930392608C194F50433A6AC11723
:1048A0007B6A85180A9E59413D6279620B460C98D5
:1048B0000021415EBA6A881B618DFE6A4843C117B8
:1048C00080187141F962B862019100901946A28C7A
:1048D000284600F053FF0546A28D0199009800F08C
:1048E0004DFF0249281A886401900FE04003002020
:1048F00000030020400200200B00FCFF800200208B
:10490000C0030020C002002068E60000E08C029B8B
:104910003A6B5843C1177B6B851859413D637963E6
:104920000B460D980021415E0B98BA6B081AE18D79
:10493000FE6B4843C11780187141F963B863009159
:1049400007461946228D284600F018FF05463846CE
:10495000228E009900F012FF291AFE48C164638B71
:10496000039A207F534303410198E28B1818029B5E
:104970005A43238C1A41F84B51185A42984201DD90
:10498000184602E0904200DA1046994201DD1946CD
:1049900002E0914200DA11460C9A10800D980180D5
:1049A00005B0F0BDF0B51646EC4A8446508E87B08F
:1049B0004843D18E0C9F084105B21C46002D00DAF9
:1049C00000256046FFF7CFFB05906046FFF7EAFB46
:1049D00004902846FFF7C7FB03902846FFF7E2FB49
:1049E00002900499059871436043081AC01305B2F8
:1049F00005980499704361434018C01306B2D84823
:104A0000807800280ED00299039869437043081AF1
:104A10000399029AC01369437243891800B2C913FB
:104A20000EB20546284631466843714340180014CB
:104A3000FFF7E1FB4004000C0090CA4CC74A342148
:104A40003820615E105E069041438800010C00989A
:104A5000019188420DD90846D1816843009901F03F
:104A6000BDF805B201980099704301F0B7F806B29D
:104A700000E0D081BD486A104643B113881A51182E
:104A8000B94B00B249421D80588009B299802A462C
:104A9000A84200DD0246914200DD0A462E46B042A1
:104AA00000DA0646B14200DA0E46921952101E464E
:104AB000AB1AE384801A2085881A60852621615EFE
:104AC0000698814201DDE08405E02622A25E414293
:104AD0008A4200DAE1842821615E814201DD20857D
:104AE00005E02822A25E41428A4200DA21852A217D
:104AF000615E814204DC2A21615E4042814200DA2B
:104B000060852620205E2821615E40182A21615E92
:104B10004018032101F062F8E18C091A3180218DDF
:104B2000091A7180618D081AB080388878800D98D4
:104B3000018841803088388002200421305E715E17
:104B4000401A8B4948430D99001408800021795E72
:104B5000049A5143059A504308180E99C0130880CF
:104B60000D990020085E0499059A48430021795E5A
:104B70005143401AC0130F9900B2088078498978D0
:104B8000002912D00E9A0021515E029A039B4A43DB
:104B90004343D218029BD2135843039B5943401AF4
:104BA0000E99C0130A800F99088007B0F0BDFFB5B9
:104BB0006C4C2621208C615E07B281B03846484398
:104BC000664A3821515E009101F008F8381A282110
:104BD00006B2615E38464843009900F0FFFF381A7C
:104BE0002A2105B2615E38464843009900F0F6FF7D
:104BF0000021381A00B2E185218685421ADCAE42D6
:104C000018DA039A11702C21615EAA1B8A4201DA1C
:104C10008A1AE285421B8A4201DA891A2186E38DCB
:104C2000228EE91A9F18C21BEB18B44609B212B2C1
:104C30001DB21DE0B5421DDC86421BDA039901223C
:104C40000A702C21615E721B8A4201DA8A1AE2859F
:104C5000821B8A4201DA891A2186E38D228EF11A9B
:104C60009F18C21B09B28C46F318294612B21EB215
:104C700038181EE0B0421EDC85421CDA039902227D
:104C80000A702C21615E421B8A4201DA8A1AE2858F
:104C9000321A8A4201DA891A2186E78D218EC21BD7
:104CA0007B18F11A09B28C469B19294612B21EB222
:104CB00089E000B23FE0A8421DDCB5421BDA03994F
:104CC00003220A702C21615E2A1A8A4201DA8A1AAA
:104CD000E285721B8A4201DA891A2186E78D218ECC
:104CE00002467B18F11A09B28C46E91B9B191EB2C9
:104CF00009B2EB191EE0AE424CDCB0424ADA03992D
:104D000004220A702C21615E321A8A4201DA8A1A60
:104D1000E285AA1B8A4201DA891A2186E38D0246BE
:104D2000F11A09B28C46218E5F18E91BF3181EB2E6
:104D300009B27B191DB233469D4200DD2B469842D5
:104D400000DD03463746BD4200DA2F46B84200DA9E
:104D500007460FE040030020FF7F0000C002002054
:104D60004002002000030020B80300206D3700003F
:104D7000CE930000DB195F10238CFF1AF31BC01BBE
:104D800006B2ED1B608E1BB22DB283421DDB431EAB
:104D90001BB21DE0039905220A702C21615E821B63
:104DA0008A4201DA8A1AE2852A1A8A4201DA891AC3
:104DB0002186E78D218EC21B7B18E91A5B19B44648
:104DC00009B212B21DB2C01973E7002B00DC012337
:104DD000854202DB451E2DB202E0002D00DC0125DC
:104DE000864202DB401E06B202E0002E00DC0126F5
:104DF0000498038004984580049886806046814228
:104E000000DD0846824200DD10466346994200DA22
:104E10000B469A4200DA1346C0184310208C181A29
:104E200063461B1A091A101A02B2608E1BB209B22D
:104E3000834202DB431E1BB202E0002B00DC012395
:104E4000814202DB411E09B202E0002900DC01219F
:104E5000824202DB401E02B202E0002A00DC012294
:104E60000498C380049801810498428105B0F0BD84
:104E700010B4019C1880881AFE4948438013208092
:104E800010BC704710B4019C1080FB4A4010514385
:104E900089130A1A40181A804042208010BC7047BB
:104EA000FFB505469C460C46099F0298FFF75BF943
:104EB00006460298FFF776F9014632466943624397
:104EC0008918C91360436E436246801B1180C0136A
:104ED000388004B0F0BDF0B5064600209C4614466C
:104EE0000D46105EFFF73FF907460020205EFFF7F2
:104EF00059F901463A4671436A43891AC913624611
:104F000011807743684338180599C0130880F0BDB5
:104F10008030DA498289CA8202880A83028C4A83F5
:104F2000428C8A83828CCA83C08C08847047F8B50F
:104F30000446D24E8034A588B08DD14F421B79688B
:104F4000386805D5524200F009FC7960386003E00A
:104F500000F014FC79603860608AF08460883085E5
:104F6000E08A7085B585F8BD0021415E4801C549DC
:104F7000C8637047F8B50446C34840342789808C1D
:104F8000BF4DC21B696A286A05D5524200F0E6FB94
:104F90006962286203E000F0F1FB69622862BA48A6
:104FA0006689808DB649821B886AC96A05D55242D6
:104FB00000F0D4FBE962A86203E000F0DFFBE962E5
:104FC000A862B148E18B4183E1888183218C4184CF
:104FD0008784618C41858685F8BDF8B50446878F46
:104FE000A948A74D808C696AC21B286A05D5524220
:104FF00000F0B4FB6962286203E000F0BFFB696265
:105000002862A148E68F808D9D49821B886AC96A03
:1050100005D5524200F0A2FBE962A86203E000F06D
:10502000ADFBE962A862204640309749428A4A8334
:10503000628F8A83828A4A848F84C08A48858E855B
:10504000F8BDF8B5044690484034E789008D8C4D92
:10505000C21B696B286B05D5524200F07FFB696368
:10506000286303E000F08AFB696328638648268A88
:10507000008E8349821B886BC96B05D5524200F0B4
:105080006DFBE963A86303E000F078FBE963A863C4
:105090007D48A18CC183A1890184E18CC1840785ED
:1050A000218DC1850686F8BDF8B5044676484034A2
:1050B0006788008D724DC21B696B286B05D5524203
:1050C00000F04CFB6963286303E000F057FB696361
:1050D00028636D48A688008E6949821B886BC96B5E
:1050E00005D5524200F03AFBE963A86303E000F003
:1050F00045FBE963A8636448218BC183218801844F
:10510000618BC1840785A18BC1850686F8BD2320EC
:105110007047F0B50246044680325C4D85B0908EF3
:10512000288403905A48012103685A48890743405C
:105130005448594F43600E6831467940574F7E407E
:10514000574FC6608160BB4205D0564B994202D092
:1051500055498E427ED10121016561882981A1884E
:105160006981464B00219970197021894548490190
:105170000161218918464181D188C1812146403190
:105180008B8E038213894382CB8E83825389C382A1
:105190000B8F0383138B4383538B8383938BC38343
:1051A000D38B0384138D4384538D8384138AC384E8
:1051B0008B8F0385938A4385CB8F8385D389C38562
:1051C0004B8F03862F4B00209862186298631863F8
:1051D0002A4B5887D8870346344843800023C3802E
:1051E0001E461F46264B5F601E6000238381C381DD
:1051F000244E4381F363E68B06820296A68B468299
:105200000196668C86820096268CC682B646E68C0F
:105210000683B446A38C1B4F438300263E64029E44
:105220008683019EC683009E068476464684664633
:105230008684C384238D0386638D4386138EAB815E
:1052400000233E4673641E461F460D4BDF609E6082
:10525000002600E0B2E01E615E618685C685638E31
:105260008386A38DC386A38E0387E38D4387E38E56
:1052700083871DE0F32400006D370000400200200A
:10528000C003002040030020C002002000030020D3
:1052900000F000408BF4DE71634C718A50124D585F
:1052A000DDBB9C30070C422678937EF48002002000
:1052B000238EC387FE480A2303800326468083800B
:1052C0001023C380FB4B00269E61DE610681468170
:1052D000238FF94E5B4283814B8A4383638F8383A1
:1052E0008B8A4384A38F8384CB8A4385E38F838512
:1052F0000B8BC3830B8803844B8BC3844B88038540
:105300008B8BC3858B8803860023B3641E461F46A0
:10531000E84B5F621E6200269E62DE623346E64E06
:10532000F364E44B00261E635E639E63DE63D38DED
:1053300083864686928DC2864A8D2A800A8EAA80EE
:105340002C228A5E6A8017464E8EDC4BEE8000224D
:105350001A71DA70C98DC18719460A81E088E8811F
:1053600060892882E0896882208AE882628AAA822B
:10537000A18A101A2983800300F022FCCE493A4604
:105380004865E08A6883208BA883608BE8830320CC
:10539000000342433241039910B241434913A985A6
:1053A00001218903081AC64900B248430014C549BF
:1053B000A886884200DDA98605B0F0BD0021016500
:1053C00005B0F0BDC04948867047BC4A1178002935
:1053D00004D01179032901D2491C117111790229D4
:1053E00035D330B40288438891B21C0421438488A9
:1053F000280C000420439A4202D999B212041143A6
:105400000A0CA24205D9230489B2000C19430004F6
:1054100010438BB20A0C934202D991B21A04114381
:105420000B0C8CB2191BC903A14D0A0CE98F8A42DF
:1054300000D20A4680B2C01AA218C003000C6A87C4
:10544000884200D208461818A88730BC70477047B9
:10545000F0B49A4F84463879049D059C032839D3CB
:10546000FE78484201B2062E30D2300078440079EE
:1054700000188744020910171E251A8021801888F9
:1054800040184042288021E02A8021802888401846
:10549000404218801AE02A80198028880818404263
:1054A000208013E02280198020880818404228803C
:1054B0000CE022802980208808184042188005E0EE
:1054C0001A80298018884018404220806046F87071
:1054D000F0BC7047002020802880EFE770B47A4C41
:1054E0000A26A65F039D4643F01110800A20205E25
:1054F0004843C0111880118808184042288070BCA9
:10550000704710B40024045F6F4B0C20185E844277
:105510000EDC43429C420BDB00240C5F844207DC20
:105520009C4205DB0021515E814201DC994202DA96
:1055300010BC0120704710BC00207047624908224F
:105540008A5E4243101200B24039088770475B48B8
:105550000078704759490870704755494886704728
:105560005348808E704755488078704753498870FB
:1055700070474F49012803D0022803D0002070470C
:10558000488F7047888F704749490E20085E7047E2
:105590004A494989018070470078484A0006000E50
:1055A0005070454A01D0116070470020106070476C
:1055B00041490A6C82422CD070B5086443490028E6
:1055C0004C8CCA8ACB8C498B0CD0121BCC1A394D0F
:1055D000002AE968A86808DA524200F0BFF8E960DA
:1055E000A86006E0A21A5C1AF1E700F0C7F8E960CB
:1055F000A86069692869002C05DA624200F0AEF8FB
:105600006961286170BD224600F0B8F869612861BF
:1056100070BD704770B42D4C049E039DA083E18340
:1056200022846384A584E68470BC7047264B0022E4
:10563000DA8640335966D8661A679A65DA651F4874
:105640004271234910468300CA50401C4828FAD3AF
:105650007047F8B5194B5A715A79002A7BD0164D0C
:10566000401AA866184C3820205E01214903C84220
:105670000BDA3A20205E884207DD286F401C28673D
:10568000286F022801D900202867286F1149C0031C
:1056900040183821615E40186867686F03218903EC
:1056A000401868670C49686F00F098FAA86515E023
:1056B000C0020020C0030020400300204002002060
:1056C00054550100E649000000030020800200203C
:1056D000140A00200080FFFF5A050000A86DE96D44
:1056E0001D4E884218D04821A86D00F077FA880036
:1056F0008119E86EAA6E50430A68C3171B0E18186A
:10570000001210180860A86DE865A86D696E401851
:10571000482100F063FA2966286E81000E4840583F
:105720000321090348438713286E4821401C00F0D9
:1057300055FA094889004058C0028613286E48214E
:10574000483000F04BFA044889004058B919C002AB
:1057500080130818E086F8BD140A002010B5202A2E
:1057600004DB0146203A9140002010BD91402023E7
:105770009C1A0346E3401943904010BD10B5202AFF
:1057800006DB0846CB17203A1041C1170B4306E051
:105790000B4620241341D040A21A914008431946D9
:1057A00010BDFEB5054610460C46184373D0AE46F4
:1057B0008C460020AD1A01469C4167D366460027FF
:1057C00001243D46B61A9D4102D313463A46212490
:1057D000654676462F04360C3E432D0CB61A9D4185
:1057E00004D3150C1B042B43120410346546764673
:1057F0002F06360A3E432D0AB61A9D4104D3150ED4
:105800001B022B4312020834654676462F073609E1
:105810003E432D09B61A9D4104D3150F1B012B439E
:105820001201241D65467646AF07B6083E43AD0813
:10583000B61A9D4104D3950F9B002B439200A41CE4
:1058400065467646EF0776083E436D08B61A9D41D9
:105850001AD392185B41641C16E000187646654620
:105860004941B71A9D410191009009D36046B11A90
:1058700098418E468446009801990025401C694154
:10588000DD0752082A435B08641EE6D5724663466C
:1058900003B0F0BDFFE700200146C046C0462A46DF
:1058A0002346F5E71CB50C46064B7B446946009041
:1058B000204600F09CFB04460020694600F0AAFB4D
:1058C00020461CBD670700000FB41CB5084B06AA94
:1058D0007B4469460090059800F089FB044600204F
:1058E000694600F097FB20461CBC08BC04B0184772
:1058F0004107000070B5044685690068C10601D5FE
:10590000302600E02026C00707D070BD6268304610
:10591000A1689047206A401C20626D1EF6D570BDBC
:1059200070B5044685690078C00707D170BD62680C
:10593000A16820209047206A401C20626D1EF6D589
:1059400070BD0000F7B5D21D0025D20815A6D20003
:10595000F52905CA11D0002A05DA002140429141FB
:1059600011A60A4608E0009909688B0701D50FA621
:1059700002E0490701D50EA601251146009F00242B
:10598000243704E000F013FA30323A55641C024622
:105990000A43F7D12B4632462146009800F07FFAA1
:1059A000FEBD0000000000002D0000002B000000E4
:1059B00020000000F3B50446002081B0206220469C
:1059C000E1688847002872D0252802D06268A16863
:1059D000ABE0594F00267F442046E16888472028E5
:1059E000054608DB312D06D27819203800780028CA
:1059F00001D00643F0E7B00701D50420864300201C
:105A0000E0610746A0612A2D0AD0284601F01CFC5F
:105A1000002827D0B8000019303D0090856119E0BA
:105A20000298BA00121902C8916102902046E168FA
:105A30008847012F054617D1E06900281FDA20208A
:105A400086431CE000980A21806948430099401968
:105A5000303888612046E1688847054601F0F4FB4C
:105A60000028EFD1012F0AD02E2D08D12046E16861
:105A700088470546202006437F1C022FC3DBA06910
:105A8000002803DA4042A06101200643F00701D05C
:105A9000102086436C2D0BD0682D09D04C2D3CD0A6
:105AA0006A2D38D0742D38D07A2D36D016E040E0EB
:105AB000E1682F4620468847B842054609D16C2F39
:105AC00029D001208002E168064320468847054628
:105AD00004E06C2F1DD0FF2001300643002D28D09C
